:020000040800F2
:10000000A80C0020B503000895010008970100081E
:10001000990100089B0100089D01000800000000F4
:100020000000000000000000000000009F01000828
:10003000A101000800000000A3010008A5010008BC
:10004000CF030008CF030008CF030008CF03000848
:10005000CF030008CF030008CF030008CF03000838
:10006000CF030008CF030008CF030008CF03000828
:10007000CF030008CF030008CF030008CF03000818
:10008000CF030008CF030008CF030008CF03000808
:10009000633F0008CF030008CF030008CF03000828
:1000A000CF030008134E0008CF030008CF03000859
:1000B000D7520008793900088F380008CF030008AC
:1000C000CF030008CF030008CF030008CF030008C8
:1000D000CF030008E3280008692F0008CF030008B9
:1000E000CF030008CF030008CF03000800F002F898
:1000F00000F03AF80AA090E8000C82448344AAF188
:100100000107DA4501D100F02FF8AFF2090EBAE885
:100110000F0013F0010F18BFFB1A43F0010318473B
:10012000E465000004660000103A24BF78C878C176
:10013000FAD8520724BF30C830C144BF04680C60ED
:10014000704700000023002400250026103A28BF35
:1001500078C1FBD8520728BF30C148BF0B60704739
:100160001FB51FBD10B510BD05F023F91146FFF7EF
:10017000F7FF00F0D3F805F041F903B4FFF7F2FF01
:1001800003BC02F0F7FA000030BF72B662B680F32B
:10019000088870477047FEE7FEE7FEE7FEE7704716
:1001A00070477047704700000CB500220192009222
:1001B0005248016841F4803101604FF4A063016846
:1001C00001F4003100910199491C0191009911B984
:1001D00001999942F3D10168890302D50121009167
:1001E00000E000920099012930D145490A6842F0A7
:1001F00010020A600A6822F003020A600A6842F0EC
:1002000002020A604168416041684160416841F40E
:1002100080614160416821F47C114160416841F492
:10022000E8114160016841F0807101600168890155
:10023000FCD5416821F003014160416841F00201B1
:1002400041604168C1F381010229FAD10CBDABE7DD
:1002500010B52A48016841F0010101604168294A4E
:10026000114041600168284A11400160016821F491
:1002700080210160416821F4FE0141604FF41F01BB
:100280008160FFF7E4FF21494FF00060086010BD76
:1002900010B51A4A506800F00C011D4B1D4800298A
:1002A0000ED004290ED008290ED003605168194AD7
:1002B000C1F30311121D515C0268CA40026010BDF7
:1002C0000360F3E70360F1E7516801F470115368CC
:1002D00003F48033022404EB914133B153689B0350
:1002E00007D50D4B59430160E0E70B4B59430160C3
:1002F000DCE7074B59430160D8E7000000100240DB
:10030000002002400000FFF8FFFFF6FE08ED00E0CD
:1003100000127A000000002000093D00022002F0D7
:1003200037F902F0E3F8022002F0CEF9012002F0E2
:10033000CBF94FF4E13002F027FA04F094F81C4CAA
:10034000606802F09CFD03F09CF903F037F803F0BD
:1003500046F803F0EFF803F03BFA03F075F9632178
:1003600041F61F4003F0DEFB4FF6FF750E212846D5
:1003700003F010F94721284603F0AAFA0025607817
:10038000012802D104F0EDF865702078012804D12D
:1003900002F00EFF02F04CFA2570A0780128EED191
:1003A00002F067FF02F044FA02F054FAA570E6E7A3
:1003B0001C0000200948804709480047FEE7FEE787
:1003C000FEE7FEE7FEE7FEE7FEE7FEE7FEE7FEE705
:1003D00004480549054A064B7047000051020008D1
:1003E000ED000008A8060020A80C0020A8080020A6
:1003F000A80800202A4908432A490860704770B5B8
:100400000F23C27801260178002A1ED0254A1268DF
:1004100002F4E062C2F5E062120AC2F10404D340C1
:100420004578A54082781A402A43120101F1E02163
:1004300081F80024007800F01F018E404009800000
:1004400000F1E020C0F8006170BD01F01F0086409F
:100450004809800000F1E020C0F8806170BD124AB8
:10046000114001430F48001F016070470D4A121DE3
:10047000002903D01168014311607047116881435E
:10048000116070474FF0E021042804D0086920F083
:10049000040008617047086940F004000861704773
:1004A0000000FA050CED00E080FFFF1F10B50120F1
:1004B00001F00DF8BDE81040002001F008B8204917
:1004C000086070471E49091F086070471C49843145
:1004D000086070471B4A118821F460710143118044
:1004E0007047184A118821F07F010143118070473D
:1004F00008B5144A2C3A104400900098016008BDD9
:1005000008B510492C39084400900098008808BDAF
:100510000B489C300068C0B270470A480830018818
:1005200041F00101018070470548A0300068C0B269
:10053000704704480830018841F00201018070478B
:1005400004860D422C6C004010B5F74988420AD150
:1005500001214C06204600F0AFFF2046BDE81040C8
:10056000002100F0A9BF01218C06204600F0A4FF65
:100570002046BDE81040002100F09EBF10B50022CB
:10058000036823F002030360036843F00103036080
:100590004FF6FF7300E0521C4468E40701D19A4211
:1005A000F9D14268D2073ED08A79012A3DD002684B
:1005B00022F080020260CA79012A3BD0026822F050
:1005C000400202600A7A012A39D0026822F0200231
:1005D00002604A7A012A37D0026822F010020260D3
:1005E0008A7A012A35D0026822F008020260CA7AAB
:1005F000012A33D0026822F0040202608A78CC78A3
:10060000920742EA04620C7942EA04424C79098872
:1006100042EA0452491E0A43C261016821F0010105
:100620000160002120E0002010BD026842F080023D
:100630000260C0E7026842F040020260C2E702685E
:1006400042F020020260C4E7026842F01002026039
:10065000C6E7026842F008020260C8E7026842F09A
:1006600004020260CAE7491C4268D20701D09942DD
:10067000F9D14068C00701D0002010BD012010BD95
:10068000F0B5827A01219140A84C226842F0010223
:100690002260A64D1C352A688A432A60A34A067B3D
:1006A0000C32A34B002E14D116688E431660468878
:1006B000C78846EA0746877A03EBC707C7F840664C
:1006C0000688878846EA0746877A03EBC707C7F894
:1006D0004466067B012E14D116680E4316604288CC
:1006E000068842EA0642867A03EBC606C6F840262A
:1006F000C288868842EA0642867A03EBC603C3F8BC
:1007000044268A4AC37A121D3BB113680B43136017
:10071000864A0389143223B106E013688B431360C1
:10072000F6E713688B4313600389012B02D113682A
:100730000B431360407B012802D1286808432860DE
:10074000206820F001002060F0BD00218171C1719E
:10075000017241728172C1728170C1700321017195
:100760000221417101210180704770490A6842F0FD
:1007700001020A600A6843F60E739A430A600A6827
:1007800042EA00200860086820F001000860704715
:10079000002904D0016841F480310160704701688C
:1007A00021F4803101607047002916D0016841F0C2
:1007B00080010160D0F8841141F48071C0F8841187
:1007C000D0F8941141F48071C0F89411D0F8A411BC
:1007D00041F48071C0F8A4117047016821F08001D4
:1007E0000160D0F8841121F48071C0F88411D0F830
:1007F000941121F48071C0F89411D0F8A41121F45F
:100800008071C0F8A411704730B50246002093688B
:100810005B010AD49068000101D5012005E09068D1
:10082000C00001D5022000E0042004283BD002EBE8
:100830000012D2F8803103F00103C2F880310B7A44
:1008400093B3D2F880414D681C434B7A43EAC50309
:100850001C43C2F880418B7A03F00F038B7202F5C0
:10086000C072536823F00F03536053688C7A23439C
:100870005360CB7A8C7B0D7B43EA04634C7B24046E
:1008800044EA052423439360CB7B8C7C43EA0463D6
:100890004C7C097C240444EA01210B43D360116899
:1008A00041F00101116030BDFFE7D2F880314C7A90
:1008B00023430C8843EA4453C2F88031CBE700223B
:1008C000002904D0012906D002290BD107E0826853
:1008D0001848024006E082681748024002E0826839
:1008E000164802401649501A8A4218D007DC92B1C5
:1008F0006FF08060101810D0022809D124E0B0F504
:10090000007F23D00F4940180BD0B0F5003F1FD017
:100910000020C0B270470220FBE70020F9E700206A
:10092000F7E70020F5E700000064004000660040A3
:1009300000600040030000040003000800000310F2
:10094000000100080001FFF70120E2E70120E0E7D5
:100950000120DEE7002908D001290BD0022903D1AC
:10096000816841F4000181607047816841F0800135
:1009700081607047816841F400418160704710B523
:1009800000EB0113D3F8B04104F004041472002CFE
:100990002CD0D3F8B041E408546003F5D8731C6838
:1009A00004F0020454725C6804F00F0494725C68F2
:1009B000240AD4749C68D4729C68240A14739C68BA
:1009C000240C54739C68240E9473DC68D473DC6824
:1009D000240A1474DC68240C5474DB681B0E9374B2
:1009E00049B1016941F02001016110BDD3F8B04166
:1009F000640D1460D1E7C16841F02001C16010BDF1
:100A0000002904D0016941F0200101617047C168EB
:100A100041F02001C160704702460020002905D046
:100A2000012902D1106900F003007047D06800F07E
:100A30000300704700234FF6FF72002904D00129FC
:100A40001AD002292AD040E0016821F0020141F0C9
:100A50000101016000E0521E416801F0030101291B
:100A600001D0002AF7D1406800F00300012801D02E
:100A700000232AE0012328E0016821F0030101603E
:100A800000E0521E4168890701D0002AF9D1406870
:100A9000800701D0002318E0012316E0016821F04F
:100AA000010141F00201016000E0521E416801F0C5
:100AB0000301022901D0002AF7D1406800F00300A9
:100AC000022801D0002300E00123184670470021CE
:100AD000026822F0010242F002020260406800F067
:100AE0000300022800D10121084670474FF6FF712C
:100AF0000023026822F00202026000E0491E426800
:100B0000920701D50029F9D14068800700D401235C
:100B1000184670478069C0F3021000017047806971
:100B2000000E70478069C0F307407047002A03D069
:100B300042690A434261704742698A434261704791
:100B40000246002011F4700F05D092690A4011038B
:100B500000D001207047CB0105D552680A4011032F
:100B6000F8D0012070470B0105D592680A401103A7
:100B7000F8D0012070478B0105D5D2680A401103D7
:100B8000F8D00120704712690A401103FAD0012001
:100B900070475A4A914202D1002181617047C1F3E6
:100BA00013028B0101D5C26070474B0101D5026170
:100BB0007047090101D58260704742607047024664
:100BC00000200A4200D001207047024600205369ED
:100BD0000B424FD0B1F5807F40D014DC082931D0D2
:100BE00008DC012928D0022929D0042942D1D06863
:100BF0000821E4E7102928D0202929D0402939D11B
:100C000010691021DBE7B1F5004F30D00BDCB1F5F6
:100C1000007F26D0B1F5806F26D0B1F5006F29D1C5
:100C200090697021CBE7B1F5803F14D0B1F5003F5A
:100C300020D150681021C2E790683149BFE7D068E1
:100C40000321BCE7D0681021B9E710690321B6E79A
:100C500010690821B3E750680821B0E790690121C5
:100C6000ADE790690221AAE790690421A7E75068DF
:100C70000421A4E7704730B5082310240422B1F5FD
:100C8000007F33D011DC20292AD007DC012922D0B3
:100C9000042923D0082900D1C46004E6402921D0CA
:100CA000B1F5807FF9D14260FDE50025B1F5004F37
:100CB00020D008DCB1F5806F1AD0B1F5006FECD10F
:100CC00085614260EFE5B1F5803F0DD0B1F5003FA1
:100CD000E3D14460E7E50A498160E4E5C360E2E509
:100CE0000361E0E50461DEE54360DCE54260DAE5EE
:100CF0004260D8E585614260D5E500007000F030C3
:100D00000101010001684FF6FE72114001600021EF
:100D1000016041608160C1607249724A0839904245
:100D200004D1486840F00F00486070476D4A1432A3
:100D3000904204D1486840F0F00048607047694A2A
:100D40002832904204D1486840F47060486070478F
:100D5000644A3C32904204D1486840F47040486094
:100D60007047604A5032904204D1486840F4702085
:100D7000486070475B4A6432904204D1486840F44E
:100D8000700048607047574A7832904204D14868F2
:100D900040F0706048607047534A111F904204D180
:100DA000086840F00F00086070474F4A14329042C4
:100DB00004D1086840F0F000086070474A4A2832C1
:100DC000904204D1086840F4706008607047464A59
:100DD0003C32904204D1086840F47040086070478B
:100DE000414A50329042FAD1086840F470200860BD
:100DF000704730B5026847F6F0739A430C6A8B6807
:100E00002343D1E904452C4323438C692343CC6914
:100E100023434C6A23438C6A234313430360CA6809
:100E200042600A6882604968C16030BD002101608B
:100E300041608160C160016141618161C1610162A4
:100E4000416281627047002904D0016841F00101CC
:100E50000160704701684FF6FE72114001607047F3
:100E6000002A03D002680A430260704702688A437E
:100E70000260704741607047406880B27047024628
:100E80000020D10003D518490839096802E0154946
:100E900008390968114200D001207047C10003D50C
:100EA0001149091F086070470E49083948607047AA
:100EB00002460020D10003D50B490839096802E039
:100EC000084908390968114200D001207047C10063
:100ED00003D50549091F0860704702490839486071
:100EE00070470000080002400804024010B59C4909
:100EF000884209D10121042000F0D3FA0021BDE885
:100F00001040042000F0CDBA9649884209D1012151
:100F1000082000F0C6FA0021BDE81040082000F0CB
:100F2000C0BA9149884209D10121102000F0B9FAD4
:100F30000021BDE81040102000F0B3BA8B49884270
:100F400009D10121202000F0ACFA0021BDE81040B9
:100F5000202000F0A6BA8649884209D1012140200C
:100F600000F09FFA0021BDE81040402000F099BA3F
:100F70008049884209D10121802000F092FA0021A5
:100F8000BDE81040802000F08CBA7B4988420AD12D
:100F900084150121204600F084FA2046BDE8104067
:100FA000002100F07EBA10BD10B50121084600F006
:100FB00078FA0021BDE81040012000F072BA2DE956
:100FC000F0410022CC7804F00F03E40601D58C78C0
:100FD00023430C784FF00F0714F0FF0F4FF0010C74
:100FE0001CD005680CFA02F40E882640A64211D1E6
:100FF000960007FA06F825EA080503FA06F848EA13
:101000000505CE78282E02D0482E02D002E0446199
:1010100000E00461521C082AE4D305600A88FF2A14
:101020001ED94568002202F108060CFA06F40E8863
:101030002640A64210D1960007FA06F825EA0805D0
:1010400003FA06F848EA0505CE78282E00D1446157
:10105000CE78482E00D10461521C082AE3D34560A3
:10106000BDE8F0814FF6FF710180022181700421FB
:10107000C17070470246002092680A4200D00120E9
:101080007047806880B2704702460020D2680A42EA
:1010900000D001207047C06880B27047016170477E
:1010A00041617047002A01D001617047416170477A
:1010B000C160704741F480328261816182618169DF
:1010C0008069704710B52D4B1A684FF68074224026
:1010D00042EA00100843186010BD2949C8617047F2
:1010E000F0B5264C002801DAE36900E06368C0F33C
:1010F0000346420D120185B2C0F301579540032FFC
:1011000007D0C2020CD50322B240934343F0706271
:1011100009E023F07062636823F07063636002E0AB
:10112000AB4343F0706201B12A43002801DAE26167
:10113000F0BD6260F0BD10B58A07120F0F23934017
:1011400021F003040D4921448C689C438C608B681A
:10115000904003438B6010BD0949DC310860704743
:1011600000080140000C0140001001400014014043
:1011700000180140001C0140002001400000014017
:101180000000204210B501210C07204600F094F920
:101190002046BDE81040002100F08EB921490862C8
:1011A00070472049086170471F4A116821F0E0012B
:1011B0000143116070471B49A031086070471A4B0A
:1011C0001A6822F0030202431A601848026842F0CB
:1011D00004020260012905D020BF016821F004014A
:1011E0000160704730BFF8E70F48016841F0040123
:1011F0000160016841F0020101600C48016841F0A2
:101200000401016030BF704701460020064A526861
:101210000A4200D00120704703490A6842EA800070
:101220000860704700000E420070004010ED00E0C2
:10123000B448016841F0010101604168B24A1140BF
:1012400041600168B14A11400160016821F48021C8
:101250000160416821F4FE0141604FF41F0181608B
:101260007047A8490A6822F480320A600A6822F4AA
:1012700080220A60B0F5803F07D0B0F5802F03D1FF
:10128000086840F4A02008607047086840F4803087
:10129000086070470346002059099A4A01290AD07C
:1012A00002290AD0516A03F01F02012393400B4226
:1012B00000D0012070471168F5E7116AF3E718B50F
:1012C000002000904FF4A0643120FFF7E3FF009965
:1012D000491C00910099A14201D00028F4D031208E
:1012E000FFF7D8FF08B1012018BD002018BD854ABE
:1012F000116821F0F80141EAC0001060704784498C
:10130000086070477F4B5A6822F47C1208431043F0
:10131000586070477E49086670477A4A516821F0E4
:1013200003010143516070477648406800F00C00AB
:101330007047744A516821F0F001014351607047D1
:10134000704A516821F4E0610143516070476D4A71
:10135000516821F4605141EAC00050607047694A09
:10136000002903D0517A014351727047517A814369
:10137000517270476649D83108607047614A5168B8
:1013800021F440410143516070475E490022203101
:101390000A7001F82029012805D0042802D105206F
:1013A00081F820007047012081F8200070475949DA
:1013B0000860704753490A6A02430A6270475549F8
:1013C00044390860704710B54E4A516801F00C016D
:1013D000514B002927D0042927D0082927D00360A2
:1013E000516801F0F00109094C4B5C5C0168E14077
:1013F0004160546804F4E064240A1C5D21FA04F49A
:101400008460546804F46054E40A1B5DD940C160F0
:10141000526802F44042920B404B1B1F9A5CB1FB96
:10142000F2F1016110BD0360DAE70360D8E75168AB
:1014300001F47011536803F48033022404EB9141EA
:1014400033B153689B0307D5354B59430160C7E758
:10145000334B59430160C3E72F4B59430160BFE74A
:10146000284A002903D051690143516170475169ED
:10147000814351617047234A002903D09169014398
:101480009161704791698143916170471D4A0029BC
:1014900003D0D1690143D1617047D1698143D161E2
:1014A0007047184A002903D0D1680143D1607047C2
:1014B000D1688143D1607047124A002903D0116975
:1014C00001431161704711698143116170471149EE
:1014D0004039086070470E49C86470470949C871AF
:1014E00070470848416A41F0807141627047014687
:1014F0000020044A92680A4200D001207047014946
:1015000088727047001002400000FFF8FFFFF6FEEF
:10151000000042428004424200127A009C000020F7
:1015200000093D0010B5FE4988420AD1C4140121CA
:101530002046FFF7B6FF2046BDE810400021FFF728
:10154000B0BFB0F1804F0CD0F649884213D10121D1
:101550000220FFF7B1FF0021BDE810400220FFF795
:10156000ABBF01210846FFF7A7FF0021BDE81040EF
:101570000120FFF7A1BFEC49884209D101210420D5
:10158000FFF79AFF0021BDE810400420FFF794BF49
:10159000E649884209D101210820FFF78DFF00218B
:1015A000BDE810400820FFF787BFE149884209D114
:1015B00001211020FFF780FF0021BDE8104010201E
:1015C000FFF77ABFDB49884209D101212020FFF7CC
:1015D00073FF0021BDE810402020FFF76DBFD64902
:1015E00088420AD1441401212046FFF75AFF2046C1
:1015F000BDE810400021FFF754BFD04988420AD10E
:101600000121CC042046FFF74CFF2046BDE81040E6
:101610000021FFF746BFCA4988420AD101210C05C3
:101620002046FFF73EFF2046BDE810400021FFF7AF
:1016300038BFC44988420AD101214C052046FFF732
:1016400030FF2046BDE810400021FFF72ABFBE4909
:10165000884209D101214020FFF72EFF0021BDE87B
:1016600010404020FFF728BFB849884209D1012126
:101670008020FFF721FF0021BDE810408020FFF708
:101680001BBFB34988420AD1841501212046FFF7C8
:1016900013FF2046BDE810400021FFF70DBFAD4904
:1016A00088420AD101210C042046FFF7FAFE2046A9
:1016B000BDE810400021FFF7F4BEA74988420AD1D7
:1016C00001214C042046FFF7ECFE2046BDE8104007
:1016D0000021FFF7E6BEA14988420AD101218C040E
:1016E0002046FFF7DEFE2046BDE810400021FFF750
:1016F000D8BE10BD30B50288894C8F4DA0420DD0A8
:10170000A8420BD0B0F1804F08D0864B984205D04C
:10171000854B984202D0854B984203D122F070034A
:101720004A881A43824B984206D0824B984203D093
:1017300022F44073CA881A4302808A8882850A8804
:101740000285A0420AD0A84208D0824A904205D021
:10175000814A904202D0814A904201D1097A0186A1
:101760000121818230BD30B5028C22F00102028459
:10177000028C8388048B24F0700424F003050C8809
:101780002C4322F002020D8915434A882A43644DF6
:10179000A8420BD0684DA84208D06E4DA84205D093
:1017A0006D4DA84202D06D4DA8420FD122F0080520
:1017B0004A892A4322F004058A882A4323F4807345
:1017C00023F400738D891D43CB892B4383800483CD
:1017D000C9888186028430BD70B5028C22F0100267
:1017E0000284028C8388048B24F4E04424F4407641
:1017F0000D884FF6FF7404EA0525354322F02002D8
:101800000E8904EA061616434A8804EA0212324395
:10181000434EB04202D0484EB04217D122F080026F
:101820004E8904EA0616164326F040068A8804EA22
:101830000212324323F4806323F400638E8904EAA6
:1018400086061E43CB8904EA8303334383800583E2
:10185000C9880187028470BD70B5028C22F4807241
:101860000284028C8388848B24F0700424F00304A7
:101870000D88254322F400720E894FF6FF7404EAA6
:10188000062616434A8804EA02223243244EB04216
:1018900002D0294EB04217D122F400664A8904EAE8
:1018A0000222324322F480668A8804EA022232430A
:1018B00023F4805323F400538E8904EA06161E4352
:1018C000CB8904EA0313334383808583C9888187E6
:1018D000028470BD70B5028C22F480520284058CA3
:1018E0008288838B23F4E04323F440760C884FF600
:1018F000FF7303EA0424344325F400550E8903EAF8
:1019000006362E434D8803EA05353543044EB04272
:1019100002D0094EB04226D122F480468A891FE0C7
:10192000002C01400004004000080040000C004072
:10193000001000400014004000340140004C014001
:10194000005001400054014000180040001C0040BD
:101950000020004000400140004401400048014098
:1019600003EA8212324382808483C988A0F840103F
:10197000058470BD828B22F440628283828B4FF695
:10198000FF7303EA01210A4382837047F0B5048C98
:1019900024F480540484868B048C4FF6FF7505EA8A
:1019A000013726F4734605EA0222324305EA03337F
:1019B0001343F74A90420ED0F64A90420BD0B0F152
:1019C000804F08D0F44A904205D0F44A904202D0A9
:1019D000F34A904205D124F40051394341F4805137
:1019E00004E024F402420A4342F4805183830184D8
:1019F000F0BD828B22F00C028283828B0A438283A9
:101A00007047F0B5048C24F480740484858B048CB6
:101A10004FF6FF7707EA012625F0F30507EA0313DF
:101A200013432B43DA4A90420ED0DA4A90420BD04D
:101A3000B0F1804F08D0D84A904205D0D74A9042A2
:101A400002D0D74A904205D124F40071314341F4C9
:101A5000807104E024F420620A4342F4807183839D
:101A60000184F0BD028B22F440620283028B4FF6A8
:101A7000FF7303EA01210A4302837047F0B5048C27
:101A800024F010040484068B048C4FF6FF7505EADD
:101A9000011726F4734605EA0333334305EA0222AD
:101AA0001A43BB4B98420ED0BA4B98420BD0B0F1C0
:101AB000804F08D0B84B984205D0B84B984202D01E
:101AC000B74B984205D124F02001394341F0100171
:101AD00004E024F0A0030B4343F0100102830184CF
:101AE000F0BD028B22F00C020283028B0A430283B8
:101AF000704770B5048C24F001040484058B048CB9
:101B000025F0F3054FF6FF7606EA031313432B4344
:101B10009F4A90420ED09F4A90420BD0B0F1804F26
:101B200008D09D4A904205D09C4A904202D09C4ADF
:101B3000904205D124F002020A4342F0010104E080
:101B400024F00A020A4342F001010383018470BDBC
:101B500070B505460C468E48854209D08D488542B1
:101B600006D0B5F1804F03D08B48854200D08B481A
:101B700020886188A288238958B1042811D00828B8
:101B800017D02846FFF702FFE1882846BDE87040DD
:101B9000F0E62846FFF7ADFFE1882846BDE8704033
:101BA0009FE72846FFF76AFFE1882846BDE87040B6
:101BB00058E72846FFF725FFE1882846BDE8704032
:101BC00017E72DE9F04107460C46002501266188FC
:101BD000002900D10225A288012A00D102262088EE
:101BE000238988B13846FFF749FFE1883846FFF777
:101BF00039FF2389324629463846FFF77AFFE188C4
:101C00003846BDE8F0416CE73846FFF772FFE188DF
:101C10003846FFF766FF2389324629463846FFF7E4
:101C20002DFFE1883846BDE8F0411BE710B50A8872
:101C30004B88CC881A438B8823431A430B891A4359
:101C40004B8989891A430A43A0F8442010BD4FF6F6
:101C5000FF71818000210180C18041800172704745
:101C60000021018041808180C18001814181818189
:101C7000C181704700210180418001228280C180A2
:101C8000018170470021018041808180C1800181F4
:101C9000418181817047002904D0018841F0010110
:101CA00001807047018821F00101018070470029FF
:101CB00005D030F8441F41F400410180704730F8EE
:101CC000441FC1F30E0101807047002A03D08289AE
:101CD0000A438281704782898A4382817047818268
:101CE00070471143A0F848107047002A03D082893A
:101CF0000A438281704782898A43828170470189C1
:101D000021F0070101817047028922F070020A4325
:101D10000281704700B503461846FFF7F5FF1889A2
:101D200040F00700188100BD70B50D46044611460D
:101D3000602D0CD001222046FFF7DBFE294620460D
:101D4000FFF7E2FF208940F00700208170BD0122EB
:101D50002046FFF793FEF1E730B50489E4B24FF671
:101D6000FF7505EA032313430B432343038130BD6F
:101D700010B504462046FFF7EFFF208920F007004A
:101D800040F0070020F0700040F07000208110BD8E
:101D9000002C0140003401400004004000080040D5
:101DA000000C004010B504462046FFF7D5FF2089FF
:101DB00040F480402081EAE70185828270470288F2
:101DC00022F070020A430280704770B50589048BC7
:101DD000068C25F007050D434FF6FC410C4040F200
:101DE00001110C4326F022064FF6FF7101EA0311A0
:101DF0001143314305810483018470BD028B22F0BD
:101E000070020A4302837047028B22F4E0424FF6CD
:101E1000FF7303EA0121114301837047828B22F093
:101E200070020A4382837047828B22F4E0424FF6AD
:101E3000FF7303EA0121114381837047002904D015
:101E4000018841F0800101807047018821F0800104
:101E500001807047002904D0818841F0040181800D
:101E60007047818821F0040181807047002904D0E7
:101E7000818841F0080181807047818821F0080144
:101E800081807047002904D0818841F00101818060
:101E90007047818821F0010181807047028B22F018
:101EA00008020A4302837047028B22F400624FF655
:101EB000FF7303EA0121114301837047828B22F0F3
:101EC00008020A4382837047828B22F400624FF635
:101ED000FF7303EA0121114381837047028B22F0D3
:101EE00004020A4302837047028B22F480624FF699
:101EF000FF7303EA0121114301837047828B22F0B3
:101F000004020A4382837047828B22F480624FF678
:101F1000FF7303EA0121114381837047028B22F092
:101F200080020A4302837047028BC2F30E024FF60F
:101F3000FF7303EA0121114301837047828B22F072
:101F400080020A4382837047828BC2F30E024FF6EF
:101F5000FF7303EA0121114381837047028C22F051
:101F600002020A4302847047028C22F008020A43EC
:101F700002847047028C22F020024FF6FF7303EABE
:101F80000111114301847047028C22F080024FF648
:101F9000FF7303EA0111114301847047028C22F49C
:101FA00000724FF6FF7303EA012111430184704769
:101FB000028C22F400624FF6FF7303EA0121114301
:101FC00001847047028C22F400524FF6FF7303EA3B
:101FD000013111430184704710B501238B40048CFB
:101FE0009C430484038C8A4013430384CFE610B5DA
:101FF00004238B40048C9C430484038C8A40134349
:102000000384C4E630B500F1180301248C40058C2C
:10201000A5430584002911D008290FD0091FC1F359
:102020004E001844016821F4E041016001684FF658
:10203000FF7303EA02221143016030BD03EB51003C
:10204000016821F07001016001681143016030BD39
:10205000002904D0018841F0020101807047018805
:1020600021F0020101807047002904D0018841F06D
:10207000040101807047018821F00401018070474C
:10208000002904D0818841F08001818070478188D7
:1020900021F0800181807047028822F008020280CE
:1020A00002880A4302807047828822F07002828090
:1020B00082880A4382807047028922F007020281E7
:1020C00002890A4302817047028922F0800202815C
:1020D00002890A4302817047818470478185704775
:1020E000818670470187704781877047A0F840104C
:1020F0007047028822F44072028002880A430280FC
:102100007047808E7047008F7047808F7047B0F89F
:1021100040007047808C7047008D70470246002059
:10212000128A0A4200D001207047C94301827047D9
:1021300002460020138A0B4092890A40002B02D0ED
:10214000002A00D001207047C94301827047000077
:1021500010B5E14988420AD101218C032046FFF7DE
:10216000A0F92046BDE810400021FFF79AB9DB49ED
:1021700088420AD101214C042046FFF79DF92046F0
:10218000BDE810400021FFF797B9D54988420AD130
:1021900001218C042046FFF78FF92046BDE810404E
:1021A0000021FFF789B9CF4988420AD10121CC0427
:1021B0002046FFF781F92046BDE810400021FFF7D7
:1021C0007BB9C94988420AD101210C052046FFF795
:1021D00073F92046BDE810400021FFF76DB910BD2E
:1021E00030B585B004460D46208A4CF6FF71084094
:1021F000E98801432182A0894EF6F3110840A9889D
:102200002A8911436A8902431143A181A08A4FF6AA
:10221000FF410840A9890143A1826846FFF7D3F82E
:10222000AD48844201D1039800E00298A1890904D5
:1022300008D500EBC00101EB001029684900B0FB94
:10224000F1F007E000EBC00101EB00102968890004
:10225000B0FBF1F06422B0FBF2F109010B096FF061
:1022600018056B4300EB8300A3891D044FF0320374
:1022700007D503EBC000B0FBF2F000F00700084305
:1022800006E003EB0010B0FBF2F000F00F00084393
:10229000208105B030BD4FF41651016000218180CE
:1022A000C18001810C2242818181704710B5038A6F
:1022B0004FF2FF0213400A884C8822438C88C98859
:1022C0000C4322431A43028210BD00210180418049
:1022D0008180C1807047002904D0818941F4005178
:1022E00081817047818921F400518181704710B547
:1022F00040F66A13C1F3421301F01F040121A1400B
:10230000012B07D0022B07D014303AB102680A43E0
:10231000026010BD0C30F8E71030F6E702688A431F
:10232000026010BD002A03D0828A0A43828270476D
:10233000828A8A4382827047028A22F00F020282D6
:10234000028A0A4302827047828922F400628281F3
:1023500082890A4382817047002904D0818941F033
:10236000020181817047818921F0020181817047DA
:10237000028A22F020020282028A0A430282704705
:10238000002904D0018A41F4804101827047018A0A
:1023900021F4804101827047C1F3080181807047B8
:1023A0008088C0F308007047818941F00101818174
:1023B0007047028BD2B20283028B42EA0121018371
:1023C0007047028B02F47F420283028B0A4302832E
:1023D0007047002904D0818A41F020018182704732
:1023E000818A21F0200181827047002904D0818AEE
:1023F00041F0100181827047818A21F010018182B1
:102400007047002904D0818A41F008018182704719
:10241000818A21F0080181827047002904D08189D6
:1024200041F40041818170478189C1F30E018181AE
:102430007047002904D0818A41F40061818270478D
:10244000818A21F4006181827047828A22F004022D
:102450008282828A0A4382827047002904D0818A5C
:1024600041F0020181827047818A21F0020181825C
:1024700070470246002012880A4200D001207047AF
:102480008A05C9430180704770B5002440F66A127E
:10249000C1F3421301F01F05012606FA05F2012BD4
:1024A0000CD0022B0DD0838A1340090A8E4000887D
:1024B00030400BB100B10124204670BD8389134028
:1024C000F3E7038A1340F0E740F66A120A0A012193
:1024D0009140C943018070470038014000440040EA
:1024E00000480040004C00400050004010B56FF024
:1024F0000400FDF7C7FF204820490068B0FBF1F059
:102500001F49C0B2087000EB4002C2EBC0104FF68A
:10251000FF7202EAC000488010BD1949097848439B
:102520004FF0E021486100238B61086940F0010011
:1025300008610869C20701D0C003FAD5086920F014
:10254000010008618B6170470D49498848434FF08D
:10255000E021486100238B61086940F001000861B7
:102560000869C20701D0C003FAD5086920F001004C
:1025700008618B61704700000000002000127A00A3
:10258000AC000020714A114001437148016070475E
:102590000721814309026E4A121D10684FF6FF039E
:1025A00018406C4B1843084310607047F0B505465F
:1025B0000F4614461E463046FFF7EAFFC6F10400F8
:1025C00085400F22F2403A402A436009800000F122
:1025D000E020D0F8001104F01F050123AB4019439F
:1025E000C0F8001104F1E02494F8000440EA02105D
:1025F00084F80004F0BD70B58B088C07240F564D8D
:10260000AE6946F00106AE619D00544B2B449D68B7
:102610000F26A640B5439D609D68A04005439D6080
:102620004F4B1C680120884004431C60D10704D034
:102630004B4B0C33196801431960910704D5484985
:1026400008310A6802430A6070BD434800210161F5
:10265000C160142242618161C161026842F00102DD
:10266000026042683F4B1A40426002683E4B1A408B
:102670000260026822F480220260426822F4FE02B4
:1026800042608160C0037DE731480830016841F055
:10269000040101603048C16941F08051C161334893
:1026A000416841F480714160016841F004010160BA
:1026B000016841F002010160FDF766BD254824492B
:1026C000001D091D0860704741062348826942F0D9
:1026D000010282612148426822F0E0624260426861
:1026E0000A434260704730B505460024FFF7ADFF4E
:1026F0001949086840F4803008600A68520CFCD020
:102700004FF480604860AD1EE8B24A6842EA8040FB
:102710004860486840F4803048601548026842F0DC
:1027200032020260086840F0807008600868400E5D
:10273000FCD0486840F00200486003E04868800828
:1027400000F00304022CF9D130BD000080FFFF1F10
:1027500008ED00E00000FA05001002400000014012
:10276000000401400000FFF8FFFFF6FE007000408B
:10277000002002407047FE490A885206FCD5FC4AF8
:10278000C1B2121D1180704730B587B004460121D7
:1027900044F20400FEF76FFE4FF40071ADF818101C
:1027A00003208DF81A0018208DF81B00F14D06A9A2
:1027B0002846FEF704FC2915ADF8181004218DF801
:1027C0001B1006A92846FEF7FAFB25208DF8040009
:1027D00001218DF805108DF806108DF8071001A85D
:1027E000FDF70DFE02940020ADF80C00ADF80E00D0
:1027F000ADF81000ADF814000C20ADF81200DC4C60
:1028000002A92046FFF7ECFC012240F225512046A8
:10281000FFF76DFD01212046FFF75DFD07B030BDDC
:10282000D349091D0880081F01884906FCD5704757
:1028300000B50022D04B985CFFF7F2FF521CD2B2D9
:10284000092AF8D300BDCD490880081F0188490630
:10285000FCD5704700B50022C74B303B985CFFF7B2
:10286000F2FF521CD2B2092AF8D300BD82B0000494
:1028700000EB012010440190019802B003F0DEBC8F
:1028800001EB0020704710B501EB002003F07EF84B
:102890000022BB4B02F0AEFEBDE8104002F0BCBD12
:1028A00010B5024600200021B34B273B06E0092A61
:1028B00007D05C18E47D6040491CC9B29142F6D350
:1028C00010BD5C5C6040F7E710B501EB002003F041
:1028D0005DF80022AA4B02F08DFEBDE8104002F028
:1028E0009BBD2DE9F05FA24C40F2255529462046BC
:1028F000FFF7CAFD002876D02046FFF751FDC6B28B
:1029000029462046FFF7E0FDDFF86C929D4F4FF01F
:10291000000AA9F127097B2E01D1387808B138784F
:1029200028B1387809F80060401C387001E087F859
:1029300000A0EB2E01D1787808B1787830B17878A2
:1029400009EB0001CE72401C787001E087F801A00D
:102950003878DFF834824FF0010B0B2831D187F83B
:1029600000A08A4999F8010009788842F6D199F8BF
:102970000A007D28F2D10920FFF792FF99F809108B
:102980008842EBD18248C0F800A0824999F8020041
:10299000087080B1804A99F8031011707F4A99F845
:1029A0000430137001280DD002281DD0032878D0E0
:1029B000042806D196E07A4800780870794880F8B3
:1029C00000B0A7E099F8081099F80700FFF75BFF3F
:1029D00003F04AFA744A754B02F00CFE02F01CFD3B
:1029E000C8F8000096E05DE1A1B399F8061099F8E7
:1029F0000500FFF745FF02F0C9FF044667480D4692
:102A0000007802F0C3FF6A4A6A4B03F00FF86FF0D8
:102A1000040203F00AFE22462B4603F007F80022C8
:102A2000574B02F0E7FD02F03DFF63490A68101AB8
:102A3000086099F8081099F80700FFF724FF03F0E1
:102A400013FA594A594B02F0D5FD02F0E5FCC8F8DB
:102A500000005FE0FFE799F8061099F80500FFF71E
:102A60000FFF02F093FF04464C480D46007802F039
:102A70008DFF4F4A4F4B02F0D9FF6FF0040203F075
:102A8000D4FD22462B4602F0D1FF00223C4B02F03F
:102A9000B1FD02F007FF48490A6810440860C8E722
:102AA000FFE799F8061099F80500FFF7E9FE02F034
:102AB0006DFF424A424B02F0B9FF02F023FF414949
:102AC000088099F8081099F80700FFF7DCFE03F07A
:102AD000CBF9354A354B02F08DFD02F09DFCC8F86C
:102AE000000017E099F8061099F80500FFF7ECFED2
:102AF0003549086099F8081099F80700FFF7C3FEF8
:102B000003F0B2F9284A294B02F074FD02F084FC6C
:102B1000C8F8000078780C287DD187F801A099F8D2
:102B20000C00902877D199F80D0001287FD199F8F1
:102B30000E0007287BD199F80F00E52877D11549B9
:102B40000220087099F8101099F81100FFF798FE0C
:102B50001E4980B208804FF47A72904200D90A80F0
:102B6000088802F013FF04460C480D4600782FE059
:102B70000038014000080140580100200444004092
:102B800000002440B000002050000020270000205A
:102B90001001002015000020160000204000002039
:102BA000C70000201E0000201F85EB51B81E1940F1
:102BB0009E7B0F971CC731402C000020C1CAA14545
:102BC000B6731140420000203C0000209600002017
:102BD00002F0DCFEFD4AFE4B02F028FF6FF004021B
:102BE00003F023FD22462B4602F020FF4FF0663211
:102BF000F84B02F01BFF02F055FEF7494042086017
:102C000099F8121099F81300FFF73DFE03F02CF924
:102C1000F24AF34B00E00AE002F0ECFC02F0FCFBAD
:102C2000C8F80000EF49884201DDC8F800107A2E8C
:102C300001D1B87808B1B87830B1B87809EB0001A3
:102C4000CE75401CB87001E087F802A0B878102853
:102C500028D187F802A099F826007B2822D10E20DF
:102C6000FFF71EFE99F8251088421BD1DE48C0F8F8
:102C700000A099F81800DD4E0838DD4CDD4D08281D
:102C800010D2DFE800F0F9F4041116369BBFDA49E0
:102C900004200870D94999F8190008704FF0804055
:102CA000C8F80000BDE8F09FD54999F819000870F0
:102CB000F8E7D14880F800B0D24999F819000870B7
:102CC000022813D081F800A099F81B1099F81A0077
:102CD000FFF7D9FD03F0C8F84FF06632334602F033
:102CE00089FC02F099FBC8F80000DBE781F800B02E
:102CF000EAE7C14902200870C24C99F81900207017
:102D000099F81B1099F81A00FFF7BDFD03F0ACF815
:102D10004FF06632334602F06DFC02F07DFBC8F8DE
:102D200000002078012824D099F81D1099F81C0083
:102D3000FFF7A6FD02F02AFE0446B3480D460078D0
:102D400002F024FEA14AA24B02F070FE6FF00402D2
:102D500003F06BFC22462B4602F068FE0022AB4BD0
:102D600002F048FC02F09EFD9B490A68101A0860B8
:102D700098E799F81D1099F81C00FFF781FD02F003
:102D800005FE0446A0480D46007802F0FFFD8F4A7C
:102D90008F4B02F04BFE6FF0040203F046FC22461C
:102DA0002B4602F043FE0022984B02F023FC02F077
:102DB00079FD89490A681044086073E799F81A1088
:102DC00099F81900FFF75CFD02F0E0FD904A914B85
:102DD00002F02CFE02F096FD8F4980B2088020B1EF
:102DE00084F800B08D4908805CE784F800A0824830
:102DF00080F800B0C8F800A0894880F800B085F8D5
:102E000000B04FE784F800B07F4899F819100170BE
:102E1000844999F81A00087099F81D2099F81C1037
:102E200099F81B00FFF722FD03F0D0F97E490860F6
:102E300099F8202099F81F1099F81E00FFF716FD49
:102E400003F0C4F979490860794999F821000870BC
:102E5000784999F822000870774999F8230008709A
:102E6000764999F8240008701CE700E004E07449F2
:102E700099F81900087015E785F800B012E770B5E9
:102E800092B0044601210420FEF7F5FA012148041E
:102E9000FEF7FCFA01210846FEF7E2FA0425ADF838
:102EA000445018208DF8470003208DF84600654EE9
:102EB00011A93046FEF783F80820ADF844008DF8DC
:102EC000475011A93046FEF77AF80D940024ADF86A
:102ED0003840ADF83A40ADF83C40ADF840400C20E9
:102EE000ADF83E00584D0DA92846FFF779F9574E29
:102EF0003046FDF707FF8021049103940B9454485A
:102F00000290089406910994281D01900794059455
:102F100040140A9001A93046FDF76BFF4FF40010F2
:102F2000FDF7BCFF01213046FDF78DFF26208DF80F
:102F300030008DF831408DF8324001208DF833009B
:102F40000CA8FDF75CFA012240F224412846FFF765
:102F5000CEF9012240212846FFF7E4F90121284655
:102F6000FFF7B9F912B070BD2DE9F05F40F22441CE
:102F70003548FFF789FA002872D03348001D0088D1
:102F8000DFF8C89000214846FDF75DFF4846FDF791
:102F900073FF3049C0F5807008802D4E3078EB28E3
:102FA00065D170789028FBD1B07801285FD1F07896
:102FB0000221114DDFF850A0DFF810B0DFF81880C3
:102FC0004FF47A73244A254F07284AE09E7B0F97D7
:102FD0001CC73140666602402C0000201F85EB5163
:102FE000B81E19400000E0401001002066664F4006
:102FF0001D0000201C0000201500002058000020AB
:10300000590000201600002040000020000024404D
:10301000C1CAA145B67311404400002042000020FF
:103020005A0000202700002070000020200000200F
:1030300014000020540000205500002056000020FD
:103040005D00002000080140004400406C00024088
:10305000580100209400002096000020500000201D
:1030600099E005D0B54C052849D0032869D088E0FF
:10307000B34C2078401C20703079E52839D1297074
:103080007179B079FFF7FCFB80B21080984200D9CB
:103090001380108802F07AFC04460D469AF800006E
:1030A00002F074FC5A46A74B02F0C0FC6FF0040219
:1030B00003F0BBFA22462B4602F0B8FC4FF0663212
:1030C000A14B02F0B3FC02F0EDFB4042C8F8000057
:1030D000F179307AFFF7D7FB02F0C6FE9B4A9C4B92
:1030E00002F088FA02F098F938609A49884200DDC7
:1030F0003960307920BB98490120087041E030796F
:1031000010283ED12970002010809AF8000002F0AB
:103110003DFC5A468B4B02F089FC6FF0040203F031
:1031200084FA0022134602F081FC4FF06632864B8F
:1031300002F07CFC02F0B6FB4042C8F800003C60A4
:103140001FE0307911281CD1297013809AF80000F3
:1031500002F01CFC5A467B4B02F068FC6FF0040244
:1031600003F063FA00227D4B02F060FC4FF0663200
:10317000754B02F05BFC02F095FB4042C8F8000082
:103180003C6080214846FDF775FE4846BDE8F05F8B
:103190000121FDF758BE85E510B503460020002249
:1031A00003E08C5C6040521CD2B29A42F9D310BD4D
:1031B0002DE9F0416A4A7A216A4C10787B25012872
:1031C0002BD0217068480078607068480078A07043
:1031D00067480078E07067480068010C2171010AB7
:1031E0006171A07164480068010CE171010A2172EB
:1031F000607262480078A07261480078E0726148AD
:103200000078207360480078607321460E20FFF735
:10321000C3FFA073E573BDE8F0810020107021703A
:103220006070A070E07020716071A071E071207218
:103230006072A072E0725548008802F0A7FB544A01
:10324000544B02F0D7F90F46064602F05BFB000A2A
:1032500020733046394600224F4B02F00FF902F03E
:1032600051FB60733F490E20FFF796FFA073E57393
:10327000D1E72DE9F0413E483A4C103400782070F7
:10328000464800210078022854D061704448454BDC
:1032900002689A4200DA01604349006803F016F8B8
:1032A00002F094FF010AA170E070404D286802F01E
:1032B00056FB3F4E3F4F32463B4602F0B7FB02F013
:1032C000ABF801F0F9FB02F081FF000E20712868D5
:1032D00002F045FB32463B4602F0A8FB02F09CF8A8
:1032E00001F0EAFB02F072FF000C6071286802F046
:1032F00036FB32463B4602F099FB02F08DF801F0B6
:10330000DBFB02F063FF000AA071286802F027FBD4
:1033100032463B4602F08AFB02F07EF801F0CCFB1D
:1033200002F054FFE0710F4908201031FFF734FF1D
:10333000207270E7204800786070A7E70000C04066
:10334000140100201CC73140666602401F85EB5106
:10335000B81E19400000E0401E00002000408F40D1
:103360005A00002018010020240000204000002006
:103370002700002070000020200000201400002002
:10338000540000205500002056000020420000207C
:10339000C1CAA145B67311400000F03F15000020DE
:1033A00088000020CDCC4C3E000020416800002069
:1033B000CDCCCCCCCCCCFC3F5E00002008B50121AC
:1033C0000820FEF758F828208DF803004FF400403D
:1033D000ADF8000069464948FDF7F1FD08BD38B574
:1033E00001211C20FEF747F801210846FEF743F8AB
:1033F00048248DF803400320ADF80000694640489A
:10340000FDF7DDFD8DF803404FF40050ADF80000EE
:1034100069463C48FDF7D3FD8DF803404FF48070BA
:10342000ADF8000069463548FDF7C9FD0120FDF7FC
:10343000B5FE0020FDF7A9FF0020FDF743F80020AE
:10344000FDF7ACFE38BD10B52F48046800230120FD
:103450002E492F4A012C02D00B70107010BD08703D
:10346000137010BD2DE9F0472A4C0025DFF8A88025
:1034700020782A4E2A4F002816D0DFF884900221A7
:103480004846FDF7F7FD00280CD102214846FDF71C
:10349000F1FD002806D198F80000A0EB4010306044
:1034A00025703D70BDE8F087DFF850A04FF48079BB
:1034B00049465046FDF7DEFD0028F3D14946504607
:1034C000FDF7D8FD0028EDD117481649006802F035
:1034D000FDFE164903F002F8154902F0FFFF02F065
:1034E00059FEC11700EBD16098F800104011484315
:1034F0003060012020703D70D4E70000000C0140D6
:1035000000080140001001403C8121425B00002086
:103510005C00002018000020400000202C0000204B
:10352000C90000200000C8C54C000020000016445F
:103530000000C84208B501210420FDF79CFF4FF4AC
:103540000060ADF8000010208DF8030003208DF816
:10355000020069460C48FDF732FD08BD10B5002495
:103560000A4A00280CD00A4B1968491C196081428C
:1035700005D1D2F8AC01C043C2F8AC011C6010BD4B
:10358000C2F8AC4110BD000000080140000021421B
:10359000B400002070B58AB004460D4601210846EB
:1035A000FDF774FF01210820FDF765FF01210846A2
:1035B000FDF761FF01218348FDF792FD4FF4806222
:1035C000ADF8242018228DF8272003228DF826201C
:1035D00009A97D48FDF7F3FCADF81C40ADF8185083
:1035E0000024ADF81E40ADF81A404FF0804606A901
:1035F0003046FEF77FF83020ADF808000125ADF821
:103600000A50ADF80E40ADF8104002A93046FEF762
:1036100023F91C208DF804008DF805408DF8064034
:103620008DF8075001A8FCF7EAFE08213046FEF7A6
:103630008BFD002208213046FEF747FB0021304673
:10364000FEF729FB0AB070BD38B501210420FDF753
:1036500012FF4FF48054ADF8004010208DF80300A5
:1036600003208DF8020069465848FDF7A8FC214662
:10367000554C2046FDF712FDE1142046FDF70EFDE6
:1036800038BDF8B501210C20FDF7F5FE45F6030025
:10369000ADF8000010258DF8035003248DF802408A
:1036A000494E69463046FDF78AFC1821ADF80010F6
:1036B0008DF803508DF8024069463046FDF77FFCD7
:1036C000A020ADF800008DF803508DF802403F4C6B
:1036D00069462046FDF773FC10213046FDF7E0FCFB
:1036E00008213046FDF7DCFC80212046FDF7D8FCA0
:1036F00020212046FDF7D4FCF8BD70B5324C4FF4C4
:103700008045082833D004DC022814D0042804D1D2
:103710001FE0102839D0202845D001212046FDF790
:10372000BFFC02212046FDF7B9FC29462046BDE832
:103730007040FDF7B5BC01212046FDF7AFFC02212A
:103740002046FDF7ADFC29462046BDE87040FDF758
:10375000A7BC01212046FDF7A1FC02212046FDF770
:103760009FFC29462046BDE87040FDF797BC01212B
:103770002046FDF795FC02212046FDF78FFC2946E7
:103780002046BDE87040FDF789BC01212046FDF7C9
:1037900085FC02212046FDF781FC29462046BDE834
:1037A0007040FDF77BBC01212046FDF779FC02212A
:1037B0002046FDF773FC29462046BDE87040FDF722
:1037C0006FBC000000021800000C0140000801401E
:1037D00010B588B001210420FDF758FE0121082012
:1037E000FDF749FEC020ADF8000048208DF8030029
:1037F00069463448FDF7E3FB05A8FEF728FA0020E8
:10380000ADF814004FF6FF71ADF81810ADF81A00BE
:10381000ADF816002C4C05A92046FDF76BFF0023E0
:103820001A4603212046FEF7D0FA01A8FEF722FA35
:103830000A21ADF80C1001A92046FEF789F91E21D6
:103840008DF8101001218DF813108DF811108DF8DE
:10385000121004A8FCF7D3FD01212046FEF765FCF9
:10386000012211462046FEF730FA00212046FEF7DD
:1038700033FC01212046FEF70EFA08B010BD1248B5
:10388000243000881149098800EB0140704710B5C9
:103890000D4C01212046FEF741FC012810D1218862
:1038A0002046CA06094903D50A68521E0A6002E08A
:1038B0000A68521C0A60BDE810400121FEF744BCB2
:1038C00010BD0000000C014000080040280000204E
:1038D00070B588B004460D4601210220FDF7D6FDE3
:1038E00001210C20FDF7C7FD4022ADF81C20182255
:1038F0008DF81F2003228DF81E2007A98248FDF7AE
:103900005EFBADF81440ADF810500024ADF8164041
:10391000ADF812408DF818407C4E04A93046FDF7F2
:10392000E9FEADF80440ADF806400125ADF80850B9
:10393000ADF80A40ADF80C4001A93046FEF708F991
:103940001D208DF8000002218DF801108DF8021065
:103950008DF803506846FCF752FD012202213046E3
:10396000FEF7B3F902213046FEF7EEFB01213046A7
:10397000FEF791F908B070BD2DE9F047644CDFF80F
:103980008C81DFF888916088002501265F4F08F15F
:10399000240809F134091E282CD202213846FEF7EA
:1039A000C7FBD8B1207810B1012817D103E02670E9
:1039B000A8F8005012E0B9F800006278616801EBE5
:1039C0000241014461606088401C80B260801E2812
:1039D00002D1B1FBF0F060606570257001213846BE
:1039E000FEF7A6FB78B3207801282CD16078401C24
:1039F000607028E002213846FEF79AFBC0B12178BA
:103A000011B1012914D107E02670A8F80050022155
:103A10003846FEF7A3FA0BE0B9F80000617800EB36
:103A20000140A0606570257000213846FEF796FAC7
:103A300001213846FEF77CFB28B12078012802D10D
:103A40006078401C60703846BDE8F0470321FEF7FF
:103A50007BBB2DE9F0470646002400252D4F1BE0D7
:103A6000DFF8AC80D8F8040002F0E8FB8146D8F813
:103A7000080002F0E3FB494602F096FA394602F0EC
:103A800025FC4FF07E5102F029FD294602F018FA7C
:103A9000054600BF641CA4B2B442E1D3304602F034
:103AA000CDFB0146284602F07FFA394602F07CFA47
:103AB000194E314602F00AFC05461848184C0178A8
:103AC000012902D12560002101702846216802F0F9
:103AD000C9FC04D32846216802F028FB04D12846FB
:103AE000216802F0FBFC06E03146284602F0E8F9C6
:103AF000216802F0F3FC3146884203DDBDE8F0475F
:103B000002F0ECBCBDE8F087000801400004004072
:103B1000B8000020001080450000B4435900002088
:103B20003800002070B58AB004460D460121C80255
:103B3000FDF7A1FC01210420FDF79DFC4FF48072EC
:103B4000ADF8242018228DF8272003228DF8262096
:103B500009A92548FDF733FAADF80C40ADF8085037
:103B60000024ADF80A40ADF80E408DF810401F4E0D
:103B700002A93046FDF7BEFD6020ADF81400012516
:103B8000ADF81650ADF81A40ADF81C4005A9304606
:103B9000FDF7E9FD08213046FEF780F919208DF880
:103BA000040002218DF805108DF806108DF80750DD
:103BB00001A8FCF724FC01213046FEF7B6FA0121EA
:103BC0003046FEF774F8012211463046FEF77DF8C4
:103BD00001213046FEF75FF8044941F69010343178
:103BE00008800AB070BD000000080140002C0140B0
:103BF0002DE9F04786B0DDF838800024FB4DFC4EFF
:103C00002D68B54201D1062331E0FA4EB54201D10B
:103C10000C232CE0A5F57436903E08D0A5F5F436BB
:103C2000483E06D0F44EB54205D13C231FE0182390
:103C30001DE030231BE0A5F54346503E0ED0A5F510
:103C40009C46203E0CD0A5F51C564FF41677103E2E
:103C500009D0A5F59856883E07D008E0782306E0FD
:103C60004FF4967303E03B4601E009223B46A8B3BC
:103C7000A1B39AB393B3401EC6B2491ECFB2521E2F
:103C800002F0FF095B1E1FFA83FA01214806FDF7C7
:103C9000FDFB01210420FDF7EEFB4FF40060ADF8C1
:103CA000140048208DF81700D44D05A92846FDF7CB
:103CB00086F9A914ADF8141018208DF81700032008
:103CC0008DF8160005A92846FDF779F9CC4D00229C
:103CD0002A60286840F0010028600AE0FFE7012020
:103CE00006B0BDE8F087641CA4B2642C01D90220A0
:103CF000F6E72868C007F6D028682860286828609A
:103D0000286840F01000286028682860286828602B
:103D1000BB491C310A60086840EA8870086008687E
:103D200040EA06600860086840EA075008600868D2
:103D300040EA09400860086840EA0A00086028680C
:103D400020F0010028604FF6F07005E0641CA4B27A
:103D5000844201D90320C3E72968C907F6D10124A9
:103D60008DF80A408DF80B208DF80C40ADF800203E
:103D7000ADF80420ADF80620ADF808208DF80D4010
:103D80006846FCF77DFC14208DF810008DF811407A
:103D90008DF812408DF8134004A8FCF730FB012287
:103DA00002212846FCF7C2FE002099E7F0B506463E
:103DB000059D934808300468640101D5002008E09F
:103DC0000468240101D5012003E00068C0003AD551
:103DD00002208C4C002704EB0014C4F8807589B3D2
:103DE000F60004F5B064276837432760266846EA82
:103DF00081012160216841EA4201216003F00F0145
:103E0000626822F00F02626062680A436260297988
:103E1000EA796B7941EA0261AA79120442EA032243
:103E20001143E1602978EA786B7841EA0261AA7867
:103E3000120442EA03221143A160216841F001010A
:103E40002160F0BD01E0FF20FBE77605C9E76C4982
:103E50000831002805D0012810D002281BD00520E9
:103E60007047086800F001000A6802F0020202438D
:103E7000086800F0806042EA10607047086800F04F
:103E800001000A6802F002020243086800F00060C4
:103E900042EA50607047086800F001000A6802F0CA
:103EA00002020243086800F0805042EA90607047C6
:103EB000002803D0012807D00020704750480C305C
:103EC000006800F0030070474D481030006800F0B3
:103ED00003007047F0B5DDE905754A4C04EB0014AA
:103EE000D4F8B06506F004061670002E2DD0D4F874
:103EF000B025D2080A6004F5B664216801F0020119
:103F00001970616801F00F013970A1682970A1680A
:103F1000090A6970A168090CA970A168090EE97005
:103F2000E1682971E168090A6971E168090CA97100
:103F3000E168090EE97168B1012882D1304810307A
:103F4000016841F0200101607BE7D4F8B025520DF3
:103F50000A60D0E72A480C30016841F02001016076
:103F60006FE72DE9F04F89B003A805A9CDE900104E
:103F700006AB07AA08A90020FFF7ACFF2249089862
:103F8000097888421FD121490020086020499DF806
:103F90000C0008701F4C012288B11F4B9DF80D10BA
:103FA0001970DFF878909DF80E3089F800301C4EBB
:103FB000052808D2DFE800F0D20A3C9ABA00194876
:103FC00000780870227009B0BDE8F08F9DF81210DB
:103FD0009DF81100FEF757FC01F046FF124A134B03
:103FE00001F008FB01F018FA3060ECE770000020E7
:103FF00040420F0020A10700A086010000080140F8
:1040000000640040006000402700002010010020F4
:10401000150000201E000020160000204000002097
:1040200048000020C700002068A17454FB211940FB
:10403000DFF83082DFF830A28C4F6FF0040B89B3C9
:104040009DF810109DF80F00FEF71AFC01F09EFC81
:1040500004460D4699F8000001F098FC424653468C
:1040600001F0E4FC5A4602F0E0FA22462B4601F049
:10407000DDFC00227E4B01F0BDFA01F013FC396833
:10408000081A38609DF812109DF81100FEF7FBFB2E
:1040900001F0EAFE774A784B01F0ACFA01F0BCF986
:1040A000306090E7FFE79DF810109DF80F00FEF7D5
:1040B000E7FB01F06BFC04460D4699F8000001F0A7
:1040C00065FC4246534601F0B1FC5A4602F0ADFA97
:1040D00022462B4601F0AAFC0022654B01F08AFA29
:1040E00001F0E0FB396808443860CBE79DF8101018
:1040F0009DF80F00FEF7C4FB01F048FC5F4A604BDF
:1041000001F094FC01F0FEFB5E4908809DF812105E
:104110009DF81100FEF7B7FB01F0A6FE554A564B7D
:1041200001F068FA01F078F930604CE79DF8101062
:104130009DF80F00FEF7C8FB534908609DF8121068
:104140009DF81100FEF79FFB01F08EFE494A4A4B95
:1041500001F050FA01F060F9306034E7227032E784
:1041600038B500240B4600220090114640F2016051
:10417000FFF71CFE054640F6FF7301E0641CA4B285
:104180002846FFF764FE072801D09C42F6D39C42E4
:1041900001D3012038BD002038BD00B586B00146EE
:1041A0000020FFF785FE60B102A8CDE9000103AB56
:1041B00004AA05A90020FFF78DFE0598122809D151
:1041C00002E0002006B000BD9DF8100010B99DF877
:1041D0000C0008B1002002909DF80800F2E738B505
:1041E00000240B4600220090114640F20170FFF7B8
:1041F000DDFD054640F6FF7301E0641CA4B22846CD
:10420000FFF725FE072801D09C42F6D39C4201D33C
:10421000012038BD002038BD38B5002400220091AF
:1042200008231146FFF7C2FD054640F6FF7301E083
:10423000641CA4B22846FFF70AFE072801D09C425E
:10424000F6D39C4201D3012038BD002038BD10B503
:1042500000240E490A20FFF7DFFF641CE4B2092C9A
:10426000F7D310BD9E7B0F971CC731402C00002058
:104270000000244068A17454FB211940C1CAA14523
:10428000B6731140420000203C00002028010020AD
:10429000CD48CC494160CD4941607047CA48016969
:1042A00041F0800101617047C748C068C10701D073
:1042B00001207047410701D502207047C00601D593
:1042C000032070470020704770B50446FFF7ECFFED
:1042D0000546012D05D1FEF720F9641EA4B2002C7D
:1042E000F4D104B9FF25284670BD70B5054645F6E2
:1042F000FF763046FFF7E8FF002812D1B24C206964
:1043000040F0020020616561206940F040002061BA
:104310003046FFF7D9FF012803D0216921F00201BF
:10432000216170BD70B506460D46FF20FFF7CCFF3A
:1043300000280ED1A44C206940F001002061358096
:10434000FF20FFF7C1FF012803D0216921F00101FF
:10435000216170BD008870472DE9F04105460E4689
:104360001746002407E036F814102846FFF7DAFF56
:10437000AD1C641CA4B2BC42F5D3BDE8F08110B5FD
:104380000446002307E02046FFF7E4FF21F813006E
:10439000A41C5B1C9BB29342F5D310BD2DE9F05FCA
:1043A00082460F461546AAF10062B2F5803F52D20E
:1043B000FFF76EFF4FEA9228C2F34806C6F5007475
:1043C000A54200D82C46DFF808B237E032183BF897
:1043D00012208A4203D1401C80B2A042F6D3A042F0
:1043E00014D24846FFF781FF002006E0821937F813
:1043F00010102BF81210401C80B2A042F6D3484691
:104400004FF400727249FFF7A7FF04E022463946D5
:104410005046FFF7A1FFA54202D1BDE8F05F3DE79E
:1044200008F10108002607EB44070AEB440A281BA1
:1044300085B24FF40074A54200D82C464FF00060BE
:1044400000EB8829821462494846FFF798FF002054
:104450004FF6FF71C1E7BDE8F09F13B5012201A936
:10446000FFF79CFF1CBD2DE9F05F59490C2218395C
:104470005848FFF784FFDFF858814FF6FF7BA8F11B
:104480001808DFF854E1B8F8001059452BD0B8F8F7
:1044900002305B4527D0B8F804C0DC4523D0B8F81B
:1044A0000690D9451FD0B8F808A0DA451BD0B8F857
:1044B0000A205A4517D0B8F80C00584513D0B8F860
:1044C0000E505D450FD0B8F810605E450BD0B8F8BF
:1044D00012705F4507D0B8F814405C4503D0B8F8B7
:1044E0001680D8451BD120208EF800003C483B495F
:1044F00001603C484FF4E13101603B48012101700B
:104500003A49002008603A4908703A490A220A707C
:1045100039490870394841F6F42101809BE78EF84B
:1045200000102F490CEB03430B602E490AEB0943A3
:104530000B602D490A7001F029FA0022304B01F07E
:1045400059F800F069FF29490860294805702D488D
:10455000067028480770284804702848A0F8008092
:1045600079E710B51C481A4C303C007820801C4874
:104570000068010C6180A0801A480068010CE1808D
:10458000208119480078608118481F49006801F0AF
:104590009DFE01F01BFEA08115480078E0811948BE
:1045A0000078208213480078608213480078A08247
:1045B00012480088E0822146BDE810400C220548E0
:1045C000ECE600002301674500200240AB89EFCDF7
:1045D0000802002000E000084000002040420F00D8
:1045E000700000202000002027000020380000205C
:1045F00054000020550000205600002042000020FA
:1046000000005940140000200000C842002800DAD1
:104610004042704770B50821CD0600222846FDF7BC
:1046200054FBFB4900240C6000212846FDF733FBB6
:10463000F8498879401CC0B28871142802D18C7165
:1046400001204871BDE870404FF48051F248FCF7FA
:1046500027BD2DE9F04107460D4600200E24661EB9
:1046600055F8261045F8241055F8261001F028FCBE
:10467000F4B2002CF3D12F600146384601F020FC43
:10468000BDE8F041E54901F08FBC2DE9F05FE44958
:104690000968A1EB0008E348C0F80080DFF888B3A0
:1046A000DBF800A0CAF1000008EB400001F0AEFD0D
:1046B000DFF86093D9F8201001F008FE01F0D4FB78
:1046C0000022DA4B00F096FF04460D46404601F00A
:1046D0009DFDD9F8181001F0F9FD01F0C5FB00228D
:1046E000D24B00F087FF06460F46A8EB0A0001F008
:1046F0008DFDD9F81C1001F0E9FD01F0B5FB002299
:10470000CA4B00F077FF32463B4600F0B7FE224628
:104710002B4600F0B3FE04460D46D9F8480001F0E0
:10472000A3FB22462B4600F0A9FE00F075FEC9F857
:104730004800CBF80080BDE8F09FBD49884201DD0C
:1047400008467047BB498842FBDA084670472DE9A6
:10475000F05FB94EAE4D286801F086FB0022B74BE2
:1047600000F08CFE00F058FE2860316801F07AFEFF
:1047700001D2306828602868FFF7DFFF2860B04961
:1047800001F0A4FDAF4901F00FFC01F01FFDA449A9
:104790000860AD4FDFF8B4823868D8F80010401ACE
:1047A000FFF734FFDFF8A8B2CBF80000FFF76DFF8A
:1047B000A84982460860DFF8A09299F8000001F04D
:1047C0003DFD514601F082FD0146A44801F0ECFB9D
:1047D00001F0E0FCFFF71AFFDFF884A2CAF800003E
:1047E000DBF8000001F012FD964901F06FFD9449DD
:1047F00001F0DAFB01F038FB9A4A9B4B01F016F905
:1048000000F00AFEDFF864B2CBF800009849FFF729
:1048100020FFCBF800003868C8F8000099F80000C5
:10482000944A954F4FF08143082844D004DC022875
:1048300007D0042814D121E0102859D020280FD106
:1048400074E0296899420CDA104601F0ADFB0421AE
:1048500001F019FF894901F041FE01F0B7FC84B273
:104860007DE0104601F0A0FB042101F00CFF84491B
:1048700001F034FE01F0AAFC84B270E0296899428C
:104880000CDA104601F090FB032101F0FCFE7D499B
:1048900001F024FE01F09AFC84B260E0104601F0C1
:1048A00083FB032101F0EFFE664901F017FE01F0E2
:1048B0008DFC84B253E0296899420CDA104601F06D
:1048C00073FB022101F0DFFE6F4901F007FE01F0EA
:1048D0007DFC84B243E0104601F066FB022101F04A
:1048E000D2FE394601F0FAFD01F070FC84B236E0E8
:1048F0006648296881420CDA104601F055FB012117
:1049000001F0C1FE624901F0E9FD01F05FFC84B2F3
:1049100025E0104601F048FB012101F0B4FE3946C4
:1049200001F0DCFD01F052FC84B218E02868B0F11F
:10493000804F0ADA1046316801F036FB414901F038
:10494000CDFD01F043FC84B209E01046316801F06E
:104950002BFB504901F0C2FD01F038FC84B2DAF8BB
:104960000000A04202DA4C4901200870E3E610B5CD
:104970000821CC0601222046FDF7A7F90121204697
:10498000FDF789F9A114BDE810402348FCF786BB68
:104990002DE9F04141490968081A01F037FC074642
:1049A0001C4C3946A06B01F08BFAA0633C4988424D
:1049B00000DDA1633B48A16B814200D9A06338466A
:1049C000E16B01F08BFD216901F080FCDFF8D880FC
:1049D000414601F0E9FA0546A16B606901F076FCF9
:1049E000414601F0E1FA06463946E06801F06EFC06
:1049F000414601F0D9FA314601F062FA294601F048
:104A00005FFA2064E763BDE8F04101F0C3BB00003A
:104A100048000020C4000020000C0140000070414C
:104A20006C000020900000208C00002000408F408F
:104A30000000E040CDCC4C3D500000200000E03FA5
:104A400000007A450000C842680000207C00002079
:104A50007800002084000020400000200060EA4828
:104A6000600000201F85EB51B81E1940880000200F
:104A70000806002000803B440000484200004844F3
:104A80000000C84300009643000048430000404037
:104A9000000016430000F0415700002030000020C5
:104AA0000000A0410000A0C100007A444BF62D2177
:104AB000884200D90846704710F1FF4F01D380F0BB
:104AC0000040704700B5FFF7A1FDFE4991FBF0F0F3
:104AD000B0F5803F02D34FF6FF7000BD80B200BD3D
:104AE0002DE9F041F849096801F0EDFC01F052FBB5
:104AF000FFF78CFD01F08AFB0546F44C2946A06ABD
:104B000001F0DEF90746A0622846E16A01F0E6FC02
:104B10000646A07801F092FB314601F0D7FB06462D
:104B2000607801F08BFB394601F0D0FB0746207816
:104B300001F084FB294601F0C9FB394601F0C0F9B8
:104B4000314601F0BDF9E56201F040FB80B2BDE8FD
:104B5000F0812DE9F047DC4FDFF87493386849465F
:104B6000824601F0BBFC0146DFF87083D94EDA4C77
:104B7000D8F8005011F1FF4F15D2B5F5000F0FDB3B
:104B8000284601F06FFB0BD2D8F8000001F06CF959
:104B90000022334600F072FC00F03EFC06461AE0AC
:104BA000D8F8006017E0A54213DA4946504601F0F4
:104BB00087F9294601F056FB0BD2D8F8000001F026
:104BC00053F90022334601F065F800F025FC064653
:104BD00001E0D8F800603868DFF804830025A042BF
:104BE00000D13D603046396801F03CFC02D8C8F87D
:104BF000B05102E00120C8F8B0013146386801F038
:104C00006DFCFFF759FFB749B74CDFF8E082DFF8DA
:104C1000E09288420DDA3046FFF762FF2060FFF72E
:104C200051FF2060B0F5803F06DB4FF6FF7020603B
:104C300002E040F2EE202060386801F015F94246AB
:104C40004B4601F027F804460D463046FFF734FF87
:104C500001F00AF922462B4600F0E6FF15D238682B
:104C600001F002F942464B4600F008FC04460D46AE
:104C70003046FFF721FF01F0F7F822462B4600F0FF
:104C800099FE02D2BDE8F047C4E4BDE8F0476EE605
:104C900070B50446204601F099FA064680B201F04C
:104CA000CDFA0546214601F00EFCB0F17C5F04DD33
:104CB000B0B2401C01F0C2FA00E0284601F086FACA
:104CC00080B270BD2DE9F05F8A48002707607F4EF3
:104CD000706C01F0C9F8854A874B00F0CFFB00F0FB
:104CE0009BFB4FF081417064884200DD7164834911
:104CF00040F6B8300880706CFFF71FFD7064804983
:104D000001F0E4FA7F4901F04FF901F05FFA7E49C2
:104D10000860DFF8F891DFF8F8A1D9F80000DAF8B8
:104D20000010401AFFF772FCDFF8E881C8F80000B5
:104D3000FFF7ABFC7849834608607848007800F0BC
:104D400025FE04460D46584601F08EF8674A744B1E
:104D500000F06CFE6FF0040201F067FC22462B4667
:104D600000F064FE02460B4600206E4900F042FC53
:104D700000226D4B00F05AFE00F04EFBFFF788FF5B
:104D8000594C2060D8F8000001F040FA674901F062
:104D90009DFA5B4901F008F901F066F8644A654B39
:104DA00000F044FE00F038FB63490860D9F80000C9
:104DB000CAF800007089401C80B2708102255F4EE5
:104DC000DFF87C81DFF87C91DFF87CA1FA2809D933
:104DD000FFF720FC357088F800702760A9F8007094
:104DE000CAF800704D484FF4AF510078B1FBF0F0B5
:104DF000216888420ADDFFF70DFC357088F80070E5
:104E00002760A9F80070CAF8007094E4BDE8F05F6C
:104E1000ADE52DE9F84F394C0121343C2046FDF732
:104E200087F900284CD001212046FDF78DF9642038
:104E3000FEF70FFE29490860FEF721FDDFF8CC8060
:104E4000C8F80000414C214F40F277112078FA6CED
:104E500048433F4D00264FF400614FF00109B2EB8B
:104E6000001F0BD92846FCF71BF9207840F2771178
:104E7000484309EB0010F864BE6403E012B9284609
:104E8000FCF70CF92D4CF9782078884207D02D4892
:104E90000680C8F800602C4806601D4806602D4852
:104EA0002D49DFF878A00278012A67D1067020200A
:104EB0008AF80000294880F800900248284A51E00A
:104EC00001E2000040420F003C000020C40000202E
:104ED00000003443008076400000B443800000208E
:104EE000000021420000A040600000209A9999999A
:104EF0009999E93FB00121429999C93F342C014069
:104F000000007A450000C8426C00002068000020C4
:104F10007C00002078000020840000204000002059
:104F2000999909400000244000C0B2400000484266
:104F30001F85EB51B81E1940880000201500002085
:104F400025000020240800402800002055000020F3
:104F5000000C01405D00002014000020270000200C
:104F6000700000201060EA4A4FF4E1301060E94818
:104F700080F8009081F80090E74806703879401C6E
:104F8000C0B23871052807D1E4480078012803D160
:104F9000E34880F800903E710878012814D0102171
:104FA0002846FCF77BF808212846FCF777F820789C
:104FB000F870FEF748FA1420FEF7D0FAD9480078C6
:104FC00058B1FFF77FFE78E110212846FCF768F81A
:104FD00008212846FCF764F8E9E7FEF743FA207851
:104FE000D14AD24DD249D34CDFF84CB341F20B1C1D
:104FF000012807D0D14B022852D003283BD00428E7
:105000001AD12AE0CBF80060CD48006810F0FF4FBD
:1050100013D0CC48007880B1A2F800C02878C1F83D
:10502000B0012178884202D0BE64C7490E6020706A
:10503000FFF78DFBFFF79BFC02E1FFF7EBFAC3489C
:105040000680C8F80060C2480660C2480660C248D0
:105050000660C2480660BE64F2E0A2F800C0CBF869
:105060000060BF480178012902D10670BD48066082
:10507000FFF76FFDE4E02878C1F8B001CBF80060DD
:105080009AF8000045F6C051B1FBF0F1B648016056
:105090001888FFF70BFD18801080FFF768FCCFE041
:1050A000DBF800C06FF0C700844501DDCBF80000DD
:1050B000AE48DBF800C0844501DACBF80000B3F855
:1050C00000C040F6A250844500D218801888108095
:1050D000A74928780090086096490978884206D048
:1050E0009C48D8F800100160BE649F4806609AF89A
:1050F000000000F04BFC00229E4B00F097FC0446A1
:105100000D46DBF8000000F02AFC22462B4600F09A
:1051100071FA0022984B00F089FC00F0C3FB97491C
:10512000086097490A68904207D0BE64864A1660B4
:10513000944A16703E8187F8079008607D49009870
:105140000870D8F80000FFF723FC8F4C2060FFF7B1
:105150005DFA9AF800104FF4F072B2FBF1F1884258
:1051600024DAFFF757FA9AF8000000F00FFC00224B
:10517000804B00F05BFC04460D46D8F8000000F0C0
:10518000EEFB22462B4600F051FC00227A4B00F049
:1051900031FA00F087FBCBF8000070480660BE646F
:1051A00069480660794880F8009049E077480670C1
:1051B0002068002802DB6E48066002E05C48C0F808
:1051C000B091FFF7D4FBD4F8009009F131006328C7
:1051D00000D2BE649AF8000000F0D8FB04460D46E9
:1051E0004846FFF713FA00F0BAFB694A694B00F032
:1051F0001DFC02460B460020674900F0FBF9002227
:10520000664B00F013FC0022654B00F00FFC0522FA
:1052100001F00BFA22462B4600F0ECF900F072FB8D
:10522000604C2060FFF793FA4F4920680A6890426B
:1052300000D90860B0F5803F02D34FF6FF700860D8
:1052400050490878012838D13889401C80B238810B
:105250001E281FD93E810E70FFF7DCF9BE649AF854
:10526000000000F093FB0022424B00F0DFFB0446FD
:105270000D46D8F8000000F072FB22462B4600F0E5
:10528000D5FB00223C4B00F0B5F900F00BFBCBF84E
:10529000000012E03948D8F800100068081AFFF73B
:1052A000B5F9B0F5FA7F08DDD8F8000042F21071C8
:1052B000C84202DD2C48C82101609AF80000BDE810
:1052C000F84FFEF71ABABDE8F88F40F2CF218842B6
:1052D00000D20846704710B50821CC062046FCF7DE
:1052E00027FF002812D008212046FCF72DFF20467A
:1052F000FCF70BFF1C49096801EBD17100EB610061
:1053000081B22046BDE81040FCF7EEBE10BD0000A3
:10531000200000201D000020540000205600002026
:105320001E00002025000020342C01401600002023
:1053300000002142170000202C0000204200002025
:1053400048000020260000208C0000202408004097
:10535000280000207C000020780000208800002029
:10536000580000203C00002060000020C063FFFFC8
:10537000B0012142000069400040AF4030000020F1
:105380003400002057000020640000205E00002050
:105390009A999999999909400000344000C0B24007
:1053A0000000044074000020704770477047704749
:1053B0007047754600F02CF8AE4605006946534626
:1053C00020F00700854618B020B5FBF701F8BDE8CE
:1053D00020404FF000064FF000074FF000084FF05C
:1053E000000B21F00701AC46ACE8C009ACE8C009ED
:1053F000ACE8C009ACE8C0098D46704710B504465A
:10540000AFF300802046BDE81040FAF7B6BE0000BA
:10541000004870474406002021F00042A2F160528B
:10542000B2F5801F01F0004328BFD2F17F6C0BD989
:105430005FEA001C43EAC20242EB507018BF70479B
:1054400028BF20F001007047B2F5801FBCBF18468E
:1054500070474FEA410C1CF5001F02D2084600F0CD
:10546000FCBF70B500F08CFB00000089FFF7F6BFB1
:105470004FF00040A0F580007047000010B591EAA1
:10548000030F48BF83F0004300F10C84841A71EBD2
:10549000030C05D2121943EB0C03001B61EB0C014A
:1054A000DFF824E14FEA1154A4EB135C1EEA430F2A
:1054B00018BF9EEA445F73D023EA0E03DCF1200E8E
:1054C00021EA045143F4801332D322FA0CFE10EB8C
:1054D0000E0023FA0CFE41EB0E01CCF1200E03FA74
:1054E0000EFE10EB0E0051F10001B1F5801FCCF162
:1054F000200E32D201EB045112FA0EF2BDE8104038
:1055000058BF7047401C38BF5FEA420218BF70475F
:10551000002814BF20F0010041F100014FEA4103CF
:1055200013F5001F38BF7047A1F1C04100F076BBF2
:10553000012A43EB0302ACF1200CDCF11F0E32BF59
:105540004FF0000E23FA0CF310EB030041EB045173
:10555000B4EB115FD0D0A1EB045101F580114908E3
:105560005FEA300001EB04510ED350F1000038BF68
:1055700012FA0EFE08D1BDE81040C9E7401C38BF42
:105580005FEA4202CAD1C3E7BDE810404FEA4103D7
:1055900013F5001F38BF7047A1F1C04100F03EBBBA
:1055A0009EEA445F08D011EA5E0FBDE8104004BFD8
:1055B00001F0004100207047BDE8104070B500F0D8
:1055C000DFFA00BF64FBBE3E0000E0FF02494FF07F
:1055D000000000F0F8BF00BF0000F87F491058BF7E
:1055E000C1F140415B1058BFC3F140438B42EFF320
:1055F000008070472DE9C04130B4DFF8A0C23CEA1A
:10560000111418BF3CEA131400F0EC8081EA030582
:105610001CEA111444EAD57418BF1CEA131500F0F3
:10562000C780A4EB05044FF0004545EAC12145EAD7
:10563000C32341EA505143EA525304F17F74994223
:1056400004F500344FEAC0204FEAC22208BF90425E
:1056500000F09C804FEA13650FF24016765D4FEA2A
:10566000134506FB05F7C7F1807706FB07F74FEAFE
:10567000D737A7FB03687642C8F58038A7FB06CE6C
:1056800038BFA8F1010807FB08E64FF0000EA6FBA3
:10569000028CE6FB03CEDCF1000CCEF1004E38BFED
:1056A000AEF1010EA6FB0C584FF000074FF00005BD
:1056B000E6FB0E87A1FB08C6A0FB07CE16EB0E0685
:1056C00045F10005E1FB076515F1E04E7EBFA4F54D
:1056D00080345FEA46066D4116F1800745F100050A
:1056E0004FEA17274FEA066647EA0567A6F1DE4646
:1056F000B6F1805F4FEA15251FD9384624F0010C1A
:1057000005EBC471BCF1FE6F01EB0C1102D8F0BCCB
:10571000BDE8008124425CBF01F5801E9EEAC47F83
:1057200002D4F0BCBDE80081244238D4F0BCA1F121
:10573000C041BDE8004100F071BA4FEAD22242EA0E
:1057400043524FEAD323A7FB02864FEAD02040EA18
:10575000415007FB03661EEA0E0F4FEAD12105FBFD
:10576000026658BFA6EB0056B6EB00564FEA520E43
:105770004EEAC37E18EB0E0E56EB530EBDD518EB5A
:1057800002085E417F1C55F10005B6E74FF4801515
:105790004FF000074FF000064FF00008ADE7F0BCF7
:1057A0004FF0000001F1C04101F00041BDE800816F
:1057B00011EA0C1F0CEA131500D00CE013EA0C1FC1
:1057C00000F025804FF00000F0BC81EA030101F0F9
:1057D0000041BDE80081F0BCBDE8004181EA030161
:1057E00000F01CBAF0BCBDE8004170B500F0C8F98B
:1057F000097EFC3E00F007B881EA03014FF000008B
:1058000001F00041704781EA030100F007BAF0BCE3
:10581000BDE800414FF0000021497047FFFDFBF952
:10582000F7F5F4F2F0EEEDEBE9E8E6E4E3E1E0DED3
:10583000DDDBDAD8D7D5D4D3D1D0CFCDCCCBCAC845
:10584000C7C6C5C4C2C1C0BFBEBDBCBBBAB9B8B76C
:10585000B6B5B4B3B2B1B0AFAEADACABAAA9A8A85F
:10586000A7A6A5A4A3A3A2A1A09F9F9E9D9C9C9B2D
:105870009A999998979796959594939392919190D8
:105880008F8F8E8E8D8C8C8B8B8A89898888878769
:105890008685858484838382828181800000FF07DE
:1058A0000000F87F4FEA41034FEA5353A3F58063AA
:1058B000D3F11E03C8BFD3F1210C0CDD4FF0004221
:1058C00042EAC12242EA505232FA03FC8CEAE17CFD
:1058D000ACEBE1707047102BC4BF0020704703F59C
:1058E000787CBCF1FF3F04D06FF0004282EA2100D7
:1058F000704770B500F044F9499224800020704749
:10590000F2E700004FEA1153A3F58063D3F11E03C1
:10591000A8BFD3F1200C08DB4FF0004242EAC122BD
:1059200052EA505232FA03F0704709420BD4102B5E
:10593000C4BF0020704703F5787CBCF1FF3F05D061
:105940004FF0FF3070474FF00000704770B500F027
:1059500017F900BF4992248000207047F0E710F04B
:10596000004248BF4042B0FA80F310FA03F10AD077
:10597000C3F11D0303F580634FEA415002EB03526C
:1059800002EBD12170474FF000007047B0FA80F36E
:1059900010FA03F10AD0C3F11D0303F580634FEA47
:1059A00041504FEA035202EBD12170474FF0000003
:1059B0007047000051EA030C17D41CF5801F58BF34
:1059C000BCF5801F00F10680994218BF704708BFE0
:1059D0009042704707D711F5801F58BF13F5801FFD
:1059E00019D499427047894270471CF5801F08D529
:1059F000BCF5801FF7D58B4218BF704708BF8242A5
:105A000070474FF4001C1CEB410F38BF1CEB430FD9
:105A100001D28B42704770B500F0B2F89224490071
:105A20004FF000514FF08053FFF7D8BDDFF848C169
:105A300070B51CEA111E1EBF1CEA13159EEA0C0F5E
:105A400095EA0C0F00F06F8081EA030423EA4C13FF
:105A50004EEAD47E21EA4C1141F4801143F48013C4
:105A6000AE44A1FB024CA0FB0365AEF17F7E36196C
:105A700055EB0C05A1FB034C4CF10003A0FB021CF1
:105A800016EB0C06654153F10003094218BF46F0BE
:105A9000010613F4007F0BD14FEA03314FEA0530C2
:105AA000340341EA155140EA16506FF003020AE050
:105AB0004FEAC3214FEAC520F40241EA555140EABA
:105AC00056506FF0020202EB2E4201EB025585EABE
:105AD000CE710AD05FEA440C18BF24F0004450F1A4
