:020000040800F2
:10000000100A00203903000811010008130100083C
:100010001501000817010008190100080000000080
:100020000000000000000000000000001B010008AC
:100030001D010008000000001F0100082101000848
:100040005303000853030008530300085303000838
:100050005303000853030008D73000085303000877
:100060005303000853030008530300085303000818
:100070005303000853030008530300085303000808
:1000800053030008530300085303000853030008F8
:100090005D3E0008530300085303000853030008A3
:1000A000530300081F5000085303000853030008BF
:1000B000B5560008ED380008013800085303000861
:1000C00053030008530300085303000853030008B8
:1000D00053030008BD240008AF2A0008530300089A
:1000E0007F3000085303000853030008DFF810D0E6
:1000F00005F05AFF004800477D020008AFF300807A
:10010000100A002030BF72B662B680F308887047CC
:100110007047FEE7FEE7FEE7FEE77047704770476F
:10012000704700000CB500224C4800920192016813
:1001300041F4803101604FF4A063016801F40031A3
:1001400001910099491C0091019911B900999942B6
:10015000F3D10168890333D50121019140490A682F
:1001600042F010020A600A6822F003020A600A687C
:1001700042F002020A6041684160416841604168A2
:1001800041F480614160416821F47C114160416823
:1001900041F4E8114160016841F08071016001683B
:1001A0008901FCD5416821F003014160416841F0BB
:1001B000020141604168C1F381010229FAD10CBDFD
:1001C00001920CBD254810B5016841F001010160A4
:1001D0004168244A114041600168234A114001608E
:1001E000016821F480210160416821F4FE01416031
:1001F0004FF41F018160FFF795FF1C494FF000602D
:10020000086010BD154A10B55068194B10F00C016C
:10021000184803D0042901D0082901D0036012E056
:100220005168536801F470114FF0020413F4803FD9
:1002300004EB914102D053689B0301D50E4B00E0C3
:100240000B4B5943016051680A4AC1F30311121D57
:10025000515C0268CA40026010BD000000100240FC
:10026000002002400000FFF8FFFFF6FE08ED00E06E
:1002700000127A000000002000093D0008B50220AD
:1002800001F056FF01F002FF022001F0EDFF012016
:1002900001F0EAFF4FF4E13002F044F804F095F881
:1002A000244C606802F0B6FB02F076FE02F085FE98
:1002B00002F0D8FF00250623022203210120009529
:1002C00003F00EFC03F0A5F821784FF6FF76D8294D
:1002D00010D003F097F903F04DF80E21304602F0EC
:1002E000EFFF312141F61F4003F0C4FBA078012845
:1002F00007D009E003F025FA4721304603F0A2FABF
:10030000E9E704F0F3F8A5706078012804D102F061
:100310004CFD02F05BF86570E0780128E6D102F050
:10032000A7FD03F048FF02F051F802F073F8E57002
:10033000DCE700001C000020064880470648004714
:10034000FEE7FEE7FEE7FEE7FEE7FEE7FEE7FEE785
:10035000FEE7FEE7C5010008ED0000082849084354
:1003600028490860704730B50F23C278017801250D
:10037000F2B1244A126801F1E02102F4E062C2F510
:10038000E062120AC2F10404D3404278A2408478A9
:100390001C401443220181F80024007800F01F0162
:1003A0008D404009800000F1E020C0F8005130BDD0
:1003B00001F01F0085404809800000F1E020C0F8EE
:1003C000805130BD104A114001430E48001F0160AA
:1003D00070470C4A121D0029116801D0014300E04A
:1003E0008143116070474FF0E0210428086903D071
:1003F00020F004000861704740F00400FAE70000B4
:100400000000FA050CED00E080FFFF1F10B5012091
:1004100000F005FFBDE81040002000F000BF1F49BC
:10042000086070471D49091F086070471B498431E7
:10043000086070471A4A118821F4607101431180E5
:100440007047174A118821F07F01014311807047DE
:10045000134A08B52C3A10440090016008BD1049B9
:1004600008B52C3908440090008808BD0B489C3022
:100470000068C0B270470A480830018841F00101A5
:10048000018070470548A0300068C0B2704704483A
:100490000830018841F002010180704704860D4256
:1004A0002C6C0040FE4910B588424FF0010101D18B
:1004B0004C0601E04FF08064204600F0A7FE204685
:1004C000BDE81040002100F0A1BE10B50368002275
:1004D00023F002030360036843F0010303604FF657
:1004E000FF7300E0521C4468E40701D19A42F9D13D
:1004F0004268D2073ED08A79012A02683CD022F0B5
:1005000080020260CA79012A026838D022F04002D3
:1005100002600A7A012A026834D022F020020260C6
:100520004A7A012A026830D022F0100202608A7AE8
:10053000012A02682CD022F008020260CA7A012A3D
:10054000026828D022F0040202608A78CC789207F0
:1005500042EA04620C7942EA04424C79098842EA90
:100560000452491E0A43C261016821F00101016081
:10057000002114E0002010BD42F08002C1E742F0EB
:100580004002C5E742F02002C9E742F01002CDE781
:1005900042F00802D1E742F00402D5E7491C426864
:1005A000D20701D09942F9D14068C007E2D10120B9
:1005B00010BDF0B5827ABB4D012191402A6842F00E
:1005C00001022A60B74E1C3632688A433260B54A4F
:1005D000047BB54B0C32A4B914688C431460448876
:1005E000C78844EA0744877A03EBC707C7F8404641
:1005F0000488878844EA0744877A03EBC707C7F86B
:100600004446047B012C12D114680C431460847A94
:10061000026803EBC4044FEA3242C4F84026847AED
:10062000426803EBC4034FEA3242C3F844269D4AB2
:10063000C37A121D002B136806D00B431360994A2E
:100640000389143213B104E08B43F7E713688B433B
:1006500013600389012B02D113680B431360407BA5
:10066000012802D1306808433060286820F001007A
:100670002860F0BD00218171C171017241728172E7
:10068000C1728170C1700321017102214171012188
:100690000180704783490A6842F001020A600A68D3
:1006A00043F60E739A430A600A6842EA0020086023
:1006B000086820F00100086070470029016802D036
:1006C00041F4803101E021F480310160704700295C
:1006D000016813D041F080010160D0F8841141F429
:1006E0008071C0F88411D0F8941141F48071C0F881
:1006F0009411D0F8A41141F4807112E021F080012E
:100700000160D0F8841121F48071C0F88411D0F810
:10071000941121F48071C0F89411D0F8A41121F43F
:100720008071C0F8A411704730B50246002093686C
:100730005B0108D49068000101D5012003E09068B6
:10074000C00044D5022002EB0012D2F8803103F041
:100750000103C2F880310B7AC3B3D2F880414D68EF
:100760001C434B7A43EAC5031C43C2F880418B7A91
:1007700003F00F038B72D2F8843123F00F03C2F819
:100780008431D2F884318C7A2343C2F88431CB7A15
:100790008C7B0D7B43EA04634C7B240444EA0524F0
:1007A0002343C2F88831CB7B8C7C43EA04634C7CC6
:1007B000097C240444EA01210B43C2F88C31D2F8AD
:1007C000801141F00101C2F8801130BD01E0042028
:1007D000FBE7D2F880314C7A23430C8843EA445338
:1007E000C2F88031C3E7002221B1012905D00229D6
:1007F00006D112E082682D4801E082682C48024050
:100800002C49501A8A4214D00ADCA2B16FF08060E1
:1008100010180FD002280CD10FE082682648EEE7AE
:10082000B0F5007F09D02549401803D0B0F5003F4E
:1008300003D000207047022070470120704741B16B
:1008400001290AD0022903D1816841F400018160A5
:100850007047816841F08001F9E7816841F4004107
:10086000F5E710B500EB0113D3F8B04114F0040420
:100870001472D3F8B04144D0E4085460D3F8B041C6
:1008800004F002045472D3F8B44104F00F049472DB
:10089000D3F8B441240AD474D3F8B841D4720FE029
:1008A0000064004000660040006000400300000457
:1008B0000003000800010008000003100001FFF71A
:1008C000D3F8B841240A1473D3F8B841240C5473F4
:1008D000D3F8B841240E9473D3F8BC41D473D3F841
:1008E000BC41240A1474D3F8BC41240C5474D3F8CA
:1008F000BC311B0E937439B1016941F020010161D3
:1009000010BD640D1460B9E7C16841F02001C160F9
:1009100010BD21B1016941F0200101617047C1683A
:1009200041F02001C16070470246002029B1012931
:1009300002D1106900F003007047D068FAE7002385
:100940004FF6FF7221B1012917D0022924D03AE0D5
:10095000016821F0020141F00101016000E0521E36
:10096000416801F00301012901D0002AF7D1406854
:1009700000F00300012823D124E0016821F00301E5
:10098000016000E0521E4168890701D0002AF9D1B8
:100990004068800714D115E0016821F0010141F0A1
:1009A0000201016000E0521E416801F003010229CA
:1009B00001D0002AF7D1406800F00300022801D0DE
:1009C000002300E00123184670470268002122F04E
:1009D000010242F002020260406800F003000228B7
:1009E00000D101210846704702684FF6FF710023CD
:1009F00022F00202026000E0491E4268920701D51F
:100A00000029F9D14068800700D4012318467047B7
:100A10008069C0F30210000170478069000E7047C2
:100A20008069C0F307407047002A426901D00A4339
:100A300000E08A43426170470246002011F4700FC3
:100A400003D0926904E001207047CB0104D55268BD
:100A50000A401103F7D170470B0101D59268F7E7FF
:100A60008B0101D5D268F3E71269F1E7534A91424D
:100A700002D1002181617047C1F313028B0101D5BE
:100A8000C26070474B0101D502617047090101D571
:100A900082607047426070470246002053690B42F3
:100AA0004AD0B1F5807F3BD013DC08292ED007DC7B
:100AB000012926D0022927D004293DD1D0682BE076
:100AC000102925D0202926D0402935D110691021A0
:100AD00030E0B1F5004F2BD00BDCB1F5007F22D018
:100AE000B1F5806F22D0B1F5006F25D190697021EA
:100AF00020E0B1F5803F11D0B1F5003F1CD1506826
:100B0000E5E790682E4915E0D06802E0D068DEE79E
:100B1000106903210EE0106908210BE05068FBE723
:100B20009069012106E09069022103E0906900E0EC
:100B30005068042100F03BB8704730B508231024FA
:100B40000422B1F5007F1DD010DC202929D007DC5C
:100B5000012921D0042922D0082900D1C46034E61B
:100B6000402920D0B1F5807FF9D10BE00025B1F507
:100B7000004F06D008DCB1F5806F03D0B1F5006FEF
:100B8000EDD18561426020E6B1F5803F0DD0B1F531
:100B9000003FE4D1446018E60949816015E6C3606E
:100BA00013E6036111E604610FE643600DE60246B9
:100BB00000200A4200D00120704700007000F03091
:100BC00001010100374900200860091D0860091D66
:100BD0000860091D086033493348143108607047C4
:100BE00030B5304A8379016853B313688B4313607F
:100BF000111D0B680468A3430B60017911440B6855
:100C0000046823430B60274B083319680468A14329
:100C100019601C1D21680568A943216041791029CC
:100C200005D011440A68006802430A6030BD1968A3
:100C3000026811431960216800680143216030BDDA
:100C40000079104402688A43026030BD00210160CF
:100C500001710C22427181717047124910310A688A
:100C600002430A60704701460E4A0020143212689F
:100C70000A4200D0012070470A49143108607047C9
:100C8000084A014600201268064B0A4014331B68CC
:100C90000B4202D0002A00D00120704701491431D4
:100CA0000860704700040140FFFF0F008F4910B536
:100CB000884206D10121042000F09FFA002104207F
:100CC0003BE08B49884206D10121082000F095FACB
:100CD0000021082031E08749884206D101211020F7
:100CE00000F08BFA0021102027E08349884206D1CA
:100CF0000121202000F081FA002120201DE07F4901
:100D0000884206D10121402000F077FA00214020DE
:100D100013E07B49884206D10121802000F06DFA62
:100D20000021802009E0774988420AD184150121F9
:100D3000204600F062FA00212046BDE8104000F095
:100D40005CBA10BD10B50121084600F056FA00212A
:100D5000BDE81040012000F050BAF0B5CC78002278
:100D600004F00F03E40601D58C7823430C784FF090
:100D70000F0C14F0FF0F4FF0010E1BD005680E880A
:100D80000EFA02F42640A64210D196000CFA06F79D
:100D900025EA070703FA06F5CE783D43282E02D050
:100DA000482E02D002E0446100E00461521C082A8F
:100DB000E5D305600A88FF2A1CD94468002202F1A5
:100DC00008060EFA06F50E882E40AE420ED19600A9
:100DD0000CFA06F7BC4303FA06F7CE783C43282EFC
:100DE00000D14561CE78482E00D10561521C082AF9
:100DF000E5D34460F0BD4FF6FF71018002218170A0
:100E00000421C17070470246002092680A4200D057
:100E100001207047806880B2704702460020D26887
:100E20000A4200D001207047C06880B2704701615B
:100E30007047416170470AB1016170474161704775
:100E4000C160704741F48032826181618261816951
:100E5000806970472C4B10B51A684FF68074224099
:100E600042EA00100843186010BD2849C861704765
:100E7000F0B5254C002801DAE36900E06368450D10
:100E80002E0185B2C0F30157B540C0F30342032FD2
:100E900005D0C6020AD503269640B34307E023F0E7
:100EA0007062636823F07063636002E0AB4343F0F9
:100EB000706201B12A43002801DAE261F0BD62608C
:100EC000F0BD10B58A0721F003040F49120F214429
:100ED0000F238C6893409C438C608B689040034345
:100EE0008B6010BD0949C1F8DC0070470008014063
:100EF000000C0140001001400014014000180140A6
:100F0000001C014000200140000001400000204280
:100F100010B501210C07204600F078F92046BDE805
:100F20001040002100F072B9214908627047204941
:100F3000086170471F4A116821F0E0010143116008
:100F400070471B49C1F8A00070471A4B1A6822F07D
:100F5000030202431A601848026842F00402026069
:100F6000012905D020BF016821F00401016070470C
:100F700030BFF8E70F48016841F0040101600168E3
:100F800041F0020101600C48016841F00401016078
:100F900030BF7047074A0146002052680A4200D01D
:100FA0000120704703490A6842EA800008607047E0
:100FB00000000E420070004010ED00E0A5480168FE
:100FC00041F0010101604168A34A1140416001689C
:100FD000A24A11400160016821F48021016041684A
:100FE00021F4FE0141604FF41F018160704799496F
:100FF0000A6822F480320A600A6822F480220A60B9
:10100000B0F5803F07D0B0F5802F03D1086840F4D9
:10101000A02008607047086840F48030F9E7034674
:10102000002059098B4A01290AD002290AD0516AA5
:1010300003F01F02012393400B4200D001207047B0
:101040001168F5E7116AF3E718B500204FF4A064C2
:1010500000903120FFF7E3FF0099491C0091A14265
:1010600001D00028F5D03120FFF7D9FF002800D0AB
:10107000012018BD774A116821F0F80141EAC0004B
:1010800010607047764908607047724B5A68084391
:1010900022F47C121043586070477149086670470B
:1010A0006C4A516821F0030101435160704769485F
:1010B000406800F00C007047664A516821F0F0016A
:1010C000014351607047634A516821F4E061014374
:1010D000516070475F4A516821F4605141EAC00095
:1010E000506070475B4A0029517A01D0014300E00B
:1010F0008143517270475A49C1F8D8007047554A28
:10110000516821F440410143516070475149002228
:1011100081F8202081F82020012802D0042802D163
:10112000052081F8200070474E4908607047494902
:101130000A6A02430A6270474A49443908607047A4
:1011400030B5444A5168484B11F00C0103D00429D2
:1011500001D0082901D0036012E05168536801F4FE
:1011600070114FF0020413F4803F04EB914102D060
:1011700053689B0301D53D4B00E03B4B5943016055
:1011800051680F2303EA1111394B5C5C0168E1409F
:1011900041605468072505EA14241C5D21FA04F413
:1011A0008460546805EAD4241B5DD940C16052684C
:1011B000032303EA92322E4B1B1F9A5CB1FBF2F120
:1011C000016130BD234A0029516901D0014300E08B
:1011D0008143516170471F4A0029916901D0014341
:1011E00000E08143916170471A4A0029D16901D01A
:1011F000014300E08143D1617047164A0029D1685C
:1012000001D0014300E08143D1607047114A0029B9
:10121000116901D0014300E0814311617047114918
:101220004039086070470E49C86470470949C87161
:1012300070470848416A41F0807141627047054A31
:101240000146002092680A4200D0012070470149FF
:1012500088727047001002400000FFF8FFFFF6FEA2
:10126000000042428004424200127A0000093D0020
:101270009C000020F94910B5884202D10121C41414
:1012800086E0B0F1804F09D0F54988420DD10121A7
:101290000220FFF7BBFF0021022064E00121084685
:1012A000FFF7B4FF002101205DE0EE49884206D13E
:1012B00001210420FFF7AAFF0021042053E0EA499E
:1012C000884206D101210820FFF7A0FF0021082055
:1012D00049E0E649884206D101211020FFF796FF38
:1012E000002110203FE0E249884206D10121202060
:1012F000FFF78CFF0021202035E0DE49884202D133
:101300000121441444E0DC49884202D10121CC048B
:101310003EE0DA49884202D101210C0538E0D84983
:10132000884202D101214C0532E0D649884206D1DB
:1013300001214020FFF76AFF0021402013E0D2493D
:10134000884206D101218020FFF760FF0021802024
:1013500009E0CE4988420AD1841501212046FFF7D1
:1013600055FF00212046BDE81040FFF74FBFC84998
:10137000884202D101210C040AE0C649884202D108
:1013800001214C0404E0C44988420AD101218C04A3
:101390002046FFF732FF2046BDE810400021FFF74E
:1013A0002CBF10BD30B50288AC4CB24DA0420DD060
:1013B000A8420BD0B0F1804F08D0A94B984205D07D
:1013C000A84B984202D0A84B984203D122F0700358
:1013D0004A881A43A54B984206D0A54B984203D0A1
:1013E00022F44073CA881A4302808A8882850A8858
:1013F0000285A0420AD0A84208D0A54A904205D052
:10140000A44A904202D0A44A904201D1097A0186AE
:101410000121818230BD30B5028C22F001020284AC
:10142000028C8388048B22F0020224F073050C885E
:101430002C430D8915434A882A43884DA8420BD076
:101440008C4DA84208D0924DA84205D0914DA8429B
:1014500002D0914DA8420DD122F008054A8923F40B
:1014600040732A4322F004058A882A438D891D434C
:10147000CB892B4383800483C9888186028430BD55
:1014800070B5028C22F010020284028C8388048BD7
:101490000D8824F4E6464FF6FF7404EA052535432B
:1014A0000E8922F0200204EA061616434A8804EA4E
:1014B00002123243694EB04202D06E4EB04215D194
:1014C00022F080064A8923F4406304EA0212324380
:1014D00022F040068A8804EA021232438E8904EA26
:1014E00086061E43CB8904EA830333438380058346
:1014F000C9880187028470BD70B5028C22F48072A5
:101500000284028C8388848B0D8824F07304254325
:101510000E894FF6FF7422F4007204EA0626164381
:101520004A8804EA022232434C4EB04202D0514E65
:10153000B04215D122F400664A8923F4405304EAEC
:101540000222324322F480668A8804EA022232436D
:101550008E8904EA06161E43CB8904EA031333433B
:1015600083808583C9888187028470BD70B5028CB1
:1015700022F480520284058C8288838B0C8823F4A9
:10158000E6464FF6FF7303EA0424344325F400567D
:101590000D8903EA053535434E8803EA06362E43A6
:1015A0002E4DA84202D0334DA84205D122F48045E9
:1015B0008A8903EA82122A4382808483C988A0F838
:1015C0004010068470BD828B22F440628283828B3D
:1015D0004FF6FF7303EA01210A4382837047828B2F
:1015E00022F00C028283828B0A4382837047028B33
:1015F00022F440620283028B4FF6FF7303EA01215B
:101600000A4302837047F0B5048C24F0100404846C
:10161000078B048C4FF6FF7527F4734705EA0333F5
:101620003B4305EA02221A430C4B05EA0116984295
:101630000ED0104B98420BD0B0F1804F08D0084B21
:10164000984205D0074B984202D0074B984225D1CB
:1016500024F02001314341F0100124E0002C01402E
:101660000004004000080040000C00400010004052
:101670000014004000340140004C01400050014083
:101680000054014000180040001C004000200040B1
:1016900000400140004401400048014024F0A00304
:1016A0000B4343F0100102830184F0BD028B22F052
:1016B0000C020283028B0A430283704770B5048CCC
:1016C00024F001040484058B048C4FF6FF7606EAAF
:1016D0000313134325F0F305F84A2B4390420ED031
:1016E000F74A90420BD0B0F1804F08D0F54A9042B3
:1016F00005D0F54A904202D0F44A904202D124F03B
:10170000020201E024F00A020A4342F001010383CD
:10171000018470BD2DE9F84F0D4604460888E74F57
:10172000DFF89CC3DFF89C83DFF89C934988AA8884
:101730002B894FF0804A48B304282FD04FF6FF760C
:101740000828934632D0208C9E4620F48050208476
:10175000A38B208C06EA0132009223F4734306EA3D
:101760000B221A4306EA0E331343BC420AD06445E7
:1017700008D0544506D0444504D04C4502D0D34A45
:10178000944242D120F40050009940E02046FFF7F7
:1017900095FFE9882046BDE8F84F87E72046FFF728
:1017A00032FFE9882046BDE8F84F20E7208C20F47E
:1017B00080702084B4F81CE0208C06EA031306EA4B
:1017C00001222EF0F30E43EA0B0343EA0E030092CC
:1017D000BC420AD0644508D0544506D0444504D0E4
:1017E0004C4502D0B94A944203D120F400700099CC
:1017F00001E020F42060084340F48070A38320843B
:10180000E9882046BDE8F84FE9E620F402400843A5
:1018100040F48050A3832084E9882046BDE8F84F37
:10182000D1E62DE9F0410C460026498807460125FE
:1018300001B90226A288012A00D102252088238925
:101840000028384610D0FFF7DEFEE1883846FFF763
:10185000CEFE23892A4631463846FFF72FFFE1881E
:101860003846BDE8F04121E7FFF728FFE188384618
:10187000FFF71CFF23892A4631463846FFF7C3FE8F
:10188000E1883846BDE8F041B1E610B50A884B88DA
:10189000CC881A438B8823431A430B891A434B89FC
:1018A00089891A430A43A0F8442010BD4FF6FF71FE
:1018B000818000210180C180418001727047002138
:1018C000018041808180C180018141818181C1810C
:1018D000704700210180418001228280C180018106
:1018E00070470021018041808180C1800181418158
:1018F000818170470029018802D041F0010101E097
:1019000021F0010101807047002930F8441F02D006
:1019100041F4004101E0C1F30E0101807047002A4B
:10192000828901D00A4300E08A4382817047818224
:1019300070471143A0F848107047002A828901D0EF
:101940000A4300E08A4382817047018921F0070140
:1019500001817047028922F070020A4302817047B8
:1019600000B50346FFF7F6FF188940F0070018811D
:1019700000BD70B516460D46602904464FF00102C1
:1019800031460AD0FFF79AFE29462046FFF7E2FFCC
:10199000208940F00700208170BDFFF734FEF3E797
:1019A00030B504894FF6FF7505EA03231343E4B20B
:1019B0000B432343038130BD10B50446FFF7F0FF0E
:1019C000208940F07700208110BD10B50446FFF754
:1019D000E7FF208940F48040208110BD018582828C
:1019E0007047028822F070020A430280704770B587
:1019F0000589048B068C25F007050D434FF6FC4145
:101A00000C4040F201110C434FF6FF7101EA031143
:101A100026F022061143314305810483018470BD01
:101A2000028B22F070020A4302837047028B4FF64A
:101A3000FF7322F4E04203EA01211143018370475E
:101A4000828B22F070020A4382837047828B4FF6AA
:101A5000FF7322F4E04203EA0121114381837047BE
:101A60000029018802D041F0800101E021F08001CD
:101A7000018070470029818802D041F0040101E013
:101A800021F00401818070470029818802D041F053
:101A9000080101E021F00801818070470029818858
:101AA00002D041F0010101E021F001018180704785
:101AB000028B22F008020A4302837047002C014087
:101AC000003401400004004000080040000C0040C9
:101AD000028B4FF6FF7322F4006203EA01211143E7
:101AE0000183EAE7828B22F008020A438283E4E75B
:101AF000828B4FF6FF7322F4006203EA0121114347
:101B00008183DAE7028B22F004020A430283D4E7DE
:101B1000028B4FF6FF7322F4806203EA0121114326
:101B20000183CAE7828B22F004020A438283C4E75E
:101B3000828B4FF6FF7322F4806203EA0121114386
:101B40008183BAE7028B22F080020A430283B4E762
:101B5000028B4FF6FF73C2F30E0203EA0121114319
:101B60000183AAE7828B22F080020A438283A4E7E2
:101B7000828B4FF6FF73C2F30E0203EA0121114379
:101B800081839AE7028C22F002020A43028494E7DE
:101B9000028C22F008020A4302848EE7028C4FF680
:101BA000FF7322F0200203EA01111143018484E74C
:101BB000028C4FF6FF7322F0800203EA01111143F9
:101BC00001847AE7028C4FF6FF7322F4007203EA75
:101BD00001211143018470E7028C4FF6FF7322F458
:101BE000006203EA01211143018466E7028C4FF68B
:101BF000FF7322F4005203EA0131114301845CE7D0
:101C000010B50123048C8B409C430484038C8A40D0
:101C10001343038410BD10B50423048C8B409C43F4
:101C20000484038C8A401343038410BD30B501241F
:101C3000058C00F118038C40A543058489B108295F
:101C40000FD0091FC1F34E001844016821F4E04190
:101C5000016001684FF6FF7303EA0222114301603D
:101C600030BD03EB5100016821F070010160016893
:101C7000F4E70029018802D041F0020101E021F0DF
:101C80000201018019E70029018802D041F0040116
:101C900001E021F0040101800FE70029818802D0D2
:101CA00041F0800101E021F08001818005E7028898
:101CB00022F00802028002880A430280FDE6828840
:101CC00022F07002828082880A438280F5E60289CF
:101CD00022F00702028102890A430281EDE60289AD
:101CE00022F08002028102890A430281E5E68184B2
:101CF000E3E68185E1E68186DFE60187DDE681872F
:101D0000DBE6A0F84010D8E6028822F44072028098
:101D100002880A430280D0E6808ECEE6008FCCE6B1
:101D2000808FCAE6B0F84000C7E6808CC5E6008D1B
:101D3000C3E602460020128A0A4200D00120BCE617
:101D4000C9430182B9E602460020138A92890B42F8
:101D500002EA010202D0002A00D00120ADE6C94308
:101D60000182AAE6C44910B588420AD101218C0338
:101D70002046FFF742FA2046BDE810400021FFF759
:101D80003CBABE49884202D101214C0410E0BC4952
:101D9000884202D101218C040AE0BA49884202D16A
:101DA0000121CC0404E0B84988420AD101210C0584
:101DB0002046FFF72BFA2046BDE810400021FFF730
:101DC00025BA10BD30B50446008A85B00D464CF6E4
:101DD000FF710840E98801432182A0894EF6F31182
:101DE0000840A9882A8911436A8902431143A181C5
:101DF000A08A4FF6FF410840A9890143A1826846A5
:101E0000FFF79EF99C48844201D1039800E00298B4
:101E1000A189090400EBC00101EB0010296801D57C
:101E2000490000E08900B0FBF1F06422B0FBF2F160
:101E300009010B096FF018056B4300EB8300A389C0
:101E40001D044FF0320306D503EBC000B0FBF2F0E7
:101E500000F0070005E003EB0010B0FBF2F000F02B
:101E60000F000843208105B030BD4FF416510160CA
:101E700000218180C18001810C22428181817047D3
:101E800010B5028A4FF2FF031A400B884C88234397
:101E90008C88C9880C4323431343038210BD00215F
:101EA000018041808180C18070470029818902D0F2
:101EB00041F4005101E021F400518181704710B5D7
:101EC000C1F3421301F01F040121A140012B07D0EF
:101ED000022B07D01430002A026805D00A4304E020
:101EE0000C30F8E71030F6E78A43026010BD002A94
:101EF000828A01D00A4300E08A4382827047028AC4
:101F000022F00F020282028A0A430282704782890B
:101F100022F40062828182890A438281704700290B
:101F2000818902D041F0020101E021F002018181AA
:101F30007047028A22F020020282028A0A43028249
:101F400070470029018A02D041F4804101E021F468
:101F5000804101827047C1F3080181807047808809
:101F6000C0F308007047818941F001018181704709
:101F7000028BD2B20283028B42EA012101837047B5
:101F8000028B02F47F420283028B0A430283704772
:101F90000029818A02D041F0200101E021F02001D6
:101FA000818270470029818A02D041F0100101E04E
:101FB00021F01001818270470029818A02D041F00E
:101FC000080101E021F00801818270470029818920
:101FD00002D041F4004101E0C1F30E01818170475C
:101FE0000029818A02D041F4006101E021F40061FE
:101FF00081827047828A22F004028282828A0A43A6
:10200000828270470029818A02D041F0020101E0FA
:1020100021F00201818270470246002012880A42A4
:1020200000D001207047C9430180704770B501F0AE
:102030001F0501260024C1F3421306FA05F2012B05
:102040000FD0022B0FD0838A4FEA11210088134250
:1020500006FA01F600EA060001D000B1012420468C
:1020600070BD8389F0E7038AEEE70A0A01219140F7
:10207000C94301807047000000380140004400401F
:1020800000480040004C00400050004010B56FF088
:102090000400FEF7A8F9204820490068B0FBF1F0E1
:1020A0001F49C0B200EB40020870C2EBC0104FF6EF
:1020B000FF7202EAC000488010BD19490978484300
:1020C0004FF0E021486100238B61086940F0010076
:1020D00008610869C20701D0C003FAD5086920F079
:1020E000010008618B6170470D49498848434FF0F2
:1020F000E021486100238B61086940F0010008611C
:102100000869C20701D0C003FAD5086920F00100B0
:1021100008618B61704700000000002000127A0007
:10212000AC000020704A11400143704801607047C4
:1021300007216E4A8143121D10684FF6FF031840B5
:102140006B4B184340EA012010607047F0B505461C
:1021500014460F461E461846FFF7EAFFC6F1040074
:1021600085400F22F2403A402A436009800000F186
:10217000E020D0F8001104F01F050123AB40194303
:10218000C0F8001104F1E02494F8000440EA0210C1
:1021900084F80004F0BD70B5564D8B088C07AE690D
:1021A000240F46F00106AE619D00534B2B449E6800
:1021B0000F25A540AE439E609D68A04005439D60ED
:1021C0004E4B1C680120884004431C60D10704D09A
:1021D0004A490C310B6803430B60910704D5474A09
:1021E000083211680143116070BD4248002101614D
:1021F000C160142242618161C161026842F0010242
:10220000026042683E4B1A40426002683D4B1A40F1
:102210000260026822F480220260426822F4FE0218
:1022200042608160C0037DE730480830016841F0BA
:10223000040101602F48C16941F08051C1613248F9
:10224000416841F480714160016841F0040101601E
:10225000016841F002010160FDF754BF24482349A1
:10226000001D091D0860704741062248826942F03E
:10227000010282612048426822F0E06242604268C6
:102280000A434260704730B505460024FFF7ADFFB2
:102290001849086840F4803008600868400CFCD099
:1022A0004FF480604860AD1E4A68E8B242EA804060
:1022B0004860486840F4803048601448026842F042
:1022C00032020260086840F0807008600868400EC2
:1022D000FCD0486840F00200486002E04868C0F363
:1022E0008104022CFAD130BD80FFFF1F08ED00E011
:1022F0000000FA0500100240000001400004014007
:102300000000FFF8FFFFF6FE0070004000200240D2
:102310007047FB490A885206FCD5F94AC1B2121D22
:102320001180704730B5044687B0012144F20400A3
:10233000FEF751FF4FF40070ADF8100003208DF848
:1023400012001820EF4D8DF8130004A92846FEF75F
:1023500004FD2815ADF8100004208DF8130004A921
:102360002846FEF7FAFC25208DF8140001218DF88F
:1023700015108DF816108DF8171005A8FDF7F3FF4E
:102380000020ADF804000094ADF80600ADF8080098
:10239000ADF80C000C20DA4CADF80A006946204676
:1023A000FFF710FD012240F225512046FFF787FD7F
:1023B00001212046FFF779FD07B030BDD049091D46
:1023C0000880081F01884906FCD57047CE4800B533
:1023D00000780022012807D1CC4B985CFFF7EEFF74
:1023E000521CD2B2102AF8D3C9480078012809D16A
:1023F000C64B00221033985CFFF7E0FF521CD2B2AC
:10240000092AF8D300BDC3490880081F018849067E
:10241000FCD57047BD4B00B500221033985CFFF728
:10242000F2FF521CD2B2092AF8D300BD000482B0D8
:1024300000EB01201044009002B003F023BC70B503
:102440000446084603F01EFC0546200203F01AFC71
:10245000294603F09BF9BDE87040AF4903F020BA6C
:1024600070B50446084603F00DFC0546200203F053
:1024700009FC294603F08AF9BDE87040A64903F03B
:102480000FBA02460020A14B10B50146193306E0F1
:10249000092A07D05C18E47A6040491CC9B291420D
:1024A000F6D310BD5C5CF7E710B501EB002003F03C
:1024B000E9FBBDE81040984903F0F2B92DE9F05F5F
:1024C0008F4D40F2255421462846FFF7AFFD0028E6
:1024D0007ED02846FFF743FD00F0FF08214628463E
:1024E000FFF7C3FD8D480127DFF8349200788D4E49
:1024F000DFF834A28D4D012833D0002868D18C48F4
:102500000078012864D18B49804C0878193422184E
:10251000B8F17A0F82F80B8001D0002874D0401CEB
:10252000C0B20870102853D14FF0000C81F800C0E1
:10253000A07E7B284CD10E20FFF7A3FF617E88424E
:1025400046D17D49DFF8C081E346C1F800C0207B59
:10255000083808287FD2DFE800F0D1D0CFCECDCC2C
:10256000CBCA73480078002875D17249674C087847
:102570001934B8F17B0F04F8008001D00028CDD0C9
:10258000401CC0B208700B2865D14FF0000B81F8D9
:1025900000B06A496078097888425CD1A07A7D28C9
:1025A00059D10920FFF76DFF617A884253D1624902
:1025B000C1F800B0A07889F80000F8B1604BE1786C
:1025C0000128197094F804C08AF800C00DD000E00A
:1025D00041E0022819D003287ED004283BD1A179FC
:1025E0006079FFF761FF57490860217AE079FFF7CA
:1025F00037FF03F0CFFB544A544B12E154480078A4
:1026000089F800004248E9E0EAE052480078D8281A
:1026100023D00029A179607967D0FFF710FF2968DE
:1026200003F009F92860217AE079FFF719FF03F038
:10263000B1FB454A454B03F096FA03F0BEFB10F0A0
:10264000FF4F306007D1424899F80010007881426E
:102650004CD0C5F800B0BDE8F09F0029A1796079A1
:1026600021D0FFF7ECFE03F095FB074688469AF869
:10267000000003F01DFB384A384B03F002FA6FF0FC
:10268000040203F0DFFA3A46434603F0FAF907463C
:102690008846286803F07EFB3A46434603F0EBF990
:1026A00003F08BFBBEE7FFF7CAFE03F073FB0746A0
:1026B00088469AF8000003F0FBFA274A274B03F0FC
:1026C000E0F96FF0040203F0BDFA43463A4603F026
:1026D000D8F90746884600E053E0286803F05AFB23
:1026E00043463A4603F026F9DAE739E03EE067E18F
:1026F00033E19DE083E07FE074E088E15DE100008C
:1027000000380140000801401D0000203401002075
:102710001F00002004440040000020415C00002015
:10272000150000204400002040000020340000205C
:102730005D000020B0000020F400002025000020F3
:1027400016000020300000201F85EB51B81E1940F4
:10275000C40000201C0000209E7B0F971CC7314046
:10276000FFF76DFE296803F011F85BE79AF80000A7
:1027700003F09EFA0022FB4B03F083F904460E4659
:102780008EE0F948A1790078DC28607909D3FFF759
:1027900056FEF64903F052F803F0FCFAF44AF54B02
:1027A00008E0FFF74CFEF14903F048F803F0F2FAB5
:1027B000F14AF24B03F065F903F0D3FAF0490880CF
:1027C000217AE079FFF74CFE03F0E4FAED4AEE4B94
:1027D00003F0C9F903F0F1FA3060EC4807703AE70A
:1027E000002012E1042189F80010E949607B08709B
:1027F0004FF0804030602EE7607BE64905E189F8C4
:102800000070E549607B087002280FD081F800B0A5
:10281000E17BA07BFFF724FE03F0BCFA4FF06632A9
:10282000DE4B03F0A0F903F0C8FAE3E70F70EFE71F
:102830000221D94F89F80010607B3870E17BA07BC2
:10284000FFF70EFE03F0A6FA4FF06632D34B03F00B
:102850008AF903F0B2FA3060C3480078D828387893
:102860002ED00128617C207C71D0FFF7E8FD29681B
:1028700002F0E1FF2860306810F0FF4FAFD1C84888
:1028800099F80010007881427FF4E3AE9AF80000D6
:1028900003F00EFA0022B34B03F0F3F80E460446A1
:1028A000C048006803F076FA2246334603F0E9F8A0
:1028B0000022BD4B03F057F903F07FFA2860CAE607
:1028C0000128617C207C21D0FFF7B9FD03F062FA7A
:1028D00004460F469AF8000003F0EAF9B34AB44BF5
:1028E00003F0CFF86FF0040203F0ACF922463B4648
:1028F00003F0C7F804460F46286803F04BFA224657
:102900003B4603F0B8F803F058FAB3E7FFF797FD3A
:1029100003F040FA04460F469AF8000003F0C8F9A5
:10292000A24AA34B03F0ADF86FF0040203F08AF95A
:1029300022463B4603F0A5F804460F46286803F0FC
:1029400029FA22463B4602F0F5FFDCE7FFE7FFF7F6
:1029500076FD296802F01AFF8CE78348954DA17B2C
:102960000078D828607B15D0FFF769FD7F4902F019
:1029700065FF03F00FFA7E4A7E4B03F082F803F006
:10298000F0F928800004000C0ED080490F707C49BB
:10299000088060E6FFF753FD744902F04FFF03F033
:1029A000F9F9754A754BE8E77849834881F800B032
:1029B00089F80070C6F800B0077088F800704AE621
:1029C00072480770617B8AF800107C49A07B087010
:1029D000627C217CE07BFFF729FD03F08FF97849C9
:1029E0000860227DE17CA07CFFF720FD03F086F9E2
:1029F000744908607449607D08707449A07D08704E
:102A00007349E07D0870207E7249087023E6607B80
:102A10007149FAE730B50446012187B04804FEF752
:102A2000E3FB01210420FEF7D6FB0420ADF81000E3
:102A300003208DF812001820684D8DF8130004A9AA
:102A40002846FEF78AF90820ADF8100048208DF8D6
:102A5000130004A92846FEF780F926208DF81400FB
:102A600001218DF815108DF816108DF8171005A896
:102A7000FDF779FC0020ADF804000094ADF80600E5
:102A8000ADF80800ADF80C000C20554CADF80A006C
:102A900069462046FFF796F9012240F2255120466B
:102AA000FFF70DFA01212046FFF7FFF984E42DE935
:102AB000F05F4B4C40F2255631462046FFF7B6FA00
:102AC00000284ED02046FFF74AFAC5B231462046CC
:102AD000FFF7CBFA4449434C002648787B2D255418
:102AE00000D0E0B3401CC0B248700B2839D14E7002
:102AF000324960780978884233D1A07A7D2830D174
:102B00000920FFF7BEFC617A88422AD13749384A4A
:102B1000DFF88CB00E60A078B24610700125F8B1D5
:102B20001D4BE178334F19702379334E3B700128E8
:102B30000CD00D4A022872D003286FD0042810D17F
:102B4000A1796079FFF7B0FC2C490860217AE0791F
:102B5000FFF786FC03F01EF90A4A0B4B50E055E0E4
:102B600056E052E0000069401C00002000002041B7
:102B7000736891ED7CDF414096438B6CE7DB43400B
:102B8000480000201F85EB51B81E19401E00002090
:102B900058000020590000201600002066664F40B3
:102BA000C40000203800002000409F409E7B0F970B
:102BB0001CC731404A0000205A0000202500002098
:102BC0006800002020000020140000205400002095
:102BD00055000020560000205E0000200008014043
:102BE000004400404D010020B0000020F40000200F
:102BF000150000204000002044000020300000208C
:102C000002F0B1FF03F0D9F8306024E54E7022E500
:102C10009BF800001070BB48AFE000E089E010783E
:102C2000B94DD82822D00029A179607962D0FFF768
:102C300006FC296802F0FFFD2860217AE079FFF7A1
:102C40000FFC03F0A7F8B14AB14B02F08CFF03F080
:102C5000B4F810F0FF4F3060D7D1AE4801789BF840
:102C6000000081424CD0C5F800A0F4E40029A1790D
:102C7000607920D0FFF7E3FB03F08CF880468946AB
:102C8000387803F015F8A44AA44B02F0FAFE6FF06E
:102C9000040202F0D7FF42464B4602F0F2FE8046A5
:102CA0008946286803F076F842464B4602F0E3FE78
:102CB00003F083F8C0E7FFF7C2FB03F06BF881462F
:102CC0008846387802F0F4FF934A944B02F0D9FE1C
:102CD0006FF0040202F0B6FF4A46434602F0D1FE0E
:102CE00080468946286803F055F842464B4602F074
:102CF00021FEDDE7FFF7A3FB296802F047FD9BE714
:102D0000387802F0D5FF0022854B02F0BAFE044667
:102D100084480E46006803F03DF82246334602F030
:102D2000B0FE0022804B02F01EFF03F046F8286040
:102D300091E41078DFF8F481D8287D4FA17960798B
:102D40001DD0FFF77CFB414602F078FD03F022F82E
:102D5000784A794B02F095FE03F003F83880217A27
:102D6000E079FFF77DFB03F015F8684A684B02F045
:102D7000FAFE03F022F83060704805706BE4FFF74C
:102D80005EFB414602F05AFD03F004F86C4A6D4BBD
:102D9000E0E710B504460020024603E08B5C584093
:102DA000521CD2B2A242F9D310BD2DE9F041664BBC
:102DB00066487A221E787B250178654C012E21D049
:102DC0006448227061700078A07063480078E070F9
:102DD00062480068010C2171010A6171A0716048AC
:102DE0000068010CE171010A217260725D4800788F
:102DF000A0725D480078E0725C48007820735C48FF
:102E000000782CE00020187022706070A070E070D4
:102E100020716071A071E07120726072A072E07226
:102E20004348544EDC29008804D302F041FF414A54
:102E3000414B04E002F03CFF424B4F4A413B02F061
:102E400092FE8846074602F08CFF000A207338463F
:102E500041460022334602F06DFD02F082FF6073AE
:102E60003B490E20FFF795FFA073E573BDE8F081A5
:102E700070B53948364C0021103400782070254850
:102E80000578022D2BD061703C483D4B02689A4278
:102E900000DA0160254E0068314602F0CFFC02F0F6
:102EA0002DFF010AA170E070042D1CD02748017885
:102EB0001C48D82900681AD0324902F0BFFC02F041
:102EC00004FF010E2171010C6171010AA1712049F9
:102ED000E07110310820FFF75CFF207270BD2A48B6
:102EE00000786070D0E7294831460068E5E780F057
:102EF000004002F04FFF264A264B02F0C2FD02F0CE
:102F000011FFDEE71F000020340000201F85EB5179
:102F1000B81E1940150000209E7B0F971CC731403A
:102F2000000069403800002000409F400000204120
:102F300048000020736891ED7CDF41401E000020B6
:102F40005C8FC2F528DC43405A0000201C000020A2
:102F500034010020400000202500002068000020EF
:102F60002000002014000020540000205500002004
:102F7000560000200000F03F96438B6C8800002034
:102F8000CDCC4C3E000020C15F0000207800002026
:102F9000CDCCCCCCCCCCFC3F08B501210C20FEF72D
:102FA0001AF928208DF803004FF40040ADF8000016
:102FB00069469848FDF7D1FE08BD2DE9FF41012182
:102FC0000846FEF708F901211420FEF704F9282627
:102FD0008DF80F600124ADF80C4003A98E48FDF771
:102FE000BCFE8DF80F604FF40058ADF80C8003A9BB
:102FF0008A48FDF7B2FE0120FDF796FF0020FEF79C
:1030000085F80020FDF70EFA0020FDF78DFF002166
:103010000846FDF756FF00258DF804500C278DF863
:10302000057000948DF806406846FDF7D9FD06202E
:103030008DF808008DF809408DF80A508DF80B4086
:1030400002A8FDF790F90D210220FDF73AFF8DF857
:1030500004508DF80570CDF800808DF80640684664
:10306000FDF7BEFD8DF808608DF809408DF80A5017
:103070008DF80B4002A8FDF776F9BDE8FF8168489E
:1030800010B5D0F8340170B96648684C01786648CC
:10309000D82900680CD0664902F0D0FB02F015FE7A
:1030A00002F0E7FD206063494FF40050086010BD56
:1030B000614902F0C3FB614902F0BAFB604902F0CA
:1030C000B7FB02F002FEC11700EBD1605D49401171
:1030D00009784843E4E75C4810B5D0F8000150B9DE
:1030E0005A48524C0178491C01704E480078D82843
:1030F00006D057482060BDE810400120FDF7CEBD46
:1031000050480078A0EB401002F0B3FDF2E75148C0
:1031100010B5D0F83C41002301204F494F4A012C03
:1031200002D00B70107010BD0870137010BD2DE927
:10313000F05F3C484A4D002601783B4F3B4C2878D5
:10314000DFF8D890DFF8D0A04FF40058D82910D07D
:10315000E8B301215046FDF756FE002807D10121B2
:103160005046FDF750FE002801D126602E70BDE8C4
:10317000F09FDFF8D0B098B101215046FDF743FE33
:103180000028F4D101215046FDF73DFE0028EED184
:103190009BF80000A0EB401002F06BFD2060E5E71B
:1031A00041464846FDF72FFE0028E0D141464846FB
:1031B000FDF729FE0028DAD11F49386802F03EFBEE
:1031C0001E4902F035FB1E4902F032FB00E009E027
:1031D00002F07BFDC11700EBD1609BF8001040119D
:1031E000484311E041464846FDF70DFE0028BED198
:1031F00041464846FDF707FE0028B8D10C4938681B
:1032000002F01CFB02F061FD02F033FD20600120A2
:103210002870ACE7000C014000080140001001409C
:10322000000022421C00002050000020340000203A
:103230000000B4C3140401400000C8C500001644D7
:103240000000C8424000002000002142F800002099
:103250000000A0C1008021425C0000205D00002031
:103260001700002008B501210820FDF7B4FF4FF436
:103270008040ADF8000010208DF8030003208DF889
:10328000020069460B48FDF768FD08BD10B50A4B02
:10329000002460B1094A1168491C1160814205D1BE
:1032A000D3F8B801C043C3F8B801146010BDC3F827
:1032B000B84110BD000C014000802142B400002044
:1032C00070B50D46044601218AB00846FDF78CFF13
:1032D00001210820FDF77FFF01210846FDF77BFF54
:1032E0000121C348FDF7C4FD4FF48062ADF82020F2
:1032F00018228DF8232003208DF8220008A9BD484C
:10330000FDF72BFDADF814400024ADF810504FF040
:103310008046ADF81640ADF8124004A93046FEF7DD
:1033200041F83020ADF800000125ADF80250ADF8AD
:103330000640ADF8084069463046FEF7DDF81C202F
:103340008DF81C008DF81D508DF81E508DF81F5003
:1033500007A8FDF708F808213046FEF700FD012216
:1033600008213046FEF7DBFA01213046FEF7C2FAAB
:103370000AB070BD30B5012189B00846FDF734FFB1
:1033800001210820FDF727FF01210846FDF723FF53
:1033900001219748FDF76CFD4FF40060ADF81C006B
:1033A00018208DF81F0003208DF81E0007A99148F2
:1033B000FDF7D3FC4FF6FF70ADF814000E20ADF80A
:1033C000100000244FF08045ADF81640ADF81240D3
:1033D00004A92846FDF7E6FF6020ADF800000120B3
:1033E000ADF80200ADF80640ADF808406946284641
:1033F000FEF7BCF808212846FEF77AFB0121284693
:10340000FEF778FA48F6A2312846FEF77AFC09B0B2
:1034100030BD2DE9F84F01210C20FDF7DCFE4FF403
:103420008077ADF800700420734E8DF80300694674
:103430003046FDF792FC39463046FDF7E4FC844601
:103440006C48DFF8B8812022802381146C4C102551
:103450004FF001094FF0020ABCF1010F6BD04FF0A1
:10346000D80C88F800C02060A180A662A385A66061
:10347000A5812661A282A061A4F81CA02062A4F804
:1034800024902663A786A089ADF800008DF803502C
:1034900003268DF802606946A068FDF75EFCA08AED
:1034A000ADF800008DF803508DF802606946206980
:1034B000FDF753FCA08BADF800008DF803508DF89C
:1034C00002606946A069FDF748FCA08DADF80000D8
:1034D0008DF803508DF802606946A06AFDF73DFC47
:1034E000A08CADF800008DF803508DF8026069469D
:1034F000206AFDF732FCA088ADF800008DF803507B
:103500008DF8026069462068FDF727FCA08EADF8B3
:1035100000008DF803508DF802606946206BFDF7BE
:103520001CFCA18C206AFDF782FCA18DA06AFDF72E
:103530007EFCBDE8F88FDC2788F800702660A2804A
:10354000A662A385A060A4F80C902061A4F814A042
:10355000A061A1832662A58420634020A08692E713
:1035600010B502462548264C0378A189A068DC2BBB
:103570002ED3082A0FD004DC022A05D0042A31D128
:1035800033E0102A2ED112E0FDF753FCA18A206906
:10359000FDF74DFC05E0FDF74AFCA18A2069FDF727
:1035A00048FCA18BA069BDE81040FDF742BCFDF7C7
:1035B0003EFCA18A2069FDF73CFC03E0A18A20695A
:1035C000FDF735FCA18BA069BDE81040FDF72FBCCD
:1035D000082A0AD004DC022ADDD0042AE7D0D3E787
:1035E000102AD1D1FDF723FCE8E7FDF722FCE5E73F
:1035F00000021800000C0140000801401C000020DF
:10360000FC000020F8B501210C20FDF7E4FD282086
:10361000ADF800001024864E8DF8034003258DF888
:10362000025069463046FDF798FB4020ADF8000097
:103630008DF803408DF8025069467E48FDF78DFBFA
:10364000ADF8004004208DF8030069463046FDF7D0
:1036500084FB08213046FDF7EAFBF8BD2DE9F04177
:103660000024734E0746254638064FF020013046A9
:1036700002D5FDF7DCFB01E0FDF7DBFB082130465E
:10368000FDF7D7FB0120FEF718FD08213046FDF7B6
:10369000CEFB7806070E6D1C082DE5DB00256006C5
:1036A000040E08213046FDF7C4FB0120FEF705FD9E
:1036B00008213046FDF7BBFB10213046FDF7A3FB88
:1036C000012801D1641CE4B26D1C082DE7DB204603
:1036D000BDE8F08170B5574D40212846FDF7A9FBA4
:1036E0000120FEF7EAFC8320FFF7B8FF06464021E1
:1036F0002846FDF79CFB0120FEF7DFFC4021284611
:10370000FDF797FB0120FEF7D8FC8420FFF7A6FF0A
:10371000044640212846FDF78AFB0120FEF7CDFC38
:10372000B00140EA940002F0C3FA6FF00D0202F01B
:1037300089FA0022404B02F0A4F9BDE8704002F083
:103740003CBB30B589B001210420FDF74DFD0121BE
:103750000820FDF740FDC020ADF81C0048208DF882
:103760001F0007A93248FDF7F8FA6846FEF79EF8F1
:1037700000244FF6FF70ADF80400304DADF8004066
:10378000ADF80640ADF8024069462846FDF70AFE4E
:1037900000231A4603212846FEF729F904A8FEF75C
:1037A00098F80A20ADF8180004A92846FDF7B2FFE2
:1037B0001E208DF80C0001208DF80F008DF80D40B3
:1037C0008DF80E4003A8FCF7CEFD01212846FEF738
:1037D000B7FA012211462846FEF7A1F80021284633
:1037E000FEF785FA01212846FEF784F809B030BDBE
:1037F0001248243000881249098800EB01407047C4
:1038000010B50E4C01212046FEF793FA01280ED187
:1038100021882046CA060A490A6801D5521E00E0DE
:10382000521C0A60BDE810400121FEF798BA10BD95
:10383000000C014000080140008076400008004074
:103840002800002070B50D46044688B001210220F2
:10385000FDF7CAFC01210420FDF7BDFC4022ADF8B4
:103860001C2018228DF81F2003208DF81E0007A9A8
:103870007948FDF772FAADF804400024774EADF8B0
:103880000050ADF80640ADF802408DF8084069469A
:103890003046FDF787FD0125ADF80C40ADF810501E
:1038A000ADF80E40ADF81240ADF8144003A9304613
:1038B000FDF730FF1D208DF8180002218DF819103A
:1038C0008DF81A108DF81B5006A8FCF74CFD01224C
:1038D00002213046FEF723F802213046FEF73FFA78
:1038E00001213046FEF706F808B070BD2DE9F0471B
:1038F0005B4C002501266088DFF86081DFF85C9171
:10390000564F1E2808F1240809F134094FF002012E
:1039100038461FD2FEF717FAA8B3207810B1012855
:1039200031D103E02670A8F800502CE0B9F800006F
:103930006278616801EB0241084460606188491C5B
:1039400089B261801E2902D1B0FBF1F06060657020
:10395000257018E0FEF7F7F9A8B1207810B101281A
:1039600011D104E02670A8F80050022108E0B9F84F
:103970000000617800EB0140A060657025700021B7
:103980003846FEF7FFF801213846FEF7DCF928B18A
:103990002078012802D16078401C60703846BDE86C
:1039A000F0470321FEF7DBB92DE9F04700248046FC
:1039B0002546DFF8B09018E0294F786802F062F9E8
:1039C0000646B86802F05EF9314601F069FF4946E3
:1039D00001F034FF4FF07E5101F02AFF294601F03B
:1039E000D5FE054600BF641CA4B240464445E3D35F
:1039F00002F048F90146284601F052FF494601F01D
:103A00004FFF194E314601F019FF05461748184C73
:103A10000178012902D10021256001702846216822
:103A200002F0F2F904D32846216802F0E3F902D14A
:103A30002846216804E03146284601F0A7FE2168A7
:103A400001F0F6FE3146884203DDBDE8F04701F0A3
:103A5000EFBEBDE8F0870000000801400004004010
:103A6000B8000020001080450000B4435900002039
:103A70002C0000207FB50D4604460121C802FDF749
:103A8000AAFB0020ADF80440ADF80050134CADF88F
:103A90000200ADF806008DF8080069462046FDF7E3
:103AA00081FC19218DF80C1002218DF80D108DF874
:103AB0000E1001208DF80F0003A8FCF754FC012123
:103AC0002046FEF73DF9012211462046FDF727FF6B
:103AD00001212046FDF70EFF7FBD0000002C0140B4
:103AE0002DE9F047F94D86B0F94E2D680024DDF838
:103AF00038A0B54201D106232EE0F64EB54201D1E1
:103B00000C2329E0A5F57436903E08D0A5F5F436CF
:103B1000483E06D0F04EB54205D13C231CE01823A8
:103B20001AE0302318E0A5F54346503E0ED0A5F527
:103B30009C46203E0CD0A5F51C574FF41676103F3E
:103B400009D0A5F59857883F3ED005E0782303E0DB
:103B50004FF4967300E03346A8B3A1B39AB393B37E
:103B6000491E401E01F0FF0800F0FF09521E5B1EB7
:103B70000121D7B29EB24806FDF736FB0121042091
:103B8000FDF729FB4FF40060ADF810004820D34D3D
:103B90008DF8130004A92846FDF7DFF8A814ADF846
:103BA000100018208DF8130003208DF8120004A9CE
:103BB0002846FDF7D2F8CA4D00212960286840F058
:103BC000010028600CE001E00922C4E7012006B0F2
:103BD000BDE8F087641CA4B2642C01D90220F6E78A
:103BE0002868C007F6D028682860286828602868F8
:103BF00040F0100028602868286028682860B848CD
:103C00001C300160036843EA8A720260036843EA79
:103C100009620260026842EA08520260026842EAEF
:103C200007420260026832430260286820F0010007
:103C300028604FF6F07005E0641CA4B2844201D9FC
:103C40000320C4E72A68D207F6D101248DF80A4080
:103C50008DF80B108DF80C40ADF80410ADF8001085
:103C6000ADF80610ADF808108DF80D406846FCF769
:103C7000A0FC14208DF814008DF815408DF8164026
:103C80008DF8174005A8FCF76EFB0122022128469B
:103C9000FCF7CAFE00209AE7F0B506469048059D5D
:103CA00008300468640101D5002008E0046824019C
:103CB00001D5012003E00068C00046D50220894CF0
:103CC000002704EB0014C4F88075E9B3F600D4F8BB
:103CD00080753743C4F88075D4F8806546EA810161
:103CE000C4F88015D4F8801541EA4201C4F8801563
:103CF000D4F8842503F00F0122F00F02C4F88425C4
:103D0000D4F884250A43C4F884252979EA796B79A3
:103D100041EA0261AA79120442EA03221143C4F87B
:103D20008C152978EA786B7841EA0261AA78120446
:103D300042EA03221143C4F88815D4F8801541F0F3
:103D40000101C4F88015F0BD01E0FF20FBE7760516
:103D5000BDE76349083128B1012810D002281BD0E3
:103D60000520704708680A6800F0010002F00202AE
:103D70000243086800F0806042EA106070470868FB
:103D80000A6800F0010002F002020243086800F035
:103D9000006042EA5060704708680A6800F001005D
:103DA00002F002020243086800F0805042EA90608C
:103DB000704718B1012804D00020704748480C30E3
:103DC00001E047481030006800F003007047F0B58C
:103DD000444CDDE9057504EB0014D4F8B06516F029
:103DE00004061670D4F8B02533D0D2080A60D4F88F
:103DF000B01501F002011970D4F8B41501F00F01EB
:103E00003970D4F8B8152970D4F8B815090A697052
:103E1000D4F8B815090CA970D4F8B815090EE970D2
:103E2000D4F8BC152971D4F8BC15090A6971D4F805
:103E3000BC15090CA971D4F8BC15090EE97150B173
:103E4000012805D126481030016841F020010160A9
:103E500079E7520DCAE722480C30F5E72DE9F04F1B
:103E600089B002A907A8CDE9000106AB05AA04A9FB
:103E70000020FFF7ACFF1C4904980978884221D143
:103E80001A494FF000091A4AC1F800909DF808003D
:103E9000DFF860A0184C1070012378B1174D9DF821
:103EA0000910174E29709DF80A503570154D0528D8
:103EB00008D2DFE800F0062939D2E6009AF80000BF
:103EC0001070237009B0BDE8F08F0000680000207A
:103ED00040420F0020A10700A08601000008014019
:103EE000006400400060004025000020F400002035
:103EF00015000020C40000201F0000201600002034
:103F000040000020440000209DF80E109DF80D0098
:103F1000FEF7A6FA01F03EFFA84AA94B01F023FEE6
:103F200001F04BFF2860CDE7DFF898B2A64C9BF874
:103F30000000D82826D000299DF80C109DF80B0011
:103F400066D0FEF77CFA216801F075FC20609DF8D0
:103F50000E109DF80D00FEF783FA01F01BFF974A43
:103F6000974B01F000FE01F028FF10F0FF4F286092
:103F7000A8D1964801789AF8000081424ED0C4F842
:103F800000909FE700299DF80C109DF80B0020D0B1
:103F9000FEF755FA01F0FEFE07468846307801F03C
:103FA00087FE8B4A8B4B01F06CFD6FF0040201F031
:103FB00049FE3A46434601F064FD074688462068BC
:103FC00001F0E8FE3A46434601F055FD01F0F5FEEA
:103FD000BCE7FEF734FA01F0DDFE0746884630788C
:103FE00001F066FE7A4A7B4B01F04BFD6FF0040254
:103FF00001F028FE3A46434601F043FD0746884655
:10400000206801F0C7FE3A46434601F093FCDDE725
:10401000FEF715FA216801F0B9FB97E79BF800005D
:104020006D4FD82802D0386820604BE7307801F017
:104030003FFE0022694B01F024FD05460E4638681C
:1040400001F0A8FE2A46334601F01BFD0022644B16
:1040500001F089FD01F0B1FEE6E79DF80C109DF836
:104060000B00FEF7ECF95F4901F0E8FB01F092FE6E
:104070005D4A5E4B01F005FD01F073FE5C4908806E
:1040800042E79DF80C109DF80B00FEF70DFA594918
:10409000086039E738B500240B46009022462146D7
:1040A00040F20160FFF7F8FD054640F6FF7301E0BE
:1040B000641CA4B22846FFF74CFE072801D09C429E
:1040C000F6D39C4201D3012038BD002038BD00B595
:1040D000014686B00020FFF76CFE002816D002A82B
:1040E000CDE9000105AB04AA03A90020FFF76FFE8C
:1040F0000398122805D19DF8100010B99DF81400FE
:1041000010B100208DF808009DF8080006B000BD31
:1041100038B500240B4600902246214640F201703B
:10412000FFF7BAFD054640F6FF7301E0641CA4B238
:104130002846FFF70EFE072801D09C42F6D39C428A
:1041400001D3012038BD002038BD38B500240091CE
:10415000082322462146FFF79FFD054640F6FF73E0
:1041600001E0641CA4B22846FFF7F3FD072801D044
:104170009C42F6D39C4201D3012038BD002038BDBB
:1041800038B500240091012322462146FFF784FD23
:10419000054640F6FF7301E0641CA4B22846FFF711
:1041A000D8FD072801D09C42F6D39C4201D30120C0
:1041B00038BD002038BD10490A20C6E768A17454F4
:1041C000FB2119401C0000203400002015000020B5
:1041D0009E7B0F971CC731403800002000006940CB
:1041E00000409F4000002041736891ED7C5F41409A
:1041F000480000203000002044010020D848D74962
:104200004160D84941607047D548016941F080015B
:1042100001617047D248C068C10701D001207047D2
:10422000410701D502207047C00601D50320704721
:104230000020704710B50446FFF7ECFF012803D0BB
:10424000002C00D1FF2010BD0120FDF736FF641EB9
:104250002404240CF0D1F5E770B5054645F6FF7649
:104260003046FFF7E7FF002812D1BD4C206940F02F
:10427000020020616561206940F040002061304605
:10428000FFF7D8FF012803D0216921F00201216145
:1042900070BD70B506460D46FF20FFF7CBFF002826
:1042A0000ED1AF4C206940F0010020613580FF2025
:1042B000FFF7C0FF012803D0216921F0010121612E
:1042C00070BD008870472DE9F04116460F4605463F
:1042D000002407E037F814102846FFF7DAFF641CC3
:1042E000A4B2AD1CB442F5D3BDE8F08110B50023F3
:1042F00005E030F8024B21F813405B1C9BB293425F
:10430000F7D310BD2DE9F05F1546A0F10062884695
:104310008246B2F5803F50D2FFF770FFC2F34806E5
:10432000970AC6F50074A54200D82C46DFF838B2CB
:104330004FF0006000EB872081464FF400728A49FD
:10434000FFF7D4FF00204FF6FF7206E033183BF86A
:104350001310914203D1401C80B2A042F6D3A04278
:1043600024D24846FFF778FF00205A4606E038F886
:1043700010108319401C22F8131080B2A042F6D30B
:1043800048464FF400727849FFF79DFFA54211D0CF
:10439000281B08EB44080AEB440A002685B24FF4B8
:1043A00000747F1CA542C3D82C46C1E72246414673
:1043B0005046E9E7BDE8F05F26E7BDE8F09F13B59A
:1043C000012201A9FFF79EFF1CBD2DE9F84F6649A8
:1043D0000D221A396548FFF789FFDFF88C814FF607
:1043E000FF7CA8F11A08B8F80020624535D0B8F86B
:1043F00002008146604530D0B8F8043063452CD0C7
:10440000B8F806008346604527D0B8F80800824611
:10441000604522D0B8F80A1061451ED0B8F80C00EB
:1044200060451AD0B8F80E70674516D0B8F810601D
:10443000664512D0B8F8125065450ED0B8F8144051
:1044400064450AD0C646B8F81680CDF80080E0452D
:1044500003D0BEF81880E0451FD1454820210170E7
:1044600045484449016045484FF4E1310160444802
:1044700001210170434900200A2208604249087066
:1044800042490A704249087042484EF66021018054
:10449000424841490160BDE8F88FDFF8D4C003EB22
:1044A00009438CF80020344A1360344A0AEB0B436A
:1044B0001360334A117001F0E5FB394901F0F0F95E
:1044C0003049086030480770364806702F4805703C
:1044D0002F4804702F4800990180404601F0D2FB1C
:1044E000314901F0DDF92D490860D4E710B52048C5
:1044F0001D4C343C007820801F480068010C61800E
:10450000A0801E480068010CE18020811C482449DD
:10451000007860811B48006801F090F901F0EEFB23
:10452000A081194820490078E0811E480078208247
:1045300016480078608216480078A08215480088E6
:10454000E0821648006801F079F901F0D7FB20837A
:104550002146BDE810400D220448D3E623016745FB
:1045600000200240AB89EFCD9C01002000E0000854
:104570004000002040420F00680000202000002082
:10458000250000202C0000205400002055000020B1
:1045900056000020480000200000E04044000020B9
:1045A0000000C8421400002000002041002800DA6A
:1045B00040427047FA4810B501214170F949097825
:1045C000012902D1016B491C01630821CC0600229C
:1045D0002046FDF7A4F9002208212046FDF710FB34
:1045E000F148818C006ABDE81040FCF722BC2DE93F
:1045F000F041EE49096801F01EF9ED49E84F044623
:1046000008602146386A01F019F9DFF8A8834146AD
:1046100001F046F9E84D06462046296801F008F900
:10462000796A01F00BF9414601F03AF9314601F09F
:10463000ADF8E24E316801F0A9F830602C60BDE8B9
:10464000F08170B5064600200D460E2405EB84016E
:1046500051F8041C45F8241001F098F8641E14F079
:10466000FF04F3D1014630462E6001F08FF8BDE81B
:104670007040D34901F014B9D249884202DCD249D2
:10468000884200DA084670472DE9F05FCF4D286870
:10469000FFF7F2FFCE492860DFF838830978DFF8AA
:1046A0000CB3CD4FCD4ED8294BD001F073FBCC4A83
:1046B000CC4B01F0E6F901F080FBCBF80000CA48D2
:1046C0000068B0F5000F01DA80F00040FFF78FFFBF
:1046D0008246C8F80000387801F0EAFA8046894638
:1046E000504601F057FBC14AC14B01F0CAF96FF0C7
:1046F000040201F0A7FA42464B4601F0C2F9024615
:104700000B460020BB4901F02EFA0022BA4B01F003
:10471000B8F901F007FBFFF749FFB8493060DBF853
:10472000000008603978B648B64FDFF8DC824FF0F9
:104730008142082973D06DDC022973D0042970D11D
:1047400081E0B24901F07AF8B14901F0A9F8CBF85B
:104750000000DFF8C0B2DBF8000001F08AFAAE49D1
:10476000096801F068F801F0B0FAFFF71FFFAB49E4
:104770000528086002DDAA4B00221A7001F079FAC0
:10478000FFF735FF8146C8F80000387801F090FA4D
:1047900080468A46484601F0FDFA944A944B01F05F
:1047A00070F96FF0040201F04DFA4246534601F0F1
:1047B00068F902460B4600208E4901F0D4F9002228
:1047C0008D4B01F05EF901F0ADFAFFF7EFFE3060BE
:1047D0009248006801F04DFA8D4901F02FF88B499D
:1047E00001F05EF801F0D6FA8E4A8F4B01F049F9DC
:1047F00001F0E3FADFF8F0818C49C8F80000FFF718
:1048000020FFC8F800008448006801F05EFACBF889
:10481000000087E7102933D0202953D142E022E05D
:1048200000E04FE02968914206DA01F039F80421EE
:1048300001F074F87E4940E001F032F8042101F003
:104840006DF87C4939E02968914206DA01F028F8D0
:10485000032101F063F878492FE001F021F80321EA
:1048600001F05CF828E02968914205DA01F018F8B7
:10487000022101F053F81BE001F012F802210DE0D3
:104880006E4A2968914206DA01F00AF8012101F026
:1048900045F86B4911E001F003F8012101F03EF801
:1048A00041460AE02968B1F1804F03DA00F0F8FFD1
:1048B000574902E000F0F4FF394600F0B9FF01F07B
:1048C0001DFA84B23068A04202DA5E490120087005
:1048D000BDE8F09F324810B54178012913D100217D
:1048E00041700821CC0601222046FDF718F801226C
:1048F00008212046FDF784F92B48818C006ABDE829
:104900001040FCF794BA10BD274902000868898856
:1049100001D0FCF78CBAFCF78CBA2DE9F0414A497A
:10492000096800F088FF80460146204600F02EFF0F
:1049300046490446884201DD0C4603E0444884426F
:1049400000D904461A482946006800F071FF144D4A
:10495000A96900F073FF174F394600F0A1FF064622
:104960002146E86900F06AFF394600F099FF0446E5
:104970004146686900F062FF394600F091FF214628
:1049800000F004FF314600F001FFBDE8F04101F006
:104990009CB910F1FF4F01D380F000407047000038
:1049A000C400002054000020FC0000207C000020F7
:1049B0009400002000007A44900000208C00002029
:1049C000000070410000E040CDCC4C3D4400002090
:1049D0001C00002084000020400000206000002017
:1049E000E5CAEA67FB211940880000209A99999945
:1049F000999909400000244000C0B2408000002086
:104A000000803B440000C842000048420000FA44D5
:104A1000000048437400002038000020700000208F
:104A2000180000201F85EB51B81E19409C0500207E
:104A3000000048440000C843000096430000404086
:104A400000001643570000203C0000200000A04159
:104A50000000A0C12DE9F0410446F9480168204654
:104A60000E4600F0E8FEB0F5000F03DA31462046AE
:104A700000F0DEFE8046F348016820460E4600F056
:104A800085FEF1490446884201DD0C4603E0EF480B
:104A9000844200D904462946304600F0C9FEEC4D58
:104AA000E96800F0CBFEEB4F394600F0F9FE064610
:104AB0002146286900F0C2FE394600F0F1FE0446A6
:104AC0004146A86800F0BAFE394600F0E9FE2146EA
:104AD00000F05CFE314600F059FE01F00FF980B2A3
:104AE000ADE52DE9F05FD64EDFF86C8330684146C6
:104AF000814600F09DFED94DD94F01462C6810F13A
:104B0000FF4F0BD2B4F5000F18DB204601F072F90D
:104B100014D23946286800F039FE0DE0BC420DDAA7
:104B20004146484600F032FE214601F063F905D2C5
:104B30003946286800F07CFE044600E02C683068A6
:104B40000025B84200D135602046316801F05CF99B
:104B500001D8002000E00120FFF7D6FE2046FFF735
:104B600079FFC04C2060E8B3FFF7B4FEFFF78CFD7F
:104B7000BD48C14DDFF8F4920078DFF8F4A2D828E0
:104B8000DFF8F0B2BD4E287848D001F091F8074622
:104B900020688846002800DC404201F078F84A4648
:104BA000534600F06EFF02460B460020594600F0C7
:104BB000DAFF0022B24B00F064FF0022B14B00F09C
:104BC00060FF052201F03EF83A46434600F0CBFF75
:104BD00001F0C7F8AC4A30601168884212D9106001
:104BE000297800E00FE04FF480356C1E46F2BF33A9
:104BF000082930D003DC022927D004292BD0A84271
:104C000000DB146064E6FFF7D5FCA0480560A0480F
:104C10000570A0480560A048056059E601F048F815
:104C2000074620688846002800DC404201F02FF843
:104C30004A46534600F025FF02460B4600205946DF
:104C400000F091FF0022954BB5E743F6AF41884253
:104C5000D8DD11603CE69842D4DD136038E62DE9DA
:104C6000F05F0020FFF750FE794CE06A01F092F807
:104C70007E4A8B4B00F05EFE01F09FF84FF08141C1
:104C8000E062884200DDE162E06AFFF7F5FC764908
:104C9000E062844E0A78844FDFF8F0B1764D7A4CAA
:104CA0004FF080414FF00009D82A5DD046F2905273
:104CB000A1F8402001F06EF87C4A7D4B00F0E1FE47
:104CC00001F07BF83860DBF80000BA46B0F5000F61
:104CD00001DA80F00040FFF78AFC804630602878D7
:104CE00000F0E6FF06460F46404601F053F85F4AE3
:104CF0005F4B00F0C6FE6FF0040200F0A3FF3246E7
:104D00003B4600F0BEFE02460B460020694900F01B
:104D10002AFF00225A4B00F0B4FE01F003F8FFF71F
:104D200045FC20606449DAF80000086028784FF4F8
:104D30009651B1FBF0F0216888427DDDFFF73AFC27
:104D40005E49022008705E4981F800905D49C4F810
:104D50000090A1F800905C49C1F800905B49C1F84F
:104D6000009048688861B3E548F6A042A1F8402069
:104D7000574900F063FD574900F092FD38605648EE
:104D8000006800F076FFDFF854A1DAF8001000F0B8
:104D900052FD00F09AFFFFF709FC51490528086011
:104DA00002DD504B83F8009000F063FFFFF71FFC1B
:104DB00080463060287800F07BFF06460F4640466C
:104DC00000F0E8FF294A2A4B00F05BFE6FF0040276
:104DD00000F038FF32463B4600F053FE02460B46D9
:104DE0000020344900F0BFFE0022254B00F049FEB0
:104DF00000F098FFFFF7DAFB20603948006800F008
:104E000038FF344900F01AFD314900F049FD00F047
:104E1000C1FF354A354B00F034FE00F0CEFF2B4980
:104E20005E463C39CBF80000FFF70BFC3060DAF847
:104E3000000000F04AFF00E05AE0274975E7000053
:104E400030000020940000200000A0410000A0C11C
:104E5000C400002000007A440000344378000020A1
:104E60000000B443640000201C0000209A99999926
:104E70009999094000003440400000206C00002057
:104E800000C0B24000000440600000208800002004
:104E90005B0000208C0000209000002000408F402C
:104EA0009999C93F840000207C000020E5CAEA6788
:104EB000FB21194000002440800000201500002044
:104EC000240000202408004028000020D8050020ED
:104ED0000000FA440000484374000020380000201D
:104EE00070000020180000201F85EB51B81E1940EB
:104EF000BDE8F05FEEE470B5FE4D6C6829692046B0
:104F000000F096FC4FF40002904201DB014601E004
:104F100080F00041F84B994207DDF649904209685C
:104F200001DB491E00E0491C2960F449F44E2C6164
:104F3000884203DD314600F07BFC05E0F149884200
:104F400002D9314600F022FCEF4A9178052905D2BA
:104F5000491C91700020AC61286070BD06219170E1
:104F6000314600F09DFCE94900F068FC00F012FFBA
:104F7000E74AE84B00F085FD00F01FFFDD493C39B2
:104F8000FFF75FFBE449086070BD70B5E348E44C8F
:104F900000220578E348DC49E34B0078D82D11D096
:104FA000E24DE34E082830D003DC022822D004284A
:104FB00029D0C1E90932C1E90562C1E90725C1E982
:104FC000026215E0DB4EDC4D082803DA022806D029
:104FD000042804D0C1E90932C1E9054204E0C1E96D
:104FE0000932D648C1E90502C1E90726C1E90252E2
:104FF0000A6170BDC1E90932C1E90542C1E907256D
:10500000C1E90242F4E7CE4800E0CE48C1E90932E6
:10501000C1E90502C1E90725C1E90202E8E72DE976
:10502000FC5FC94C01212046FCF78DFE00287DD095
:1050300001212046FCF793FEFFF7A7FFB748C34EB8
:10504000C34D0078D82839D0FEF744FBA94C80F036
:105050000040606080F000403060FFF74CFF206847
:105060004FF4B471484300F004FE616800F08EFB19
:10507000A16900F0DDFBB74F2860DFF88C8239783A
:1050800040F277104143D8F83000DFF8CCA200247A
:10509000B24E4FF0010BB0EB011F18D9BAF82C102B
:1050A000DAF82800FBF7C5FE387840F2771148435C
:1050B0000BEB0010C8F8300034600FE0C820FEF79A
:1050C00073FC3060FEF794FB00F0D3FDD3E728B902
:1050D000BAF82C10DAF82800FBF7A9FEA04898F8D7
:1050E0000010A04F007888420CD08C480078D82857
:1050F00003D19D4804809D4804609D482C60046055
:1051000034603C609B489C4ADFF818920178012982
:1051100016D10470202189F800109849994B81F824
:1051200000B0974919604FF4E13100E0A6E2964BD8
:1051300097481960954981F800B082F800B0047072
:1051400098F80400401CC0B288F80400052808D173
:1051500090480078012804D18F4981F800B088F880
:1051600004401078BAF834100128DAF8300012D070
:10517000FBF75DFEDFF8E8A163489AF800100170C4
:10518000FDF7C5FF1420FEF781F88448007828B1A8
:10519000FFF765FD6CE2FBF74CFEEBE79AF80000C9
:1051A0007F49DFF800A2DFF8008202284ED00328F2
:1051B00012D004280FD10007BAF80010A0F8401050
:1051C0007A48C8F800400178012902D10470784873
:1051D0000460FFF786FCDEE1C8F800404FF0804035
:1051E000BAF80020A0F840207248006810F0FF4F85
:1051F0001CD0DFF814B108788A4600909BF80310A1
:10520000884207D0286800F060FD5849086042488D
:10521000046034600098FFF777FBFFF735FAFFF77B
:1052200059FB9AF800108BF80310B4E1FFF7C2F9AC
:1052300061480470286800F048FD4C490860364811
:105240003C6004605D4834600460A4E15448017827
:105250002D48C078814206D0286800F036FD4349C9
:10526000086034603C602D480078D82840D0544A0B
:10527000D8F800004146904202D3524A904200D9E9
:105280000A60BAF8003046F2A812934201D2AAF896
:1052900000204D48D8F8001001604FF08040BAF867
:1052A0000010A0F84010494801684748006800F025
:1052B000A1FD1ED041480460454804701248C480D6
:1052C00080F805B099F8000000F0F2FC82460091E9
:1052D000386800F0DCFC3F4A3F4B00F0D2FB6FF037
:1052E000040200F0AFFC5246009B00F0CAFB75E0E0
:1052F000B7E084E0D805002000008C430000344370
:105300000000B443000034C3C40000200000484340
:10531000E5CAEA67FB211940880000201C00002034
:1053200000007A44400000200000A04100003E43FD
:1053300000606A460000C0420080BB440000FA439F
:1053400000803B450080BB45002C014078000020D8
:105350003800002055000020FC0000208C000020B8
:105360001500002060000020240800407400002088
:10537000280000205E0000201400002025000020EE
:1053800040420F0068000020200000201E00002086
:1053900054000020560000201F00002024000020A0
:1053A0001600002048000020340000205800002093
:1053B00030000020440000205B000020900000200E
:1053C0000000A0C100C055C53C0000204C000020DA
:1053D000570000209A9999999999094002460B46DD
:1053E0000020CF4900F0BFFB0022CE4B00F049FB6C
:1053F00000F0E3FCFFF7CDFA3060CB480460CB4807
:105400000168CB480160CB480178CB48C17028685F
:10541000FFF783FAC9490860FFF7C8F899F8002038
:105420004FF4F073B3FBF2F24FF6FF7A904264DA76
:10543000FFF7C0F8C2480078D82844D02968C8F8D7
:105440000010C0480460286800F03FFCBE490860B6
:10545000BE48BF4904703460C7F800A081F800B0AE
:1054600099E0BC49D8F80000884202D2C8F8001080
:1054700004E0B94A904201D9C8F80020BAF80020E7
:1054800047F621418A4201D2AAF8001099F800009B
:1054900000F00EFC0022B14B00F0F3FACDE9000160
:1054A000D8F8000000F076FCDDE9002300F05BFB9B
:1054B0000022AB4B00F0E5FA00F034FC00F0D9FB21
:1054C0009A490860E9E699F8000000F0F1FB002233
:1054D000A24B00F0D6FACDE90001286800F05AFC92
:1054E000DDE9002300F0CDFA00229D4B00F03BFBEC
:1054F00000F063FCC8F80000A3E795488B460470F1
:105500000868002802DD4FF0000002E003DA4FF0E7
:105510000100FFF7F9F9FFF7DDF9DBF8000000F112
:105520003101632900D23460002800DC404200F0E1
:10553000AEFB8C4A8C4B00F0A4FA02460B460020CE
:105540008A4900F010FB0022764B00F09AFA002204
:10555000874B00F096FA00F004FCDFF818B2CBF8A5
:105560000000FFF791F8DBF800003968884200D9A5
:10557000386099F800004FF4803246F2BF310828B5
:1055800015D003DC02280BD0042810D038689042D4
:1055900001DBC7F800A0784A107801280CD067E03A
:1055A000396843F6AF408142F5DD3860F3E738688B
:1055B0008842F0DD3960EEE7DFF87CA1BAF806003A
:1055C000401C80B2AAF806001E2827D9AAF8064077
:1055D0001470FEF7EFFF5A4834600078D82803D0E3
:1055E0002968C8F8001043E099F8000000F060FB5B
:1055F00000225A4B00F045FA04460E46286800F097
:10560000C9FB2246334600F03CFA0022544B00F01E
:10561000AAFA00F0D2FBC8F8000029E048481E268C
:105620004FF4C8540078D82840480168286811D041
:1056300000F0FEF800F049FBFEF7B8FF5A2815DD30
:105640004E492868884211D299F80000B4FBF0F066
:1056500038600DE000F0ECF800F037FBFEF7A6FF35
:10566000B0F5FA7F02DD46492868EBE7AAF8066044
:1056700099F80000BDE8FC5FFDF772BFBDE8FC9F34
:1056800000B5FEF793FF3F4991FBF0F0B0F5803F86
:1056900002D34FF6FF7000BD80B200BD40F2CF21B3
:1056A000884200D2084670474BF62D21884200D927
:1056B0000846704710B50821CC062046FCF743FB8E
:1056C000002812D008212046FCF749FB2046FCF7B1
:1056D00027FB2D49096801EBD17100EB610081B214
:1056E0002046BDE81040FCF70ABB10BD70B504466B
:1056F00000F004FB054680B200F0C4FA06462146DD
:1057000000F099F8B0F17C5F04DDA8B2401C00F015
:10571000B9FA00E0304600F0F1FA80B270BD000046
:105720000000244000C0B240900000203C00002057
:105730004C00002016000020C4000020640000205F
:105740001C00002088000020740000205B00002066
:105750005F000020000048C300A85EC70000694049
:1057600000409F409A9999999999094000003440C6
:10577000000004406C0000205700002000804AC553
:1057800000A00CC640420F0060000020F0B480EA88
:105790000102D40F4200B2EB410F02D2024608468A
:1057A00011464A0042D0C30DDDB2C1F3C752AD1A53
:1057B000202D35DAC1F3160141F4000204B1524242
:1057C000C5F1200602FA06F12A411044B3EBD05F7E
:1057D00023D0C4B1012DA0EBC35009DCF0BC4FF0C5
:1057E000004202EAC352DBB200F5000000F050BBF9
:1057F000400000F1807000EBC350A0F1807040EADF
:10580000D170490009E0490841EAC071A0EBC350DA
:1058100000F50000400800EBC350F0BC00F02FBBC7
:105820006142012202EB4101001BF6E7F0BC704728
:1058300081F00041AAE780F00040A7E780EA01027A
:1058400010B502F00043400022D04A001FD0010EE4
:1058500001EB1261C0F35600C2F3560240F400009F
:1058600042F40002A0FB022000047F39140400D09F
:10587000401C50EA124001D44000491EC2B20C063E
:1058800004EBD010401C4008802A02D003E0002026
:1058900010BD20F00100002900DA0020184310BDDF
:1058A00030B480EA010202F0004530F0004221F0FD
:1058B000004013D090B1C30DD40DC2F31601C0F354
:1058C0001600E41A41F4000140F400027D349142D4
:1058D00001D3641C00E04900002C02DA30BC002037
:1058E00070474FF400000023914201D3891A03430B
:1058F00040084FEA4101F7D151B1914202D14FF036
:10590000004105E002D24FF0010101E06FF001011A
:1059100003EBC450284430BC00F0B1BA420005D0BB
:10592000C0F3C7525242914201DC0020704700EBA5
:10593000C15070472DE9FE4F804681EA0300C00F39
:105940000C46009021F0004123F00045B8EB020026
:10595000A94105D24046214690461C460B460246C8
:1059600023F00040104347D0270DC7F30A00C3F3CC
:105970000A510290401A019040286BDAC3F31300D9
:1059800040F4801B0098924620B10023D2EB030A1A
:1059900063EB0B0B01985946C0F14002504600F0F2
:1059A0003DFA06460D4650465946019A00F055FA12
:1059B00010EB08006141002487EA115284EAE77382
:1059C0001A4340D0009A62B3019A012A4FEA075263
:1059D00015DC001B61EB02014FF0004202EA0752A6
:1059E000CDE90042001C41F5801132462B4600F003
:1059F0008CFA03B0BDE8F08F40462146F9E7001B62
:105A000061EB0201001C41F5801300185B41201876
:105A1000A2F5001747EB030140EAD570B6196D41B6
:105A200011E06D084FEA360645EAC0754FEA0752A5
:105A3000001B61EB0201001C41F5801149084FEA8F
:105A400030000019514132462B4603B0BDE8F04FFB
:105A500000F04CBA0098012240000023D0EB020273
:105A600063EBE073009821464FEAE074B8EB000066
:105A700061EB0401E9E783F000435BE781F000415B
:105A800058E72DE9FE4F81EA030404F0004421F0B9
:105A9000004100944FF0000B23F0004350EA010452
:105AA0005ED052EA03045BD0C3F30A54C1F30A5533
:105AB0002C44A4F2F3340194A0FB0254C1F313016B
:105AC00041F48011C3F3130343F4801301FB024438
:105AD00000FB034E840A970A44EA815447EA83573D
