:020000040800F2
:10000000A80F0020B503000895010008970100081B
:10001000990100089B0100089D01000800000000F4
:100020000000000000000000000000009F01000828
:10003000A101000800000000A3010008A5010008BC
:10004000CF030008CF030008CF030008CF03000848
:10005000CF030008CF030008CF030008CF03000838
:10006000CF030008CF030008CF030008CF03000828
:10007000CF030008CF030008CF030008CF03000818
:10008000CF030008CF030008CF030008CF03000808
:10009000F33C0008CF030008CF030008CF0300089B
:1000A000CF0300081B490008CF030008CF03000856
:1000B0008F4D00086D37000885360008CF03000813
:1000C000CF030008CF030008CF030008CF030008C8
:1000D000CF030008D5260008CF030008692B0008CD
:1000E000CF030008CF030008CF03000800F002F898
:1000F00000F03AF80AA090E8000C82448344AAF188
:100100000107DA4501D100F02FF8AFF2090EBAE885
:100110000F0013F0010F18BFFB1A43F0010318473B
:10012000286A0000486A0000103A24BF78C878C1E5
:10013000FAD8520724BF30C830C144BF04680C60ED
:10014000704700000023002400250026103A28BF35
:1001500078C1FBD8520728BF30C148BF0B60704739
:100160001FB51FBD10B510BD04F03FFE1146FFF7CF
:10017000F7FF00F0D3F804F05DFE03B4FFF7F2FFE1
:1001800003BC02F003FA000030BF72B662B680F31F
:10019000088870477047FEE7FEE7FEE7FEE7704716
:1001A00070477047704700000CB500220192009222
:1001B0005248016841F4803101604FF4A063016846
:1001C00001F4003100910199491C0191009911B984
:1001D00001999942F3D10168890302D50121009167
:1001E00000E000920099012930D145490A6842F0A7
:1001F00010020A600A6822F003020A600A6842F0EC
:1002000002020A604168416041684160416841F40E
:1002100080614160416821F47C114160416841F492
:10022000E8114160016841F0807101600168890155
:10023000FCD5416821F003014160416841F00201B1
:1002400041604168C1F381010229FAD10CBDABE7DD
:1002500010B52A48016841F0010101604168294A4E
:10026000114041600168284A11400160016821F491
:1002700080210160416821F4FE0141604FF41F01BB
:100280008160FFF7E4FF21494FF00060086010BD76
:1002900010B51A4A506800F00C011D4B1D4800298A
:1002A0000ED004290ED008290ED003605168194AD7
:1002B000C1F30311121D515C0268CA40026010BDF7
:1002C0000360F3E70360F1E7516801F470115368CC
:1002D00003F48033022404EB914133B153689B0350
:1002E00007D50D4B59430160E0E70B4B59430160C3
:1002F000DCE7074B59430160D8E7000000100240DB
:10030000002002400000FFF8FFFFF6FE08ED00E0CD
:1003100000127A000000002000093D0008B502200C
:1003200002F042F801F0EEFF022002F0D9F80120BD
:1003300002F0D6F84FF4E13002F032F903F035FF65
:100340001B4C606802F0C6FB02F068FD02F077FD0E
:1003500002F002FE0025062302220321012000955F
:1003600003F00EFB03F02EF903F080F802F0BBFE61
:10037000632141F61F4003F0CFFA02F06EFE4FF604
:10038000FF760E21304602F017FE4721304603F07B
:1003900099F96078012802D103F055FF6570207843
:1003A0000128F6D102F0DBFC02F04EF92570F0E7EF
:1003B000240000200948804709480047FEE7FEE77F
:1003C000FEE7FEE7FEE7FEE7FEE7FEE7FEE7FEE705
:1003D00004480549054A064B7047000051020008D1
:1003E000ED000008A8090020A80F0020A80B00209D
:1003F000A80B00202A4908432A490860704770B5B5
:100400000F23C27801260178002A1ED0254A1268DF
:1004100002F4E062C2F5E062120AC2F10404D340C1
:100420004578A54082781A402A43120101F1E02163
:1004300081F80024007800F01F018E404009800000
:1004400000F1E020C0F8006170BD01F01F0086409F
:100450004809800000F1E020C0F8806170BD124AB8
:10046000114001430F48001F016070470D4A121DE3
:10047000002903D01168014311607047116881435E
:10048000116070474FF0E021042804D0086920F083
:10049000040008617047086940F004000861704773
:1004A0000000FA050CED00E080FFFF1F10B50120F1
:1004B00000F019FFBDE81040002000F014BF2049F3
:1004C000086070471E49091F086070471C49843145
:1004D000086070471B4A118821F460710143118044
:1004E0007047184A118821F07F010143118070473D
:1004F00008B5144A2C3A104400900098016008BDD9
:1005000008B510492C39084400900098008808BDAF
:100510000B489C300068C0B270470A480830018818
:1005200041F00101018070470548A0300068C0B269
:10053000704704480830018841F00201018070478B
:1005400004860D422C6C004010B5F74988420AD150
:1005500001214C06204600F0BBFE2046BDE81040BD
:10056000002100F0B5BE01218C06204600F0B0FE4F
:100570002046BDE81040002100F0AABE10B50022C0
:10058000036823F002030360036843F00103036080
:100590004FF6FF7300E0521C4468E40701D19A4211
:1005A000F9D14268D2073ED08A79012A3DD002684B
:1005B00022F080020260CA79012A3BD0026822F050
:1005C000400202600A7A012A39D0026822F0200231
:1005D00002604A7A012A37D0026822F010020260D3
:1005E0008A7A012A35D0026822F008020260CA7AAB
:1005F000012A33D0026822F0040202608A78CC78A3
:10060000920742EA04620C7942EA04424C79098872
:1006100042EA0452491E0A43C261016821F0010105
:100620000160002120E0002010BD026842F080023D
:100630000260C0E7026842F040020260C2E702685E
:1006400042F020020260C4E7026842F01002026039
:10065000C6E7026842F008020260C8E7026842F09A
:1006600004020260CAE7491C4268D20701D09942DD
:10067000F9D14068C00701D0002010BD012010BD95
:10068000F0B5827A01219140A84C226842F0010223
:100690002260A64D1C352A688A432A60A34A067B3D
:1006A0000C32A34B002E14D116688E431660468878
:1006B000C78846EA0746877A03EBC707C7F840664C
:1006C0000688878846EA0746877A03EBC707C7F894
:1006D0004466067B012E14D116680E4316604288CC
:1006E000068842EA0642867A03EBC606C6F840262A
:1006F000C288868842EA0642867A03EBC603C3F8BC
:1007000044268A4AC37A121D3BB113680B43136017
:10071000864A0389143223B106E013688B431360C1
:10072000F6E713688B4313600389012B02D113682A
:100730000B431360407B012802D1286808432860DE
:10074000206820F001002060F0BD00218171C1719E
:10075000017241728172C1728170C1700321017195
:100760000221417101210180704770490A6842F0FD
:1007700001020A600A6843F60E739A430A600A6827
:1007800042EA00200860086820F001000860704715
:10079000002904D0016841F480310160704701688C
:1007A00021F4803101607047002916D0016841F0C2
:1007B00080010160D0F8841141F48071C0F8841187
:1007C000D0F8941141F48071C0F89411D0F8A411BC
:1007D00041F48071C0F8A4117047016821F08001D4
:1007E0000160D0F8841121F48071C0F88411D0F830
:1007F000941121F48071C0F89411D0F8A41121F45F
:100800008071C0F8A411704730B50246002093688B
:100810005B010AD49068000101D5012005E09068D1
:10082000C00001D5022000E0042004283BD002EBE8
:100830000012D2F8803103F00103C2F880310B7A44
:1008400093B3D2F880414D681C434B7A43EAC50309
:100850001C43C2F880418B7A03F00F038B7202F5C0
:10086000C072536823F00F03536053688C7A23439C
:100870005360CB7A8C7B0D7B43EA04634C7B24046E
:1008800044EA052423439360CB7B8C7C43EA0463D6
:100890004C7C097C240444EA01210B43D360116899
:1008A00041F00101116030BDFFE7D2F880314C7A90
:1008B00023430C8843EA4453C2F88031CBE700223B
:1008C000002904D0012906D002290BD107E0826853
:1008D0001848024006E082681748024002E0826839
:1008E000164802401649501A8A4218D007DC92B1C5
:1008F0006FF08060101810D0022809D124E0B0F504
:10090000007F23D00F4940180BD0B0F5003F1FD017
:100910000020C0B270470220FBE70020F9E700206A
:10092000F7E70020F5E700000064004000660040A3
:1009300000600040030000040003000800000310F2
:10094000000100080001FFF70120E2E70120E0E7D5
:100950000120DEE7002908D001290BD0022903D1AC
:10096000816841F4000181607047816841F0800135
:1009700081607047816841F400418160704710B523
:1009800000EB0113D3F8B04104F004041472002CFE
:100990002CD0D3F8B041E408546003F5D8731C6838
:1009A00004F0020454725C6804F00F0494725C68F2
:1009B000240AD4749C68D4729C68240A14739C68BA
:1009C000240C54739C68240E9473DC68D473DC6824
:1009D000240A1474DC68240C5474DB681B0E9374B2
:1009E00049B1016941F02001016110BDD3F8B04166
:1009F000640D1460D1E7C16841F02001C16010BDF1
:100A0000002904D0016941F0200101617047C168EB
:100A100041F02001C160704702460020002905D046
:100A2000012902D1106900F003007047D06800F07E
:100A30000300704700234FF6FF72002904D00129FC
:100A40001AD002292AD040E0016821F0020141F0C9
:100A50000101016000E0521E416801F0030101291B
:100A600001D0002AF7D1406800F00300012801D02E
:100A700000232AE0012328E0016821F0030101603E
:100A800000E0521E4168890701D0002AF9D1406870
:100A9000800701D0002318E0012316E0016821F04F
:100AA000010141F00201016000E0521E416801F0C5
:100AB0000301022901D0002AF7D1406800F00300A9
:100AC000022801D0002300E00123184670470021CE
:100AD000026822F0010242F002020260406800F067
:100AE0000300022800D10121084670474FF6FF712C
:100AF0000023026822F00202026000E0491E426800
:100B0000920701D50029F9D14068800700D401235C
:100B1000184670478069C0F3021000017047806971
:100B2000000E70478069C0F307407047002A03D069
:100B300042690A434261704742698A434261704791
:100B40000246002011F4700F05D092690A4011038B
:100B500000D001207047CB0105D552680A4011032F
:100B6000F8D0012070470B0105D592680A401103A7
:100B7000F8D0012070478B0105D5D2680A401103D7
:100B8000F8D00120704712690A401103FAD0012001
:100B900070475A4A914202D1002181617047C1F3E6
:100BA00013028B0101D5C26070474B0101D5026170
:100BB0007047090101D58260704742607047024664
:100BC00000200A4200D001207047024600205369ED
:100BD0000B424FD0B1F5807F40D014DC082931D0D2
:100BE00008DC012928D0022929D0042942D1D06863
:100BF0000821E4E7102928D0202929D0402939D11B
:100C000010691021DBE7B1F5004F30D00BDCB1F5F6
:100C1000007F26D0B1F5806F26D0B1F5006F29D1C5
:100C200090697021CBE7B1F5803F14D0B1F5003F5A
:100C300020D150681021C2E790683149BFE7D068E1
:100C40000321BCE7D0681021B9E710690321B6E79A
:100C500010690821B3E750680821B0E790690121C5
:100C6000ADE790690221AAE790690421A7E75068DF
:100C70000421A4E7704730B5082310240422B1F5FD
:100C8000007F33D011DC20292AD007DC012922D0B3
:100C9000042923D0082900D1C46004E6402921D0CA
:100CA000B1F5807FF9D14260FDE50025B1F5004F37
:100CB00020D008DCB1F5806F1AD0B1F5006FECD10F
:100CC00085614260EFE5B1F5803F0DD0B1F5003FA1
:100CD000E3D14460E7E50A498160E4E5C360E2E509
:100CE0000361E0E50461DEE54360DCE54260DAE5EE
:100CF0004260D8E585614260D5E500007000F030C3
:100D00000101010010B59C49884209D1012104204C
:100D100000F0D3FA0021BDE81040042000F0CDBA65
:100D20009649884209D10121082000F0C6FA002125
:100D3000BDE81040082000F0C0BA9149884209D1AE
:100D40000121102000F0B9FA0021BDE81040102068
:100D500000F0B3BA8B49884209D10121202000F06C
:100D6000ACFA0021BDE81040202000F0A6BA864968
:100D7000884209D10121402000F09FFA0021BDE8FE
:100D80001040402000F099BA8049884209D10121E1
:100D9000802000F092FA0021BDE81040802000F091
:100DA0008CBA7B4988420AD184150121204600F083
:100DB00084FA2046BDE81040002100F07EBA10BD44
:100DC00010B50121084600F078FA0021BDE8104076
:100DD000012000F072BA2DE9F0410022CC7804F035
:100DE0000F03E40601D58C7823430C784FF00F07EE
:100DF00014F0FF0F4FF0010C1CD005680CFA02F440
:100E00000E882640A64211D1960007FA06F825EA78
:100E1000080503FA06F848EA0505CE78282E02D020
:100E2000482E02D002E0446100E00461521C082A0E
:100E3000E4D305600A88FF2A1ED94568002202F122
:100E400008060CFA06F40E882640A64210D1960039
:100E500007FA06F825EA080503FA06F848EA050540
:100E6000CE78282E00D14461CE78482E00D104617E
:100E7000521C082AE3D34560BDE8F0814FF6FF71AC
:100E80000180022181700421C17070470246002058
:100E900092680A4200D001207047806880B2704793
:100EA00002460020D2680A4200D001207047C06884
:100EB00080B270470161704741617047002A01D0DC
:100EC0000161704741617047C160704741F48032F1
:100ED00082618161826181698069704710B52D4BA3
:100EE0001A684FF68074224042EA001008431860E6
:100EF00010BD2949C8617047F0B5264C002801DAB9
:100F0000E36900E06368C0F30346420D120185B255
:100F1000C0F301579540032F07D0C2020CD503221E
:100F2000B240934343F0706209E023F0706263685B
:100F300023F07063636002E0AB4343F0706201B181
:100F40002A43002801DAE261F0BD6260F0BD10B50D
:100F50008A07120F0F23934021F003040D49214407
:100F60008C689C438C608B68904003438B6010BD01
:100F70000949DC310860704700080140000C01405D
:100F8000001001400014014000180140001C014005
:100F900000200140000001400000204210B5012166
:100FA0000C07204600F094F92046BDE810400021CF
:100FB00000F08EB9214908627047204908617047E6
:100FC0001F4A116821F0E0010143116070471B497D
:100FD000A031086070471A4B1A6822F003020243DE
:100FE0001A601848026842F004020260012905D024
:100FF00020BF016821F004010160704730BFF8E7AD
:101000000F48016841F004010160016841F00201EC
:1010100001600C48016841F00401016030BF704775
:1010200001460020064A52680A4200D0012070475B
:1010300003490A6842EA80000860704700000E42D7
:101040000070004010ED00E0B448016841F001017B
:1010500001604168B24A114041600168B14A1140E3
:101060000160016821F480210160416821F4FE01E2
:1010700041604FF41F0181607047A8490A6822F45B
:1010800080320A600A6822F480220A60B0F5803F4C
:1010900007D0B0F5802F03D1086840F4A020086085
:1010A0007047086840F480300860704703460020AD
:1010B00059099A4A01290AD002290AD0516A03F033
:1010C0001F02012393400B4200D00120704711689A
:1010D000F5E7116AF3E718B5002000904FF4A0641B
:1010E0003120FFF7E3FF0099491C00910099A142CC
:1010F00001D00028F4D03120FFF7D8FF08B101203B
:1011000018BD002018BD854A116821F0F80141EA98
:10111000C000106070478449086070477F4B5A6870
:1011200022F47C1208431043586070477E490866D9
:1011300070477A4A516821F00301014351607047BA
:101140007648406800F00C007047744A516821F0FE
:10115000F001014351607047704A516821F4E06129
:101160000143516070476D4A516821F4605141EA72
:10117000C00050607047694A002903D0517A01438A
:1011800051727047517A8143517270476649D83124
:1011900008607047614A516821F440410143516041
:1011A00070475E49002220310A7001F82029012889
:1011B00005D0042802D1052081F8200070470120C5
:1011C00081F82000704759490860704753490A6AFE
:1011D00002430A627047554944390860704710B5A8
:1011E0004E4A516801F00C01514B002927D00429C7
:1011F00027D0082927D00360516801F0F0010909C0
:101200004C4B5C5C0168E1404160546804F4E0646C
:10121000240A1C5D21FA04F48460546804F46054C8
:10122000E40A1B5DD940C160526802F44042920B4F
:10123000404B1B1F9A5CB1FBF2F1016110BD0360D2
:10124000DAE70360D8E7516801F47011536803F4DA
:101250008033022404EB914133B153689B0307D5DB
:10126000354B59430160C7E7334B59430160C3E72E
:101270002F4B59430160BFE7284A002903D0516929
:101280000143516170475169814351617047234A5D
:10129000002903D0916901439161704791698143AD
:1012A000916170471D4A002903D0D1690143D16182
:1012B0007047D1698143D1617047184A002903D032
:1012C000D1680143D1607047D1688143D1607047D4
:1012D000124A002903D01169014311617047116955
:1012E00081431161704711494039086070470E49C8
:1012F000C86470470949C87170470848416A41F09D
:1013000080714162704701460020044A92680A4297
:1013100000D00120704701498872704700100240D8
:101320000000FFF8FFFFF6FE000042428004424248
:1013300000127A008000002000093D0010B5FE492F
:1013400088420AD1C41401212046FFF7B6FF204687
:10135000BDE810400021FFF7B0BFB0F1804F0CD0C6
:10136000F649884213D101210220FFF7B1FF002185
:10137000BDE810400220FFF7ABBF01210846FFF790
:10138000A7FF0021BDE810400120FFF7A1BFEC49F5
:10139000884209D101210420FFF79AFF0021BDE80E
:1013A00010400420FFF794BFE649884209D101218B
:1013B0000820FFF78DFF0021BDE810400820FFF74F
:1013C00087BFE149884209D101211020FFF780FF42
:1013D0000021BDE810401020FFF77ABFDB498842AA
:1013E00009D101212020FFF773FF0021BDE8104043
:1013F0002020FFF76DBFD64988420AD1441401214D
:101400002046FFF75AFF2046BDE810400021FFF7B5
:1014100054BFD04988420AD10121CC042046FFF7AD
:101420004CFF2046BDE810400021FFF746BFCA49E7
:1014300088420AD101210C052046FFF73EFF2046D5
:10144000BDE810400021FFF738BFC44988420AD1E7
:1014500001214C052046FFF730FF2046BDE8104033
:101460000021FFF72ABFBE49884209D1012140204F
:10147000FFF72EFF0021BDE810404020FFF728BFF6
:10148000B849884209D101218020FFF721FF0021BE
:10149000BDE810408020FFF71BBFB34988420AD146
:1014A000841501212046FFF713FF2046BDE81040B8
:1014B0000021FFF70DBFAD4988420AD101210C047C
:1014C0002046FFF7FAFE2046BDE810400021FFF756
:1014D000F4BEA74988420AD101214C042046FFF7F7
:1014E000ECFE2046BDE810400021FFF7E6BEA14912
:1014F00088420AD101218C042046FFF7DEFE2046F7
:10150000BDE810400021FFF7D8BE10BD30B50288FD
:10151000894C8F4DA0420DD0A8420BD0B0F1804F26
:1015200008D0864B984205D0854B984202D0854B17
:10153000984203D122F070034A881A43824B9842A2
:1015400006D0824B984203D022F44073CA881A43D3
:1015500002808A8882850A880285A0420AD0A84231
:1015600008D0824A904205D0814A904202D0814AF6
:10157000904201D1097A01860121818230BD30B5C6
:10158000028C22F001020284028C8388048B24F0F6
:10159000700424F003050C882C4322F002020D890C
:1015A00015434A882A43644DA8420BD0684DA8428F
:1015B00008D06E4DA84205D06D4DA84202D06D4DA9
:1015C000A8420FD122F008054A892A4322F00405D7
:1015D0008A882A4323F4807323F400738D891D4382
:1015E000CB892B4383800483C9888186028430BDE4
:1015F00070B5028C22F010020284028C8388048B66
:1016000024F4E04424F440760D884FF6FF7404EA95
:101610000525354322F020020E8904EA06161643FA
:101620004A8804EA02123243434EB04202D0484E86
:10163000B04217D122F080024E8904EA0616164302
:1016400026F040068A8804EA0212324323F48063BB
:1016500023F400638E8904EA86061E43CB8904EADC
:101660008303334383800583C9880187028470BD67
:1016700070B5028C22F480720284028C8388848B81
:1016800024F0700424F003040D88254322F4007232
:101690000E894FF6FF7404EA062616434A8804EAC8
:1016A00002223243244EB04202D0294EB04217D11A
:1016B00022F400664A8904EA0222324322F4806658
:1016C0008A8804EA0222324323F4805323F400532D
:1016D0008E8904EA06161E43CB8904EA03133343BA
:1016E00083808583C9888187028470BD70B5028C30
:1016F00022F480520284058C8288838B23F4E04399
:1017000023F440760C884FF6FF7303EA0424344335
:1017100025F400550E8903EA06362E434D8803EA68
:1017200005353543044EB04202D0094EB04226D1B1
:1017300022F480468A891FE0002C0140000400400A
:1017400000080040000C0040001000400014004061
:1017500000340140004C0140005001400054014061
:1017600000180040001C00400020004000400140E4
:10177000004401400048014003EA82123243828063
:101780008483C988A0F84010058470BD828B22F440
:1017900040628283828B4FF6FF7303EA01210A4382
:1017A00082837047F0B5048C24F480540484868BC3
:1017B000048C4FF6FF7505EA013726F4734605EAF7
:1017C0000222324305EA03331343F74A90420ED014
:1017D000F64A90420BD0B0F1804F08D0F44A9042C4
:1017E00005D0F44A904202D0F34A904205D124F445
:1017F0000051394341F4805104E024F402420A4389
:1018000042F4805183830184F0BD828B22F00C026C
:101810008283828B0A4382837047F0B5048C24F460
:1018200080740484858B048C4FF6FF7707EA0126C9
:1018300025F0F30507EA031313432B43DA4A9042DA
:101840000ED0DA4A90420BD0B0F1804F08D0D84A7F
:10185000904205D0D74A904202D0D74A904205D153
:1018600024F40071314341F4807104E024F42062D7
:101870000A4342F4807183830184F0BD028B22F419
:1018800040620283028B4FF6FF7303EA01210A4391
:1018900002837047F0B5048C24F010040484068B96
:1018A000048C4FF6FF7505EA011726F4734605EA26
:1018B0000333334305EA02221A43BB4B98420ED04E
:1018C000BA4B98420BD0B0F1804F08D0B84B984239
:1018D00005D0B84B984202D0B74B984205D124F0BE
:1018E0002001394341F0100104E024F0A0030B4330
:1018F00043F0100102830184F0BD028B22F00C0240
:101900000283028B0A430283704770B5048C24F073
:1019100001040484058B048C25F0F3054FF6FF7653
:1019200006EA031313432B439F4A90420ED09F4A6B
:1019300090420BD0B0F1804F08D09D4A904205D024
:101940009C4A904202D09C4A904205D124F0020267
:101950000A4342F0010104E024F00A020A4342F083
:1019600001010383018470BD70B505460C468E48A5
:10197000854209D08D48854206D0B5F1804F03D00D
:101980008B48854200D08B4820886188A2882389B3
:1019900058B1042811D0082817D02846FFF702FFB5
:1019A000E1882846BDE87040F0E62846FFF7ADFF25
:1019B000E1882846BDE870409FE72846FFF76AFFA8
:1019C000E1882846BDE8704058E72846FFF725FF24
:1019D000E1882846BDE8704017E72DE9F041074649
:1019E0000C46002501266188002900D10225A28825
:1019F000012A00D102262088238988B13846FFF7C2
:101A000049FFE1883846FFF739FF238932462946E6
:101A10003846FFF77AFFE1883846BDE8F0416CE7C9
:101A20003846FFF772FFE1883846FFF766FF2389E3
:101A3000324629463846FFF72DFFE1883846BDE893
:101A4000F0411BE710B50A884B88CC881A438B8875
:101A500023431A430B891A434B8989891A430A4342
:101A6000A0F8442010BD4FF6FF7181800021018055
:101A7000C1804180017270470021018041808180D6
:101A8000C180018141818181C18170470021018034
:101A9000418001228280C180018170470021018044
:101AA00041808180C180018141818181704700290D
:101AB00004D0018841F0010101807047018821F0C4
:101AC000010101807047002905D030F8441F41F41E
:101AD00000410180704730F8441FC1F30E010180BE
:101AE0007047002A03D082890A4382817047828925
:101AF0008A4382817047818270471143A0F8481061
:101B00007047002A03D082890A4382817047828904
:101B10008A4382817047018921F007010181704762
:101B2000028922F070020A430281704700B5034621
:101B30001846FFF7F5FF188940F00700188100BD2F
:101B400070B50D4604461146602D0CD0012220468A
:101B5000FFF7DBFE29462046FFF7E2FF208940F031
:101B60000700208170BD01222046FFF793FEF1E7B8
:101B700030B50489E4B24FF6FF7505EA0323134339
:101B80000B432343038130BD10B504462046FFF7C5
:101B9000EFFF208920F0070040F0070020F07000E0
:101BA00040F07000208110BD002C01400034014045
:101BB0000004004000080040000C004010B504463E
:101BC0002046FFF7D5FF208940F480402081EAE7D6
:101BD000018582827047028822F070020A430280E7
:101BE000704770B50589048B068C25F007050D43F9
:101BF0004FF6FC410C4040F201110C4326F0220646
:101C00004FF6FF7101EA031111433143058104834B
:101C1000018470BD028B22F070020A430283704778
:101C2000028B22F4E0424FF6FF7303EA01211143D5
:101C300001837047828B22F070020A4382837047CF
:101C4000828B22F4E0424FF6FF7303EA0121114335
:101C500081837047002904D0018841F08001018010
:101C60007047018821F0800101807047002904D06D
:101C7000818841F0040181807047818821F004014E
:101C800081807047002904D0818841F0080181805B
:101C90007047818821F0080181807047002904D0B5
:101CA000818841F0010181807047818821F0010124
:101CB00081807047028B22F008020A43028370473A
:101CC000028B22F400624FF6FF7303EA01211143F5
:101CD00001837047828B22F008020A438283704797
:101CE000828B22F400624FF6FF7303EA0121114355
:101CF00081837047028B22F004020A4302837047FB
:101D0000028B22F480624FF6FF7303EA0121114334
:101D100001837047828B22F004020A43828370475A
:101D2000828B22F480624FF6FF7303EA0121114394
:101D300081837047028B22F080020A43028370473E
:101D4000028BC2F30E024FF6FF7303EA0121114327
:101D500001837047828B22F080020A43828370479E
:101D6000828BC2F30E024FF6FF7303EA0121114387
:101D700081837047028C22F002020A43028470477A
:101D8000028C22F008020A4302847047028C22F07F
:101D900020024FF6FF7303EA0111114301847047DB
:101DA000028C22F080024FF6FF7303EA0111114307
:101DB00001847047028C22F400724FF6FF7303EA2D
:101DC0000121114301847047028C22F400624FF616
:101DD000FF7303EA0121114301847047028C22F44E
:101DE00000524FF6FF7303EA01311143018470473B
:101DF00010B501238B40048C9C430484038C8A40DF
:101E000013430384CFE610B504238B40048C9C431A
:101E10000484038C8A4013430384C4E630B500F184
:101E2000180301248C40058CA5430584002911D09A
:101E300008290FD0091FC1F34E001844016821F48E
:101E4000E041016001684FF6FF7303EA022211438B
:101E5000016030BD03EB5100016821F070010160A9
:101E600001681143016030BD002904D0018841F0B0
:101E7000020101807047018821F002010180704752
:101E8000002904D0018841F00401018070470188D5
:101E900021F0040101807047002904D0818841F0BD
:101EA000800181807047818821F0800181807047A6
:101EB000028822F00802028002880A4302807047EA
:101EC000828822F07002828082880A438280704772
:101ED000028922F00702028102890A4302817047C7
:101EE000028922F08002028102890A43028170473E
:101EF000818470478185704781867047018770476C
:101F000081877047A0F840107047028822F4407221
:101F1000028002880A4302807047808E7047008FDB
:101F20007047808F7047B0F840007047808C7047D2
:101F3000008D704702460020128A0A4200D001201C
:101F40007047C9430182704702460020138A0B4044
:101F500092890A40002B02D0002A00D0012070474D
:101F6000C94301827047000010B5E14988420AD197
:101F700001218C032046FFF7A0F92046BDE8104060
:101F80000021FFF79AB9DB4988420AD101214C04AC
:101F90002046FFF79DF92046BDE810400021FFF7DD
:101FA00097B9D54988420AD101218C042046FFF710
:101FB0008FF92046BDE810400021FFF789B9CF49CD
:101FC00088420AD10121CC042046FFF781F920463E
:101FD000BDE810400021FFF77BB9C94988420AD10A
:101FE00001210C052046FFF773F92046BDE810409B
:101FF0000021FFF76DB910BD30B585B004460D4620
:10200000208A4CF6FF710840E98801432182A089AB
:102010004EF6F3110840A9882A8911436A890243C0
:102020001143A181A08A4FF6FF410840A9890143CD
:10203000A1826846FFF7D3F8AD48844201D10398E6
:1020400000E00298A189090408D500EBC00101EB6A
:10205000001029684900B0FBF1F007E000EBC00177
:1020600001EB001029688900B0FBF1F06422B0FB9D
:10207000F2F109010B096FF018056B4300EB8300C7
:10208000A3891D044FF0320307D503EBC000B0FB5A
:10209000F2F000F00700084306E003EB0010B0FB8D
:1020A000F2F000F00F000843208105B030BD4FF47E
:1020B0001651016000218180C18001810C22428182
:1020C0008181704710B5038A4FF2FF0213400A88DE
:1020D0004C8822438C88C9880C4322431A430282CD
:1020E00010BD0021018041808180C180704700299E
:1020F00004D0818941F4005181817047818921F4A4
:1021000000518181704710B540F66A13C1F3421344
:1021100001F01F040121A140012B07D0022B07D0A1
:1021200014303AB102680A43026010BD0C30F8E77F
:102130001030F6E702688A43026010BD002A03D01F
:10214000828A0A4382827047828A8A4382827047E7
:10215000028A22F00F020282028A0A430282704738
:10216000828922F40062828182890A4382817047D7
:10217000002904D0818941F0020181817047818961
:1021800021F0020181817047028A22F0200202823E
:10219000028A0A4302827047002904D0018A41F46E
:1021A000804101827047018A21F480410182704799
:1021B000C1F30801818070478088C0F30800704730
:1021C000818941F0010181817047028BD2B2028383
:1021D000028B42EA012101837047028B02F47F42A5
:1021E0000283028B0A4302837047002904D0818A4C
:1021F00041F0200181827047818A21F02001818293
:102200007047002904D0818A41F010018182704713
:10221000818A21F0100181827047002904D0818ACF
:1022200041F0080181827047818A21F00801818292
:102230007047002904D0818941F4004181817047B1
:102240008189C1F30E0181817047002904D0818A00
:1022500041F4006181827047818A21F400618182AA
:102260007047828A22F004028282828A0A43828232
:102270007047002904D0818A41F0020181827047B1
:10228000818A21F002018182704702460020128873
:102290000A4200D0012070478A05C9430180704777
:1022A00070B5002440F66A12C1F3421301F01F0515
:1022B000012606FA05F2012B0CD0022B0DD0838AE1
:1022C0001340090A8E40008830400BB100B1012450
:1022D000204670BD83891340F3E7038A1340F0E77B
:1022E00040F66A120A0A01219140C94301807047F1
:1022F000003801400044004000480040004C0040CD
:102300000050004010B56FF00400FEF7BBF8204805
:1023100020490068B0FBF1F01F49C0B2087000EB23
:102320004002C2EBC0104FF6FF7202EAC0004880C4
:1023300010BD1949097848434FF0E0214861002356
:102340008B61086940F0010008610869C20701D08B
:10235000C003FAD5086920F0010008618B6170475D
:102360000D49498848434FF0E021486100238B61C3
:10237000086940F0010008610869C20701D0C00384
:10238000FAD5086920F0010008618B6170470000F0
:102390000000002000127A0090000020714A1140D5
:1023A00001437148016070470721814309026E4A69
:1023B000121D10684FF6FF0318406C4B184308437A
:1023C00010607047F0B505460F4614461E4630466D
:1023D000FFF7EAFFC6F1040085400F22F2403A40C1
:1023E0002A436009800000F1E020D0F8001104F0D9
:1023F0001F050123AB401943C0F8001104F1E0248C
:1024000094F8000440EA021084F80004F0BD70B5AE
:102410008B088C07240F564DAE6946F00106AE615D
:102420009D00544B2B449D680F26A640B5439D60EC
:102430009D68A04005439D604F4B1C68012088406B
:1024400004431C60D10704D04B4B0C331968014383
:102450001960910704D5484908310A6802430A60A7
:1024600070BD434800210161C16014224261816155
:10247000C161026842F00102026042683F4B1A40AB
:10248000426002683E4B1A400260026822F48022D9
:102490000260426822F4FE0242608160C0037DE770
:1024A00031480830016841F0040101603048C169D9
:1024B00041F08051C1613348416841F4807141600D
:1024C000016841F004010160016841F0020101600E
:1024D000FDF75ABE25482449001D091D08607047B4
:1024E00041062348826942F0010282612148426824
:1024F00022F0E062426042680A434260704730B5B1
:1025000005460024FFF7ADFF1949086840F4803004
:1025100008600A68520CFCD04FF480604860AD1E21
:10252000E8B24A6842EA80404860486840F4803037
:1025300048601548026842F032020260086840F0C4
:10254000807008600868400EFCD0486840F00200C7
:10255000486003E04868800800F00304022CF9D1C9
:1025600030BD000080FFFF1F08ED00E00000FA050D
:102570000010024000000140000401400000FFF88C
:10258000FFFFF6FE00700040002002407047FD494A
:102590000A885206FCD5FB4AC1B2121D1180704751
:1025A00030B587B00446012144F20400FEF76FFE07
:1025B0004FF40071ADF8181003208DF81A001820A0
:1025C0008DF81B00F04D06A92846FEF704FC2915DE
:1025D000ADF8181004218DF81B1006A92846FEF747
:1025E000FAFB25208DF8040001218DF805108DF8E7
:1025F00006108DF8071001A8FDF701FF02940020D6
:10260000ADF80C00ADF80E00ADF81000ADF81400F8
:102610000C20ADF81200DB4C02A92046FFF7ECFCC1
:10262000012240F225512046FFF76DFD0121204691
:10263000FFF75DFD07B030BDD249091D0880081FB6
:1026400001884906FCD5704700B50022CF4B985C45
:10265000FFF7F2FF521CD2B20C2AF8D300BD82B0B1
:10266000000400EB012010440190019802B003F037
:10267000FBBA01EB0020704710B501EB002002F01F
:10268000A1FE0022C24B02F0D1FCBDE8104002F0D6
:10269000DFBB10B5024600200021BC4B0C3306E026
:1026A000092A07D05C18E47A6040491CC9B29142FB
:1026B000F6D310BD5C5C6040F7E710B501EB00207D
:1026C00002F080FE0022B24B02F0B0FCBDE81040E8
:1026D00002F0BEBB2DE9F05FAA4D40F22554214621
:1026E0002846FFF7DDFD002875D02846FFF764FD7A
:1026F000C5B22146A348FFF7F3FDA648A64EDFF872
:102700009CA20078A64FA74CA749DFF8A0B2DFF83B
:10271000A092DFF8A0820022012801D10B789BB1A2
:10272000002858D10878012855D1A34B974819782B
:102730000C3000EB010C8CF80B507A2D01D00029E5
:102740007ED0491C1970D4E09B4B904819780C300E
:1027500045547B2D00D011B1491C197000E01A704E
:1027600019780B2937D11A70417832780546914291
:1027700031D1A87A7D282ED10920FFF78AFF697A06
:10278000884228D1A8782E468AF80000F1788BF884
:102790000010327989F80020DFF820A2DFF820B29B
:1027A00001281AD0022826D003287DD0042812D16F
:1027B000B1797079FFF781FF82490860317AF07949
:1027C000FFF75AFF03F06CF852465B4602F02EFC0E
:1027D00002F03EFB3860BDE8F09F317AF079FFF7F8
:1027E0004BFF03F05DF852465B4602F01FFC02F01F
:1027F0002FFB3860EFE7C9B3B1797079FFF739FF84
:1028000002F0E0FD04460D4699F8000002F0DAFD02
:102810006D4A6E4B02F026FE6FF0040203F01BFCC3
:1028200022462B4602F01EFE0022594B02F0FEFB10
:1028300002F054FDD8F80010081AC8F8000000E0B3
:1028400056E06348D8F80010814201DDC8F8000066
:10285000317AF079FFF710FF03F022F852465B4619
:1028600002F0E4FB02F0F4FA3860B4E7FFE7B17974
:102870007079FFF7FEFE02F0A5FD04460D4699F8BB
:10288000000002F09FFD504A504B02F0EBFD6FF04C
:10289000040203F0E0FB22462B4602F0E3FD002297
:1028A0003B4B02F0C3FB00E007E002F017FDD8F855
:1028B00000100844C8F80000C1E7B1797079FFF74B
:1028C000D8FE02F07FFD434A434B02F0CBFD02F0FD
:1028D00035FD2080317AF079FFF7CEFE02F0E0FF7F
:1028E00052465B4602F0A2FB02F0B2FA386072E791
:1028F0001A7019780C29B8D11A700546807D7B288A
:10290000B3D10A20FFF7C5FE697D8842ADD1297B8E
:10291000012008390829A8D2DFE801F0D9D5040B35
:102920000F23AABB04208AF800002C49687B08709A
:1029300051E72B49687B08704DE78AF80000294968
:10294000687B0870E97BA87BFFF796FE02F0A8FF82
:102950004FF06632244B02F069FB02F079FA3860DE
:1029600039E702208AF800009BF80000F0B3A97B49
:10297000687BFFF77EFE02F025FD04460D4699F8C0
:10298000000034E00038014000080140F800002059
:10299000000024404A0000201A00002014000020FB
:1029A0003C0000203A0000204B00002015000020D1
:1029B0003800002020000020940000201F85EB51EB
:1029C000B81E1940340000209E7B0F971CC7314071
:1029D00080FDFFFF5C8FC2F528DC434048000020EB
:1029E000490000201900002066664F401CE002F0FC
:1029F000E9FCEC4AEC4B02F035FD6FF0040203F009
:102A00002AFB22462B4602F02DFD0022E74B02F066
:102A10000DFB02F063FCD8F80010081AC8F800009B
:102A20004FF080403860D6E6A97B687BFFF721FE37
:102A300002F0C8FC04460D4699F8000002F0C2FC02
:102A4000D84AD94B02F00EFD6FF0040203F003FBED
:102A500022462B4602F006FD0022D44B02F0E6FA95
:102A600002F03CFCD8F800100844C8F80000D7E792
:102A700003208AF80000A97B687BFFF7FAFD02F0CB
:102A8000A1FCCB4ACB4B02F0EDFC02F057FC2080BE
:102A9000A1E6C9490870687B89F80000A87B3070FE
:102AA0006A7C297CE87BFFF7DAFD03F0A5F8C349CF
:102AB00008602A7DE97CA87CFFF7D1FD03F09CF833
:102AC000BF49086087E6BF49687B087083E6BE4956
:102AD000087080E630B587B004460121BB48FEF798
:102AE000E1FB4FF48061ADF8181003208DF81A0057
:102AF00018208DF81B00B64D06A92846FEF76BF985
:102B0000E914ADF8181004218DF81B1006A9284609
:102B1000FEF761F927208DF8040001218DF80510DA
:102B20008DF806108DF8071001A8FDF768FC0294D7
:102B30000020ADF80C00ADF80E00ADF81000ADF8B7
:102B400014000C20ADF81200A24C02A92046FFF799
:102B500053FA012240F225512046FFF7D4FA012111
:102B60002046FFF7C4FA65E52DE9F05F994D40F284
:102B7000255631462846FFF793FB00284ED02846BD
:102B8000FFF71AFBC4B231462846FFF7A9FB934969
:102B9000914E4878345400227B2C00D010B1401C58
:102BA000487000E04A7048780B2837D14A708C4949
:102BB00070780978884231D1B07A7D282ED10920E9
:102BC000FFF767FD717A884228D18649B07808708E
:102BD000854AF1781170DFF81492327989F8002073
:102BE00001281CD0DFF8088202282DD0032867D0E6
:102BF000042813D1B1797079FFF75FFD7D49086032
:102C0000317AF079FFF738FD02F04AFE7A4A7B4BC1
:102C100002F00CFA02F01CF9C8F80000DBE5317A8A
:102C2000F079FFF729FD02F03BFE02460B4600203B
:102C3000734902F0FBF9704A704B02F0F7F902F0A9
:102C40007DFB70490860C6E5DFF858A1DFF858B190
:102C50006D4FA1B3B1797079FFF70BFD02F0B2FBB4
:102C600004460D4699F8000002F0ACFB52465B4664
:102C700002F0F8FB6FF0040203F0EDF922462B4658
:102C800002F0F0FB0022494B02F0D0F902F026FBE3
:102C90003968081A38605D483968814200DD38605B
:102CA000317AF079FFF7E8FC02F0FAFD524A534B13
:102CB00002F0BCF902F0CCF8C8F800008BE500E0A7
:102CC00021E0B1797079FFF7D4FC02F07BFB044678
:102CD0000D4699F8000002F075FB52465B4602F083
:102CE000C1FB6FF0040203F0B6F922462B4602F056
:102CF000B9FB00222D4B02F099F902F0EFFA396886
:102D000008443860C7E7B1797079FFF7B2FC02F088
:102D100059FB284B3E4A3D3302F0A4FB02F00EFB68
:102D20003C490880317AF079FFF7A6FC02F0B8FD43
:102D3000314A324B02F07AF902F08AF8C8F8000002
:102D400049E510B5024600200021234B0C3B03E06F
:102D50005C5C6040491CC9B29142F9D310BD10B50A
:102D60001D4C7A200C3C20702B480078607020208D
:102D7000A0701B480078E07010480068010C2171B9
:102D8000010A6171A0710E480068010CE171010A2D
:102D9000217260720A20FFF7D4FFA0727B20E072DC
:102DA00010BD00009E7B0F971CC7314000002440DF
:102DB00052B81E85EBDB4340250000206000002058
:102DC000280000204C0000202400002008000400FF
:102DD000000C014000480040040100209400002045
:102DE0001A000020140000201500002038000020E8
:102DF0003C000020340000201F85EB51B81E194014
:102E000000708740640000202000002080FDFFFF4C
:102E10005C8FC2F53A0000201700002008B50121A0
:102E20001020FEF734FA28208DF803004FF480407C
:102E3000ADF8000069463A48FDF7CDFF08BD38B54A
:102E400001210C20FEF723FA48248DF803404FF4AB
:102E50004040ADF8000069463248FDF7BCFF8DF8F0
:102E600003404FF48070ADF8000069462E48FDF72E
:102E7000B2FF38BD10B52D480468002301202C494D
:102E80002C4A012C02D00B70107010BD087013700A
:102E900010BD2DE9F047284C0225284F2078DFF897
:102EA000A080284EDFF87C9000281AD04FF4804A8A
:102EB00051464846FDF7EAFF002810D151464846E2
:102EC000FDF7E4FF00280AD13D701F484146006825
:102ED00002F012FF02F074FE306000202070BDE8A6
:102EE000F0874FF4004A51464846FDF7CFFF0028CF
:102EF000F5D151464846FDF7C9FF0028EFD13D7096
:102F000012480125057012484146006802F0F4FE9F
:102F1000104902F0F9FF02F053FE30602570DEE741
:102F200000100140000C014000080140380122421D
:102F30004A0000204B000020160000201400002052
:102F40000000C8C52000002044000020150000201B
:102F5000400000200000164408B501210820FEF7BB
:102F600096F94FF40070ADF8000010208DF80300C2
:102F700003208DF8020069460C48FDF72CFF08BDC0
:102F800010B500240A4A00280CD00A4B1968491CC5
:102F90001960814205D1D2F8A401C043C2F8A4014E
:102FA0001C6010BDC2F8A44110BD0000000C01401F
:102FB000008021429800002070B58AB004460D467A
:102FC00001210846FEF76EF901210420FEF75FF9A2
:102FD0000222ADF8242018228DF8272003228DF834
:102FE000262009A98548FDF7F6FEADF81C40ADF88E
:102FF00018500024ADF81E40ADF81A404FF080463E
:1030000006A93046FEF782FA3020ADF80800012507
:10301000ADF80A50ADF80E40ADF8104002A93046A8
:10302000FEF7E6FA1C208DF804008DF805408DF8B7
:1030300006408DF8075001A8FDF7E1F9042130465C
:10304000FEF78EFF002204213046FEF74AFD0021E4
:103050003046FEF72CFD0AB070BD30B589B00121B5
:103060000846FEF71FF901210420FEF710F904209D
:10307000ADF8200018208DF8230003208DF82200E1
:1030800008A95E48FDF7A7FE4FF6FF70ADF81800DF
:103090000E20ADF814000024ADF81A40ADF816402B
:1030A0004FF0804505A92846FEF730FA6021ADF8BB
:1030B00004100121ADF80610ADF80A40ADF80C403F
:1030C00001A92846FEF7D4FA08212846FEF702FE99
:1030D00001212846FEF7EBFC4BF62D212846FEF792
:1030E0000FFF09B030BDF8B501210C20FEF7CFF875
:1030F000B820ADF8000010258DF8035003248DF89A
:1031000002403E4E69463046FDF765FE2103ADF8AC
:1031100000108DF803508DF8024069463848FDF7DD
:103120005AFE80213046FDF7C5FE20213046FDF7CE
:10313000C1FEF8BD70B5314C314E6514082833D04E
:1031400004DC022814D0042804D11FE0102839D050
:10315000202845D008212046FDF7AEFE102120464C
:10316000FDF7A8FE29463046BDE87040FDF7A4BE35
:1031700008212046FDF79EFE10212046FDF79CFE0B
:1031800029463046BDE87040FDF796BE082120462E
:10319000FDF790FE10212046FDF78EFE29463046B1
:1031A000BDE87040FDF786BE08212046FDF784FE8D
:1031B00010212046FDF77EFE29463046BDE87040CE
:1031C000FDF778BE08212046FDF774FE1021204649
:1031D000FDF770FE29463046BDE87040FDF76ABE37
:1031E00008212046FDF768FE10212046FDF762FE0B
:1031F00029463046BDE87040FDF75EBE000801403C
:10320000000C014070B5E74D00240123002902D0D5
:10321000C5F8BC3101E0C5F8BC410021E24AC2F862
:103220009441060602D5C2F8903101E0C2F89041FF
:10323000C2F894314006000E491CC9B20829EED3E9
:10324000C5F8BC3170BD70B50025D84E05F1B00091
:10325000C0B20021FFF7D6FF00210846FFF7D2FFDA
:1032600000211020FFF7CEFF002406EBC40001214F
:10327000405DFFF7C7FF641CE4B2802CF5D36D1CE2
:10328000EDB2082DE2D370BD00B500218D20FFF70F
:10329000B9FF00211420FFF7B5FF0021AF205DF832
:1032A00004EBAFE700B500218D20FFF7ABFF002155
:1032B0001020FFF7A7FF0021AE205DF804EBA1E787
:1032C00010B40021B94B0022002003EBC00462546B
:1032D000401CC0B28028F8D3491CC9B20829F3D3D6
:1032E00010BCB0E710B57F2813D83F2911D80723A9
:1032F000A3EBD103DBB201F00701C1F10704012107
:10330000A140C9B2A94C04EBC0001AB1C25C0A4387
:10331000C25410BDC25C8A43C25410BD2DE9F04FA7
:1033200083460D469846A946203A02F0FF0A002639
:1033300033E0B8F10C0F0CD09D4800EB0A10845D0F
:10334000002720060CD529465846099AFFF7CAFFE0
:103350000DE098490AEB4A0001EB8000845DEFE73D
:10336000099890B1002229465846FFF7BBFF600636
:10337000040E6D1CEDB2A5EB0900404507D14D468A
:103380000BF1010B0BF0FF0B05E00122EBE77F1CBB
:10339000FFB2082FD5D3761CF6B24645C9D3BDE897
:1033A000F08F0346012000E05843491EC9B2FBD20A
:1033B00070472DE9FF4F81B08046DDF838B0924666
:1033C0001D46002600244FF001094FEA5B071FE06D
:1033D000281B401EC1B20A20FFF7E3FFBAFBF0F042
:1033E0000A21B0FBF1F201FB120026B9691E8C42E2
:1033F00001DA88B101263030C2B207FB0480C0B2C6
:103400005B46CDF800900299FFF788FF641CE4B298
:10341000AC42DDD305B0C2E707FB0480C0B25B4617
:103420002022CDF800900299FFF778FFEEE7F8B57B
:1034300004460D461646012714E07A2C02D90024D2
:103440001035EDB23A2D03D900242546FFF738FF99
:10345000009732780C2329462046FFF75FFF083497
:10346000E4B2761C30780028E7D1F8BD38B50121E8
:103470000820FDF70CFF3820ADF8000010248DF86F
:10348000034002258DF8025069464B48FDF7A3FC26
:1034900001210420FDF7FBFEE002ADF800008DF8ED
:1034A00002508DF8034069464448FDF794FC012022
:1034B000FDF780FD0020FDF774FE0020FDF702F807
:1034C0000020FDF777FD3E4C002020606420FEF7D1
:1034D00047FF012020600021AE20FFF793FE00216E
:1034E000D520FFF78FFE00215020FFF78BFE002133
:1034F000A820FFF787FE00213F20FFF783FE002171
:10350000D320FFF77FFE00210846FFF77BFE002156
:103510004020FFF777FE00218D20FFF773FE00218A
:103520001420FFF76FFE00212020FFF76BFE002123
:103530000220FFF767FE0021A120FFF763FE0021B4
:10354000C020FFF75FFE0021DA20FFF75BFE0021BD
:103550001220FFF757FE00218120FFF753FE0021C4
:10356000EF20FFF74FFE0021D920FFF74BFE00218F
:10357000F120FFF747FE0021DB20FFF743FE00218B
:103580003020FFF73FFE0021A420FFF73BFE002183
:10359000A620FFF737FE0021AF20FFF733FEFFF72D
:1035A0008FFE38BD00002142008021421B01002017
:1035B00056650008E2600008000C01400008014068
:1035C0008C81214210B588B001210420FDF76AFEEC
:1035D00001210820FDF75BFEC020ADF80000482067
:1035E0008DF8030069463448FDF7F5FB05A8FEF7A2
:1035F0003AFA0020ADF814004FF6FF71ADF818103C
:10360000ADF81A00ADF816002C4C05A92046FDF7C0
:103610007DFF00231A4603212046FEF7E2FA01A8A7
:10362000FEF734FA0A21ADF80C1001A92046FEF786
:103630009BF91E218DF8101001218DF81310022125
:103640008DF811108DF8121004A8FCF7D8FE012196
:103650002046FEF776FC012211462046FEF741FA8D
:1036600000212046FEF744FC01212046FEF71FFA08
:1036700008B010BD1148243000881149098800EBBA
:103680000140704710B50D4C01212046FEF752FC59
:10369000012810D121882046CA06094903D50A68A5
:1036A000521E0A6002E00A68521C0A60BDE810401F
:1036B0000121FEF755BC10BD000C01400008004080
:1036C0001C00002070B588B004460D460121022080
:1036D000FDF7E8FD01210C20FDF7D9FD4022ADF8F2
:1036E0001C2018228DF81F2003228DF81E2007A908
:1036F0008248FDF770FBADF81440ADF8105000247F
:10370000ADF81640ADF812408DF818407C4E04A973
:103710003046FDF7FBFEADF80440ADF8064001254C
:10372000ADF80850ADF80A40ADF80C4001A930469C
:10373000FEF71AF91D208DF8000002218DF8011006
:103740008DF802108DF803506846FCF758FE0122F0
:1037500002213046FEF7C5F902213046FEF700FC93
:1037600001213046FEF7A3F908B070BD2DE9F047FE
:10377000644CDFF88C81DFF8889160880025012691
:103780005F4F08F1240809F134091E282CD20221C8
:103790003846FEF7D9FBD8B1207810B1012817D1EF
:1037A00003E02670A8F8005012E0B9F80000627833
:1037B000616801EB0241014461606088401C80B295
:1037C00060801E2802D1B1FBF0F06060657025704A
:1037D00001213846FEF7B8FB78B3207801282CD1B8
:1037E0006078401C607028E002213846FEF7ACFB90
:1037F000C0B1217811B1012914D107E02670A8F8D1
:10380000005002213846FEF7B5FA0BE0B9F8000087
:10381000617800EB0140A06065702570002138469A
:10382000FEF7A8FA01213846FEF78EFB28B1207872
:10383000012802D16078401C60703846BDE8F0472E
:103840000321FEF78DBB2DE9F04706460024002535
:103850002D4F1BE0DFF8AC80D8F8040002F004FA2A
:103860008146D8F8080002F0FFF9494602F0B2F8A4
:10387000394602F041FA4FF07E5102F045FB2946ED
:1038800002F03AF8054600BF641CA4B2B442E1D38A
:10389000304602F0E9F90146284602F09BF8394625
:1038A00002F098F8194E314602F026FA05461848FB
:1038B000184C0178012902D12560002101702846A9
:1038C000216802F0E5FA04D32846216802F044F9A1
:1038D00004D12846216802F017FB06E0314628464D
:1038E00002F00AF8216802F00FFB3146884203DD3E
:1038F000BDE8F04702F008BBBDE8F08700080140D2
:10390000000400409C000020001080450000B443EB
:1039100049000020300000207FB504460D461922E2
:103920008DF8002002228DF8012003228DF802205C
:1039300001228DF803206846FCF761FD0121C802D1
:10394000FDF7A5FCADF80840ADF804500020ADF837
:103950000600ADF80A00094C01A92046FDF7D6FD86
:1039600001212046FEF7EDFA012211462046FEF71E
:10397000B8F801212046FEF79AF87FBD002C0140DF
:103980002DE9F04786B0DDF838800024FA4DFB4E73
:103990002D68B54201D1062331E0F94EB54201D17F
:1039A0000C232CE0A5F57436903E08D0A5F5F4362E
:1039B000483E06D0F34EB54205D13C231FE0182304
:1039C0001DE030231BE0A5F54346503E0ED0A5F583
:1039D0009C46203E0CD0A5F51C564FF41677103EA1
:1039E00009D0A5F59856883E07D008E0782306E070
:1039F0004FF4967303E03B4601E009223B46A8B32F
:103A0000A1B39AB393B3401EC6B2491ECFB2521EA1
:103A100002F0FF095B1E1FFA83FA01214806FDF739
:103A200041FC01210420FDF732FC4FF40060ADF8A9
:103A3000140048208DF81700D34D05A92846FDF73E
:103A4000CAF9A914ADF8141018208DF81700032036
:103A50008DF8160005A92846FDF7BDF9CB4D0022CB
:103A60002A60286840F0010028600AE0FFE7012092
:103A700006B0BDE8F087641CA4B2642C01D9022012
:103A8000F6E72868C007F6D028682860286828600C
:103A9000286840F01000286028682860286828609E
:103AA000BA491C310A60086840EA887008600868F2
:103AB00040EA06600860086840EA07500860086845
:103AC00040EA09400860086840EA0A00086028687F
:103AD00020F0010028604FF6F07005E0641CA4B2ED
:103AE000844201D90320C3E72968C907F6D101241C
:103AF0008DF80A408DF80B208DF80C40ADF80020B1
:103B0000ADF80420ADF80620ADF808208DF80D4082
:103B10006846FCF7B5FD14208DF810008DF81140B3
:103B20008DF812408DF8134004A8FCF768FC0122C0
:103B300002212846FCF7FAFF002099E7F0B5064677
:103B4000059D924808300468640101D5002008E012
:103B50000468240101D5012003E00068C0003AD5C3
:103B600002208B4C002704EB0014C4F8807589B345
:103B7000F60004F5B064276837432760266846EAF4
:103B800081012160216841EA4201216003F00F01B7
:103B9000626822F00F02626062680A4362602979FB
:103BA000EA796B7941EA0261AA79120442EA0322B6
:103BB0001143E1602978EA786B7841EA0261AA78DA
:103BC000120442EA03221143A160216841F001017D
:103BD0002160F0BD01E0FF20FBE77605C9E76B49F6
:103BE0000831002805D0012810D002281BD005205C
:103BF0007047086800F001000A6802F00202024300
:103C0000086800F0806042EA10607047086800F0C1
:103C100001000A6802F002020243086800F0006036
:103C200042EA50607047086800F001000A6802F03C
:103C300002020243086800F0805042EA9060704738
:103C4000002803D0012807D0002070474F480C30CF
:103C5000006800F0030070474C481030006800F026
:103C600003007047F0B5DDE90575494C04EB00141D
:103C7000D4F8B06506F004061670002E2DD0D4F8E6
:103C8000B025D2080A6004F5B664216801F002018B
:103C90001970616801F00F013970A1682970A1687D
:103CA000090A6970A168090CA970A168090EE97078
:103CB000E1682971E168090A6971E168090CA97173
:103CC000E168090EE97168B1012882D12F481030EE
:103CD000016841F0200101607BE7D4F8B025520D66
:103CE0000A60D0E729480C30016841F020010160EA
:103CF0006FE72DE9F04F89B003A805A9CDE90010C1
:103D000006AB07AA08A90020FFF7ACFF21490898D5
:103D1000097888422DD120499DF80C0008701F4A6F
:103D20009DF80D101170DFF878909DF80E2089F83D
:103D300000201C4E01283DD002284BD003287DD006
:103D4000042816D19DF810109DF80F00FEF7B5FC61
:103D5000154908609DF812109DF81100FEF78CFCC3
:103D600001F09EFD114A124B01F060F901F070F86C
:103D7000306009B0BDE8F08F6000002040420F00C5
:103D800020A10700A0860100000801400064004057
:103D9000006000401A0000201400002015000020E0
:103DA000380000203C0000203400002068A174543A
:103DB000FB2119409DF812109DF81100FEF75CFCE4
:103DC00001F06EFD7B4A7C4B01F030F901F040F8C8
:103DD0003060CEE7DFF8E481DFF8E4A1794F6FF0DF
:103DE000040B61B39DF810109DF80F00FEF741FC25
:103DF00001F0E8FA04460D4699F8000001F0E2FAF5
:103E00004246534601F02EFB5A4602F024F9224660
:103E10002B4601F027FB00226B4B01F007F901F064
:103E20005DFA3968081A386068483968814200DDEF
:103E300038609DF812109DF8110001E02FE00BE0B2
:103E4000FEF71AFC01F02CFD5A4A5B4B01F0EEF82C
:103E500000F0FEFF30608CE79DF810109DF80F0019
:103E6000FEF707FC01F0AEFA04460D4699F8000093
:103E700001F0A8FA4246534601F0F4FA5A4602F01D
:103E8000EAF822462B4601F0EDFA00224E4B01F0F3
:103E9000CDF801F023FA396808443860C4E74C498A
:103EA0009DF80F0008809DF812109DF81100FEF794
:103EB000E3FB01F0F5FC3F4A3F4B01F0B7F800F09F
:103EC000C7FF306055E738B500240B46002200904C
:103ED000114640F20160FFF731FE054640F6FF73E0
:103EE00001E0641CA4B22846FFF779FE072801D040
:103EF0009C42F6D39C4201D3012038BD002038BD3E
:103F000000B586B001460020FFF79AFE60B102A816
:103F1000CDE9000103AB04AA05A90020FFF7A2FE2A
:103F20000598122809D102E0002006B000BD9DF8D6
:103F3000100010B99DF80C0008B1002002909DF807
:103F40000800F2E738B500240B4600220090114625
:103F500040F20170FFF7F2FD054640F6FF7301E005
:103F6000641CA4B22846FFF73AFE072801D09C4201
:103F7000F6D39C4201D3012038BD002038BD38B5AE
:103F800000240022009108231146FFF7D7FD0546C3
:103F900040F6FF7301E0641CA4B22846FFF71FFE41
:103FA000072801D09C42F6D39C4201D3012038BDA2
:103FB000002038BD68A17454FB2119409E7B0F97E7
:103FC0001CC73140200000200000244080FDFFFF7E
:103FD0003A000020AD48AC494160AD4941607047AE
:103FE000AA48016941F0800101617047A748C06893
:103FF000C10701D001207047410701D50220704759
:10400000C00601D5032070470020704770B50446F4
:10401000FFF7ECFF0546012D05D1FEF78AF9641E76
:10402000A4B2002CF4D104B9FF25284670BD70B5A8
:10403000054645F6FF763046FFF7E8FF002812D127
:10404000924C206940F0020020616561206940F0D7
:10405000400020613046FFF7D9FF012803D02169D5
:1040600021F00201216170BD70B506460D46FF20AA
:10407000FFF7CCFF00280ED1844C206940F00100EE
:1040800020613580FF20FFF7C1FF012803D021699F
:1040900021F00101216170BD008870472DE9F041D8
:1040A00005460E461746002407E036F81410284649
:1040B000FFF7DAFFAD1C641CA4B2BC42F5D3BDE827
:1040C000F08110B50446002307E02046FFF7E4FF27
:1040D00021F81300A41C5B1C9BB29342F5D310BDC6
:1040E0002DE9F05F82460F461546AAF10062B2F54F
:1040F000803F52D2FFF76EFF4FEA9228C2F3480684
:10410000C6F50074A54200D82C46DFF888B137E028
:1041100032183BF812208A4203D1401C80B2A042E0
:10412000F6D3A04214D24846FFF781FF002006E0F4
:10413000821937F810102BF81210401C80B2A042E0
:10414000F6D348464FF400725249FFF7A7FF04E048
:10415000224639465046FFF7A1FFA54202D1BDE8ED
:10416000F05F3DE708F10108002607EB44070AEB82
:10417000440A281B85B24FF40074A54200D82C468F
:104180004FF0006000EB8829821442494846FFF74F
:1041900098FF00204FF6FF71C1E7BDE8F09F13B50F
:1041A000012201A9FFF79CFF1CBD2DE9F05F3949F1
:1041B0000A2214393848FFF784FF364F4FF6FF7C48
:1041C000143FDFF8D8803D88DFF8D490DFF8D4A022
:1041D000DFF8D4B0354C65450ED07E8866450BD0EF
:1041E000B988614508D0FB88634505D03A896245A6
:1041F00002D0788960450FD1202088F800002C4833
:10420000C9F800004FF4E130CAF8000001208BF833
:10421000000000202060C0E788F8005001EB064154
:10422000C9F8001002EB0341CAF800108BF8000037
:10423000B88901F0C7F800221E4B00F0F7FE00F02D
:1042400007FE2060A9E710B51448124C283C0078FE
:10425000208013480068010C6180A080114800682C
:10426000010CE18020811048007860810F481249DC
:10427000006801F041FD01F0BFFCA0812146BDE8CE
:1042800010400A2204482BE7230167450020024022
:10429000AB89EFCD4405002000E000083800002085
:1042A00060000020280000201A00002030000020BC
:1042B00040420F00000059400000C842002800DAC8
:1042C0004042704710B504210C0701222046FDF73B
:1042D00008FC01212046FDF7EAFBBDE810408021E3
:1042E000FD48FCF7E7BD10B504210C07002220466D
:1042F000FDF7F7FB2046BDE810400021FDF7D7BBD6
:104300002DE9F041F5490968081A01F095FC0746C6
:10431000F34C3946206C01F0EFFA2064F1498842F1
:1043200000DD2164F048216C814200D920643846C8
:10433000616C01F0E9FDE16801F0DEFCDFF8AC83BF
:10434000414601F047FB0546216C206901F0D4FC91
:10435000414601F03FFB06463946A06801F0CCFC1F
:10436000414601F037FB314601F0C6FA294601F01B
:10437000C3FAA0646764BDE8F04101F021BC2DE9F7
:10438000F05FDB490968A1EB0008DFF85493D9F826
:1043900034004044C9F83400D9F838A0CAF100000C
:1043A00008EB400001F048FCD9F81C1001F0A4FC17
:1043B00001F076FADFF83CB300225B4600F036FEEF
:1043C00004460D46404601F037FCD9F8141001F0C0
:1043D00093FC01F065FA00225B4600F027FE0646DA
:1043E0000F46A8EB0A0001F027FCD9F8181001F0DD
:1043F00083FC01F055FA00225B4600F017FE3246BE
:104400003B4600F057FD22462B4600F053FD044684
:104410000D46D9F84C0001F043FA22462B4600F035
:1044200049FD00F015FDC9F84C00C9F83880BDE819
:10443000F09FB149884201DD08467047AF49884284
:10444000FBDA084670472DE9F05FAD4FAD4E30689E
:10445000FFF7EFFF3060DFF8B0B2594601F04CFCD7
:10446000AA4901F0B7FA01F0C7FBA1490860DFF8DB
:10447000A0923868D9F80010401AFFF71FFFDFF844
:104480009482C8F80000FFF77AFFA34982460860CB
:10449000A248007800F096FF04460D46504601F011
:1044A000FFF9DFF87CA29F4B524600F0DBFF6FF074
:1044B000040201F0D0FD22462B4600F0D3FF024655
:1044C0000B460020984900F0B1FD00F007FFFFF710
:1044D000F5FE964904460860D8F8000001F0ACFBF0
:1044E000934901F009FC594601F074FA01F0D8F93A
:1044F000904A914B00F0B6FF00F0AAFC8F4908608B
:104500003868C9F80000306801F0CAF902460B4665
:1045100000208B4900F08AFD00228A4B01F0D6F87A
:1045200005460E46204600F036FF2A46334600F088
:104530005DFF05D26A498888052802D2401C888020
:1045400075E700208880C86438681E3000F023FFBB
:104550005246744B00F086FF00F0C0FE7A490860B6
:10456000BDE8F05F80215C48FCF7A6BC4BF62D212E
:10457000884200D90846704710F1FF4F01D380F000
:104580000040704700B5FFF799FE704991FBF0F0CD
:10459000B0F5803F02D34FF6FF7000BD80B200BD82
:1045A0002DE9F0416A49096801F0A3FC01F008FB1C
:1045B000FFF784FE01F040FB0546494C2946606A3E
:1045C00001F09AF9074660622846A16A01F09CFC56
:1045D0000646A07801F048FB314601F08DFB064607
:1045E000607801F041FB394601F086FB07462078F0
:1045F00001F03AFB294601F07FFB394601F07CF9D6
:10460000314601F079F9A56201F0F6FA80B2BDE811
:10461000F0812DE9F0474E4FDFF838913868494670
:10462000824601F071FC0146DFF834814A4E4B4C62
:10463000D8F8005011F1FF4F15D2B5F5000F0FDB80
:10464000284601F025FB0BD2D8F8000001F028F92C
:104650000022334600F02EFC00F0FAFB06461AE07A
:10466000D8F8006017E0A54213DA4946504601F039
:1046700043F9294601F00CFB0BD2D8F8000001F0F9
:104680000FF90022334601F021F800F0E1FB064665
:1046900001E0D8F800603868DFF8C8800025A04243
:1046A00000D13D603046396801F0F2FB02D8C8F80D
:1046B000B05102E00120C8F8B0013146386801F07D
:1046C00023FCFFF759FF2849184CDFF85480DFF826
:1046D0009C9088425ADA4BE0000801402C000020F0
:1046E000A80000200000A0410000A0C100007A4402
:1046F0005C00002000408F400000E040CDCC4C3DED
:10470000580000203C0000200000FA440000C8428D
:104710006C00002068000020740000203800002099
:104720009A999999999909400070E74050000020A2
:10473000000048421F85EB51B81E19407800002048
:1047400000708740000034402000002040420F00ED
:104750003400002000003443008076400000B44361
:1047600070000020008021420000A0409999E93F9C
:104770003046FFF715FF2060FFF704FF2060B0F51B
:10478000803F06DB4FF6FF70206002E040F2EE2033
:104790002060386801F084F842464B4600F096FFEE
:1047A00004460D463046FFF7E7FE01F079F8224651
:1047B0002B4600F055FF15D2386801F071F84246DB
:1047C0004B4600F077FB04460D463046FFF7D4FE1B
:1047D00001F066F822462B4600F008FE02D2BDE842
:1047E000F04780E5BDE8F0476CE570B5044620462B
:1047F00001F002FA064680B201F036FA054621467B
:1048000001F077FBB0F17C5F04DDB0B2401C01F039
:104810002BFA00E0284601F0EFF980B270BD2DE9D7
:10482000F05F4FF08140FF4900260E60C20149F25F
:104830001D319187FFF7FDFDDFF8ECA3514601F034
:104840005BFAFA4901F0C6F801F0D6F9F8490860B8
:10485000DFF8E083DFF8E093D8F80000D9F8001023
:10486000401AFFF72BFDF54F3860FFF788FDF4493C
:1048700083460860F348007800F0A4FD04460D4626
:10488000584601F00DF8F04AF04B00F0EBFD721FB6
:1048900001F0E1FB22462B4600F0E4FD02460B4608
:1048A0000020EB4900F0C2FB0022EA4B00F0DAFDE9
:1048B00000F0CEFAFFF799FFE74D0446286038680C
:1048C00001F0BAF9E54901F017FA514601F082F812
:1048D00000F0E6FFE24AE34B00F0C4FD00F0B8FA56
:1048E000E1490860D8F80000C9F80000AF2C11DADF
:1048F000FFF7F9FCDD4902200870DD4806702E60E4
:10490000DD48DC49006801F0F7F901F059F9DB49AD
:1049100008608CE5BDE8F05FD4E42DE9F05FD84C89
:1049200001212046FDF710FB002870D00121204610
:10493000FDF716FB6420FEF786FFD2490860CB4CDA
:10494000DFF844A3D14F20789AF80310DFF8E4B2DF
:104950000026884206D03E80CBF80060CC490E602D
:10496000B5490E60CB49DFF8DC820A78012A0FD105
:104970000E70202188F80010C74A01211170C84B21
:10498000C64A1A60C74B4FF4E1321A60C64A11702A
:104990008AF80300FEF76EFECBF80000FEF76AFA15
:1049A0001420FEF7EDFAFEF774FAB148007810B162
:1049B000FFF735FFDEE1FEF76CFA23784BF62D208A
:1049C0008207BA49DFF8B492B94C012B07D0A24F45
:1049D000022B52D0032B3BD0042BEBD12BE0C9F898
:1049E0000060B44B1B6813F0FF4F11D0B24D2B7811
:1049F00073B190870878C4F8B001FFF724FDFFF782
:104A000061FC287801280FD0022811D0B2E1B7E16B
:104A10003E80CBF800609E48066087480660CAF872
:104A20004C60FFF760FCA5E10120C4F8B001A1E1F2
:104A3000C4F8B0619EE19087C9F800609F48017892
:104A4000012902D106709E480660FFF7E2FD91E160
:104A50000878C4F8B001C9F8006098F8000045F67D
:104A6000C051B1FBF0F03860964B1888FFF77EFD1F
:104A700018809087FFF726FC7CE1D9F80000FFF74B
:104A80001DFC41F27073904D984278DD4EF6602027
:104A9000908764480978016098F8000000F092FC63
:104AA00000222B4600F0DEFC04460D46D9F800003B
:104AB00000F071FC22462B4600F0B8FA0022834B2E
:104AC00000F0D0FC00F00AFC81490860DBF800002F
:104AD000FFF716FC7F4C2060002803D00BDD514807
:104AE00006600BE0FFF7FFFB5348DBF800100160A6
:104AF000CAF84C603EE14B4901200860FFF7E2FB39
:104B0000D4F8009009F13100632801D2CAF84C6052
:104B100098F8000000F056FC04460D464846FFF7A2
:104B2000CDFB00F038FC484A484B00F09BFC0246A5
:104B30000B460020684900F079FA0022454B00F04E
:104B400091FC0022654B00F08DFC052201F083FAF8
:104B500022462B4600F06AFA00F0F0FB604C206021
:104B6000FFF771FC20683968884200D93860B0F5D9
:104B7000803F02D34FF6FF703860FBE0FFE749F655
:104B80004040908727480978016098F8000000F0BD
:104B900019FC00222B4600F065FC04460D46D9F8AE
:104BA000000000F0F8FB22462B4600F03FFA0022FE
:104BB000464B00F057FC00F091FB45490860DBF8DC
:104BC0000000FFF79DFB434C20601B49DBF80020F1
:104BD0000A60002803D005DD1248066005E0FFF7F3
:104BE00082FBC7E00F4901200860FFF76BFBD4F898
:104BF0000090DFF8F0B009F13100632801D2CAF863
:104C00004C6098F8000000F0DDFB04460D46484675
:104C1000FFF754FB00F0BFFB0B4A0C4B00F022FCEB
:104C2000024661E0B08121420000FA440000C8421F
:104C30005C000020580000206C000020680000206C
:104C400074000020380000209A9999999999094098
:104C50000000244000C0B240500000200000484244
:104C60001F85EB51B81E1940780000201400002069
:104C7000180000200000C8C54400002020000020CB
:104C8000002C014070000020A800002024080040F3
:104C90001C0000204C0000201A00002040420F00A1
:104CA00060000020280000202500002015000020C2
:104CB000008021423C000020190000204800002014
:104CC000340000203A0000200000694000409F406E
:104CD0002C0000205400002000003440000004405C
:104CE00064000020007087400B460020364900F029
:104CF0009DF90022354B00F0B5FB0022344B00F04B
:104D0000B1FB052201F0A7F922462B4600F08EF9EF
:104D100000F014FB2F4E82463060DFF8BC90D9F8CB
:104D2000000000F0BDFD02460B460020594600F091
:104D30007DF904460D46504600F044FB22462B46C2
:104D400000F08EFC02D2306838600CE0D9F8000028
:104D500000F0A6FD02460B460020594600F066F919
:104D600000F0BCFA38603068B0F5803F02D34FF6EF
:104D7000FF70386098F80000BDE8F05FFEF7DAB920
:104D8000C7E540F2CF21884200D20846704710B5EF
:104D900004210C072046FDF7D7F8002812D0042183
:104DA0002046FDF7DDF82046FDF7B9F80B49096804
:104DB00001EBD17100EB610081B22046BDE81040EB
:104DC000FDF79CB810BD00000000344000C0B240A8
:104DD00000000440640000203C000020500000203F
:104DE00070477047704770477047754600F02CF861
:104DF000AE4605006946534620F00700854618B0C8
:104E000020B5FBF7E5FABDE820404FF000064FF073
:104E100000074FF000084FF0000B21F00701AC46EF
:104E2000ACE8C009ACE8C009ACE8C009ACE8C0090E
:104E30008D46704710B50446AFF300802046BDE8AC
:104E40001040FBF79AB90000004870474409002061
:104E500021F00042A2F16052B2F5801F01F0004340
:104E600028BFD2F17F6C0BD95FEA001C43EAC20273
:104E700042EB507018BF704728BF20F00100704708
:104E8000B2F5801FBCBF184670474FEA410C1CF5B5
:104E9000001F02D2084600F0F6BF70B500F08CFB90
:104EA00000000089FFF7F6BF4FF00040A0F580003A
:104EB0007047000010B591EA030F48BF83F000432C
:104EC00000F10C84841A71EB030C05D2121943EB28
:104ED0000C03001B61EB0C01DFF824E14FEA1154D5
:104EE000A4EB135C1EEA430F18BF9EEA445F73D025
:104EF00023EA0E03DCF1200E21EA045143F480136F
:104F000032D322FA0CFE10EB0E0023FA0CFE41EB1A
:104F10000E01CCF1200E03FA0EFE10EB0E0051F143
:104F20000001B1F5801FCCF1200E32D201EB04510B
:104F300012FA0EF2BDE8104058BF7047401C38BF4F
:104F40005FEA420218BF7047002814BF20F001003A
:104F500041F100014FEA410313F5001F38BF7047CC
:104F6000A1F1C04100F076BB012A43EB0302ACF192
:104F7000200CDCF11F0E32BF4FF0000E23FA0CF3B1
:104F800010EB030041EB0451B4EB115FD0D0A1EB67
:104F9000045101F5801149085FEA300001EB04512A
:104FA0000ED350F1000038BF12FA0EFE08D1BDE852
:104FB0001040C9E7401C38BF5FEA4202CAD1C3E7CC
:104FC000BDE810404FEA410313F5001F38BF70479A
:104FD000A1F1C04100F03EBB9EEA445F08D011EA57
:104FE0005E0FBDE8104004BF01F000410020704793
:104FF000BDE8104070B500F0DFFA00BF64FBBE3EB4
:105000000000E0FF02494FF0000000F0F2BF00BFD7
:105010000000F87F491058BFC1F140415B1058BFF4
:10502000C3F140438B42EFF3008070472DE9C0414C
:1050300030B4DFF8A0C23CEA111418BF3CEA1314E4
:1050400000F0EC8081EA03051CEA111444EAD574EF
:1050500018BF1CEA131500F0C780A4EB05044FF03D
:10506000004545EAC12145EAC32341EA505143EADC
:10507000525304F17F74994204F500344FEAC02082
:105080004FEAC22208BF904200F09C804FEA1365AD
:105090000FF24016765D4FEA134506FB05F7C7F1A0
:1050A000807706FB07F74FEAD737A7FB03687642FE
:1050B000C8F58038A7FB06CE38BFA8F1010807FB6A
:1050C00008E64FF0000EA6FB028CE6FB03CEDCF1F7
:1050D000000CCEF1004E38BFAEF1010EA6FB0C580D
:1050E0004FF000074FF00005E6FB0E87A1FB08C656
:1050F000A0FB07CE16EB0E0645F10005E1FB0765A8
:1051000015F1E04E7EBFA4F580345FEA46066D419E
:1051100016F1800745F100054FEA17274FEA0666AA
:1051200047EA0567A6F1DE46B6F1805F4FEA15252E
:105130001FD9384624F0010C05EBC471BCF1FE6F99
:1051400001EB0C1102D8F0BCBDE8008124425CBF29
:1051500001F5801E9EEAC47F02D4F0BCBDE8008148
:10516000244238D4F0BCA1F1C041BDE8004100F0B8
:1051700071BA4FEAD22242EA43524FEAD323A7FB45
:1051800002864FEAD02040EA415007FB03661EEA40
:105190000E0F4FEAD12105FB026658BFA6EB005661
:1051A000B6EB00564FEA520E4EEAC37E18EB0E0ED7
:1051B00056EB530EBDD518EB02085E417F1C55F12E
:1051C0000005B6E74FF480154FF000074FF00006DA
:1051D0004FF00008ADE7F0BC4FF0000001F1C04116
:1051E00001F00041BDE8008111EA0C1F0CEA131523
:1051F00000D00CE013EA0C1F00F025804FF00000F7
:10520000F0BC81EA030101F00041BDE80081F0BC7F
:10521000BDE8004181EA030100F01CBAF0BCBDE822
:10522000004170B500F0C8F9097EFC3E00F007B8F7
:1052300081EA03014FF0000001F00041704781EA6C
:10524000030100F007BAF0BCBDE800414FF00000D8
:1052500021497047FFFDFBF9F7F5F4F2F0EEEDEBB5
:10526000E9E8E6E4E3E1E0DEDDDBDAD8D7D5D4D364
:10527000D1D0CFCDCCCBCAC8C7C6C5C4C2C1C0BFB0
:10528000BEBDBCBBBAB9B8B7B6B5B4B3B2B1B0AFB6
:10529000AEADACABAAA9A8A8A7A6A5A4A3A3A2A19A
:1052A000A09F9F9E9D9C9C9B9A9999989797969555
:1052B00095949393929191908F8F8E8E8D8C8C8BF1
:1052C0008B8A898988888787868585848483838279
:1052D000828181800000FF070000F87F4FEA4103D0
:1052E0004FEA5353A3F58063D3F11E03C8BFD3F134
:1052F000210C0CDD4FF0004242EAC12242EA50523A
:1053000032FA03FC8CEAE17CACEBE1707047102BC5
:10531000C4BF0020704703F5787CBCF1FF3F04D088
:105320006FF0004282EA2100704770B500F044F946
:105330004992248000207047F2E700004FEA1153A1
:10534000A3F58063D3F11E03A8BFD3F1200C08DBC3
:105350004FF0004242EAC12252EA505232FA03F0C0
:10536000704709420BD4102BC4BF0020704703F5CF
:10537000787CBCF1FF3F05D04FF0FF3070474FF015
:105380000000704770B500F017F900BF4992248003
:1053900000207047F0E710F0004248BF4042B0FAEA
:1053A00080F310FA03F10AD0C3F11D0303F5806303
:1053B0004FEA415002EB035202EBD12170474FF00C
:1053C00000007047B0FA80F310FA03F10AD0C3F17D
:1053D0001D0303F580634FEA41504FEA035202EB8D
:1053E000D12170474FF000007047000051EA030CD4
:1053F00017D41CF5801F58BFBCF5801F00F1068034
:10540000994218BF704708BF9042704707D711F5FF
:10541000801F58BF13F5801F19D4994270478942E5
:1054200070471CF5801F08D5BCF5801FF7D58B424F
:1054300018BF704708BF824270474FF4001C1CEB36
:10544000410F38BF1CEB430F01D28B42704770B540
:1054500000F0B2F8922449004FF000514FF0805311
:10546000FFF7D8BDDFF848C170B51CEA111E1EBF9A
:105470001CEA13159EEA0C0F95EA0C0F00F06F80E2
:1054800081EA030423EA4C134EEAD47E21EA4C114C
:1054900041F4801143F48013AE44A1FB024CA0FB05
:1054A0000365AEF17F7E361955EB0C05A1FB034C6D
:1054B0004CF10003A0FB021C16EB0C06654153F1F6
:1054C0000003094218BF46F0010613F4007F0BD118
:1054D0004FEA03314FEA0530340341EA155140EAFF
:1054E00016506FF003020AE04FEAC3214FEAC520CD
:1054F000F40241EA555140EA56506FF0020202EBC5
:105500002E4201EB025585EACE710AD05FEA440CC7
:1055100018BF24F0004450F1000041F1000120EADE
:10552000D47040F2FE7C624500D270BDA84214BF28
:105530004FF080444FF04044002E08BF0024BEF1DD
:10554000806FA8BFA1F1C041BDE8704080F28280A9
:105550004FF0000001F1C04101F0004170479EEAA8
:105560000C0F0CEA131518BF95EA0C0F06D04FF07C
:10557000000081EA030E0EF0004170BD00F01CF83F
:105580008900013E00F007B800F009B84FEA430C6B
:105590005FEA5C5C08D081EA030100F05BB84FEA87
:1055A000410C5FEA5C5CF6D14FF0000001497047A6
:1055B0000000FF070000F87F0EF1020E2EF0030E30
:1055C0005EF8046B364205D4012A43EB030515F55A
:1055D000001F12D8012841EB010C1CF5001F0CD84C
:1055E0000ED14FEAD17C15F5001F0CEB4C0C0CF1E1
:1055F000020C08BF4CEBD37C04E04FF0080C01E038
:105600004FEAD37C0CEB4C0526FA05F606F00706AC
:10561000B6F1040C06D20EEB860CBDE870404CF0DF
:10562000010C6047DFE80CF0090B02024FF000416B
:105630004FF00000A1F5002170BD19461046012869
:1056400051EB010418BFD4F5001484BF002001F011
:10565000004170BD0808A0F500114FEA3101704704
:1056600053EA010C17D41CF5801F58BFBCF5801FEE
:1056700000F106808B4218BF704708BF8242704716
:1056800007D713F5801F58BF11F5801F19D48B421F
:1056900070479B4270471CF5801F08D5BCF5801FE2
:1056A000F7D5994218BF704708BF904270474FF432
:1056B000001C1CEB430F38BF1CEB410F01D2994279
:1056C00070470FB40CBC03BCFFF7C1BE10B591EA24
:1056D000030F48BF83F000433FF5F4AB841A71EB2E
:1056E000030C07D212198CF0004C43EB0C03001B87
:1056F00061EB0C01DFF8A4E14FEA1154A4EB135C59
:105700001EEA430F18BF9EEA445F00F0B08023EA10
:105710006E03524221EA0451C3EB6E0338BF5B1E95
:10572000DCF1200E25D322FA0CFE10EB0E0043FA1A
:105730000CFE41EB0E01CCF1200E03FA0EFE10EB35
:105740000E0051F10001CCF1200E29D412FA0EF214
:1057500001EB0451BDE8104058BF7047401C1CBF0E
:10576000B2F1004F704700280CBF491C20F0010027
:10577000704712EB020E43EB030218BF4FF0010E0D
:105780004EEA4202ACF1200CDCF11E0E54D943FA71
:105790000CFE10EB0E0051F1FF31CCF11E0ED5D5F1
:1057A0000EF1010E12FA0EFE404141EB010101EB38
:1057B000445C5FEA5C5C10D910EBDE7001EB0451D5
:1057C00038BFBEF1004FBDE8104018BF7047002839
:1057D0000CBF491C20F00100704730D24FEAD42C96
:1057E00011F5001124F400641BD0B1FA81F20B3AD8
:1057F000A41AA41ED2F12003914030FA03F31943F6
:10580000904001EBCC71002C01EB0451BDE810403D
:10581000A8BF704701F1C0414FF0000001F0004106
:105820007047B0FA80F310FA03F100D110BDE41A0A
:10583000173C4805C90AE4E701EB045110BD4910C3
:1058400001EB0451BDE810404FEA300002E04FF098
:10585000000170474A0008BF0042F8D0B2F5001FAF
:1058600028BF704701F000414FF0000070479EEAEA
:10587000445F07D011EA5E0FBDE8104004BF00216D
:1058800000207047BDE8104070B5FFF795FE00BFDF
:1058900040DFF63E83F00041104670470000E0FF15
:1058A00043004FEAD30C4FEA3C0C43401FBF400774
:1058B0000CF1605113F0FE4F70471CF0006F03D1E4
:1058C00000200CF0004170470CF0004343EA507098
:1058D00010B540EACC0000F090FA00BF0000009242
:1058E0004FEA0001FFF7B6BE4FF000414FF0000055
:1058F000A1F500217047000090EA010F48BF81F038
:10590000004100F10883421A3CBF801A89184FEA0F
:10591000D0524FF07F4C1CEA410FA2EBD15318BF7D
:105920009CEA026F00F03B804FF0004C4CEA0020F4
:105930004CEA012121FA03FC10EB0C0C1ED202F1FF
:10594000FF325FEA1C2040EBC25038BF70471CF0AA
:105950007F0F4FEA400C18BFBCF17F4F38BF704734
:10596000C3F12003994008BF20F00100BCF17F4F34
:1059700038BF7047A0F1C04000F085BA4FEA3C0044
:10598000000A40EBC25028BF1CF0FF0F4FEA400C4A
:10599000E6D018BFBCF17F4F38BF7047EAE79CEAFA
:1059A000026F05D010EA5C0F08BF00F0004070479E
:1059B00010B500F022FA00BF64FBBE3E401058BF95
:1059C000C0F14040491058BFC1F140418142EFF35E
:1059D000008070474FF47F0C1CEAD0121EBF1CEAF7
:1059E000D11392EA0C0F93EA0C0F00F0858090EA35
:1059F000010F48BF42F4807240F4000C41F40000F3
:105A00002CF07F4120F07F4000B58142A2EB0302E1
:105A10000FF2081CACEB504EC0F100009EF800E005
:105A20004FEA4E0E00FB0EFC38BF49004FEA2C1C1B
:105A300002F5FA020CFB0EF34FEACE1E4FEA112CD0
:105A40004FEAC1210EEB635E42EB22420EFB0CFCDF
:105A50004FEA1C5300FB03114FEA112C4FEA0131AE
:105A60000EFB0CFC4FEADC4C00FB0C11C14228BFC2
:105A700009184CEB03335DF804EB10EB410143EBE9
:105A8000C250B2F57C0F38BF704729D512F0F00F25
:105A90001CBF00F1C04000F00040704700818283CD
:105AA0008485868788898B8C8D8E8F91929395962D
:105AB00097999A9C9D9FA0A2A3A5A7A8AAACAEB0B7
:105AC000B2B3B5B7B9BCBEC0C2C5C7C9CCCED1D4BC
:105AD000D7D9DCDFE2E6E9ECF0F3F7FAFE000000EC
